:020000040800F2
:1080000000000820C1820008BD820008BD8200086F
:10801000BD820008BD820008BD820008000000008B
:1080200000000000000000000000000015D2010860
:10803000BD82000800000000ADD20108BDD20108D9
:10804000BD820008BD820008BD820008BD82000814
:10805000BD820008BD820008BD820008BD82000804
:10806000BD820008BD820008BD820008BD820008F4
:10807000BD820008BD820008BD820008BD820008E4
:10808000BD820008BD820008BD820008BD820008D4
:10809000BD820008BD820008BD820008BD820008C4
:1080A000BD820008BD820008BD820008BD820008B4
:1080B000BD820008BD820008BD820008BD820008A4
:1080C000BD820008BD820008BD820008BD82000894
:1080D000BD820008BD820008BD820008BD82000884
:1080E000BD820008BD820008BD820008BD82000874
:1080F000BD820008BD820008BD820008BD82000864
:10810000BD820008BD820008BD820008BD82000853
:10811000BD820008BD820008BD820008BD82000843
:10812000BD820008BD820008BD820008BD82000833
:10813000BD820008D9990008BD820008BD820008F0
:10814000BD820008BD820008BD820008BD82000813
:10815000BD820008BD820008BD820008BD82000803
:10816000BD820008BD820008BD820008BD820008F3
:10817000BD820008BD820008BD820008000000002A
:10818000BD820008BD820008BD820008BD820008D3
:10819000BD820008BD820008BD820008BD820008C3
:1081A0000000000000000000BD820008BD82000841
:1081B000BD820008BD820008BD820008BD820008A3
:1081C000BD820008BD82000800000000BD820008DA
:1081D000BD820008BD820008BD820008BD82000883
:1081E000BD820008BD820008BD820008BD82000873
:1081F00000000000BD820008000000000000000038
:1082000010B5054C237833B9044B13B10448AFF3D0
:1082100000800123237010BD900A002000000000A0
:108220000895020808B5034B1BB103490348AFF397
:10823000008008BD00000000940A00200895020894
:10824000A3F5803A704700BF174B002B08BF134BB4
:108250009D46FFF7F5FF00218B460F461348144A51
:10826000121A15F057FC0E4B002B00D098470D4BFF
:10827000002B00D098470020002104000D000D487D
:10828000002802D00C4819F093FE15F0D7FA200010
:10829000290000F04BF915F0C1FA00BF00000800FA
:1082A000000000005D94000800000820900A0020F3
:1082B000080E0120B11F0208A1320208FEE700BF2C
:1082C000214B83F30888BFF36F8F00F07FF81F4CBA
:1082D0001F4BA34215D29C46DCF808306BB100233B
:1082E000DCE900120439043A51F8040F013342F872
:1082F000040FDCF808008342F6D30CF10C0CA44503
:10830000EAD3144A144B9A421CD203F1FF3C02F107
:10831000100302F108000024ACEB020C2CF0070C57
:108320009C4450F8043C53B150F8082C0023043A04
:10833000013342F8044F50F8041C8B42F8D3083044
:108340006045EED1FFF780FF000008202C95020861
:10835000149502082C9502083C950208164A936869
:1083600003F00C03042B0CD0082B0CD0134B124A37
:10837000134892681349C2F30312825CD3400B6026
:108380007047114BF3E7536851685B0253680A4A20
:1083900001F03F0148BF0C48C3F3881358BF07489A
:1083A0005268B0FBF1F1C2F3014201FB03F3013269
:1083B0005200B3FBF2F3DAE7003802400024F40085
:1083C000247B020804000020002D3101064B074ADF
:1083D00007499A60D3F88820064842F47002C3F82F
:1083E00088200860FFF7BABF00ED00E000800008B9
:1083F0000400002000C2EB0B10F062BD444C0521CC
:10840000444D206800B59BB012F06EFF00F016F9E5
:108410000221012000F026FA0221084600F022FA8B
:108420000221032000F01EFA0221042000F01AFAB3
:108430000221052000F016FA0221062000F012FAAF
:10844000354B4FF4405240F277109A6112F0F2FF30
:108450000021084606F0AEFE2346304A304843F875
:10846000182F304902956FF07F45E26004F1140245
:10847000019000206160216104F11001009004F17D
:108480001C00A560656108F065FE04F11C0009F0A0
:108490006DF894F8493004F11C005B0735D509F0FC
:1084A00075F800200825044601F01EFE4FF48051A7
:1084B0009DF820301C4A40F22310ADF81610A1F1AF
:1084C00081510A9265F30713A1F593114FF0C84249
:1084D00009902046A1F277418DF820300B9105A933
:1084E0001368ADF822408DF8283000F0D5FA204608
:1084F00001F0DEFE204601F021FF204601F0DCFD08
:1085000014F0D8F814F08EF9FAE709F08FF8C8E7FC
:10851000AC0A0020E1EF000800040240C0A81401EA
:108520007D9E0008C0A81446012345672348002308
:1085300000B5C0F884308BB0BFF34F8F436923F48C
:1085400080334361BFF34F8FD0F8803043F6E0743F
:10855000C3F34E3CC3F3C90E4FEA4C1C0CEA0401B2
:10856000734641EA8372013BC0F874225A1CF8D169
:10857000ACF1200C1CF1200FF0D1BFF34F8FBFF3F3
:108580006F8F00F077FA14F0E3FC2422002101A899
:1085900015F0C0FA4FF4006301AA002108480693C1
:1085A00014F050F80023012106481A4612F062FE2A
:1085B000054B186014F02CFDFEE700BF00ED00E055
:1085C000FD830008F9830008AC0A002010B50C46B2
:1085D00000F040FB50B96388C3F30B03012B06D0B6
:1085E000032B03D194F90C30002B01DB012010BDCB
:1085F000E4782409204600F09FFC054B04EB84013D
:10860000204603EB810100F0ABFC012010BD00BF50
:10861000507B0208012804D0022805D0032806D088
:108620007047002000F0F8B8024800F0F5B80248A2
:1086300000F0F2B8C87B0208507B020810B5254C48
:108640000020214600F08CFC002240F2FF7311460E
:10865000104600F053FB04F11401012000F080FCEF
:10866000002240F2FF730120114600F047FB04F1A5
:108670002801022000F074FC002240F2FF73022067
:10868000114600F03BFB04F13C01032000F068FCC4
:10869000002240F2FF730320114600F02FFB04F18B
:1086A0005001042000F05CFC002240F2FF73042023
:1086B000114600F023FB04F16401052000F050FC9A
:1086C000002240F2FF7305201146BDE8104000F083
:1086D00015BB00BF507B0208BFF34F8F0549064B07
:1086E000CA6802F4E0621343CB60BFF34F8F00BF50
:1086F000FDE700BF00ED00E00400FA05704700BF91
:10870000074A4FF4C0214FF4FA63916100BF013B67
:10871000FCD1BFF35F8F024B4FF400029A617047A8
:1087200000240240124A80214FF4FA63916100BF95
:10873000013BFCD10E4A06214FF47A73916100BFD0
:10874000013BFCD1BFF35F8F0C224FF0C8404FF0CC
:1087500080714FF4C873016100BF013BFCD14FF43D
:10876000C873816000BF013BFCD1013AF1D1704771
:108770000024024008B5054A4FF4800141F28833D5
:10878000916100BF013BFCD1FFF7A6FF001802403A
:10879000014698B10A4A0620D36CC3F30B030B6061
:1087A0005063936843F08043936013689B07FCD544
:1087B000D36C0020C3F30B030B607047012070479C
:1087C00000210140024640B1054B00201B696FEAC1
:1087D000131303F00F03136070470120704700BFAD
:1087E0000028024028B102684FF0C84300209A6573
:1087F00070470120704700BF024640B1054B002082
:108800001B696FEA133303F00F03137070470120E5
:10881000704700BF0024024008B50D4901220D4BEE
:108820004FF4800504460C488D610C491A602022E3
:1088300015F094FD78220021094815F06BF924B158
:1088400078222146064815F04FF8FFF745FF00BF94
:108850000018024000FF012004FF0120407C0208B4
:1088600024FF0120082800F2A780DFE800F00E05B1
:108870000505050505251F000138C0B2032900F2D2
:108880009D80DFE801F0464E565E10B44C4A4FF42E
:1088900000744C4B4FF4004002299461986120D041
:1088A00003290FD0012917D0002012E003291DD879
:1088B000DFE801F071784F59032917D8DFE801F09C
:1088C0005A6118224FF000744FF00041002094616B
:1088D00099615DF8044B70474FF00073002093617D
:1088E000F7E74FF0004200209A61F2E7002070475E
:1088F0004FF0C8434FF400114FF48012002019616B
:108900009A6070474FF0C8434FF4401200201A613C
:108910007047C3022C4A4FF4206100201A441160B2
:108920007047C302284A4FF4106100201A441160B6
:108930007047C302244A4FF4C06100201A441160FA
:108940007047C302204A4FF4A06100201A4411600E
:1089500070474FF0C8434FF400014FF480020020ED
:1089600019619A6070474FF0C8434FF440020020ED
:108970001A6170474FF0C8434FF4401200209A60CC
:1089800070474FF0C8434FF480114FF4001200209D
:1089900019619A6070474FF0C8434FF440020020BD
:1089A0009A6070474FF0C8434FF480014FF40002C3
:1089B000002019619A6070470220704701207047BB
:1089C0000024024000040240000800644FF0C84345
:1089D000254AD3F8201803F5805C03F5005001F018
:1089E0000F01515C090741F0404110B4C3F8201851
:1089F00003F54053DCF820101C4C01F00F01515CD2
:108A0000090741F04041CCF82010DCF8201801F0B3
:108A10000F01515C090741F04041CCF82018016A70
:108A200001F00F01515C090741F040410162D0F8AB
:108A3000201801F00F01515C090741F04041C0F8D6
:108A400020184FF48030196A01F00F01525C1207B0
:108A500042F040421A624FF08072054BA0615DF80F
:108A6000044B9A61704700BF547C02080028024002
:108A70000020024008B500F03DFB00F0DFFC0020C4
:108A800008BD00BF642303FB00F020B1002300BF3A
:108A900001339842FBD1704709B305281FD8C002A3
:108AA00000F1C843D3F80838DB072CD54B88C3F353
:108AB0000B02012A10B414D0B3F5805F25D041F227
:108AC000020293421DD118305E4B5F4C0431C21834
:108AD000C4500B68002013605DF8044B70470420FD
:108AE0007047CB8ADA0720D4DC0640F193800B7DF7
:108AF000564A1B0932F81320930842F08052013B7A
:108B000015E00320E8E702207047CB89DA077DD41F
:108B1000DB0640F18A800B7B4C4A1B0932F813209C
:108B2000930842F08052013B72E00423484A0C3122
:108B30001830444C013B02510219132B00F2808083
:108B40000FF2040C5CF823F0D38A0008058C0008AF
:108B5000FF8B0008F98B0008F38B0008ED8B0008F1
:108B6000E78B0008E18B0008DB8B0008D58B000841
:108B7000CF8B0008C98B0008C38B0008BD8B000891
:108B8000B78B0008B18B0008AB8B0008A58B0008E1
:108B90009F8B0008998B000851F8043B035151F852
:108BA000043B035151F8043B035151F8043B03517A
:108BB00051F8043B035151F8043B035151F8043B75
:108BC000035151F8043B035151F8043B035151F850
:108BD000043B035151F8043B035151F8043B03514A
:108BE00051F8043B035151F8043B035151F8043B45
:108BF000035151F8043B035151F8043B035151F820
:108C0000043B035151F8043B035162E70423104A2B
:108C100004318DE70A7D0D4B120903EB42031A8CD8
:108C2000930842F08052013B81E70A7B074B12090F
:108C300003EB42031A8C930842F08052013BE7E7B2
:108C4000002049E70008006408000210647C020864
:108C500014000010002947D04FF0C843DA69BFF371
:108C60004F8F9B69BFF34F8FD8071FD51F4B10B491
:108C70001A78EAB91E4AD164BFF35F8F116C3F24A2
:108C8000072041F0010111641821D460C2F884006A
:108C9000184C516701211848946710671970136CBC
:108CA000D907FCD400205DF8044B704701207047C1
:108CB0000F4AD167BFF35F8F116F4FF47C14072009
:108CC00041F001011167182194605065094C51640D
:108CD00000210948946410641970136FDB07FCD4F9
:108CE00000205DF8044B704704207047000B002003
:108CF00000640240800000648056A000052868D807
:108D00009A4266D8B3F5006F63D22DE9F043364E30
:108D10004FEA801E012700E00A460EEB521402F0D3
:108D20001F0C12F0070F02F1010106EB840407FA91
:108D30000CFCB146F0464ED065688B424CEA050506
:108D40006560E9D20832934227D3FF2708EB51161A
:108D500001F01F040A46083109EB860607FA04F4FD
:108D60000F327568934244EA05047460EED299426A
:108D700013D8DFF874904FEA8018012608EB5114DD
:108D800001F01F02013109EB840406FA02F28B4262
:108D9000656842EA05026260F0D20202134BC1022A
:108DA00003F1FC0C101F01F1C8419444034400225C
:108DB00042F0060453F8040FC1F81048BFF34F8F78
:108DC0009C4502F18072C1F81408F1D10020BDE881
:108DD000F08304207047D11D8B421146C7D3DFF8C2
:108DE00008904FEA8018B0E7000B0020040B002029
:108DF00005286CD89A426AD8B3F5006F67D22DE97E
:108E0000F0438146374F86014FF0010800E00A46E3
:108E100006EB521402F01F0C12F0070F02F10101D1
:108E200007EB840408FA0CFC3D46B64651D0606856
:108E30008B4220EA0C0CC4F804C0E8D208329342FA
:108E400027D34FF0FF0C0EEB511401F01F060A461A
:108E5000083105EB84040CFA06F70F32666893427A
:108E600026EA07066660EED2994212D81D4D4FEAF7
:108E7000891E01270EEB511201F01F04013105EB91
:108E8000820207FA04F68B42546824EA060454600E
:108E9000F0D24FEA0922144B4FEAC921101F03F107
:108EA000FC0C01F1C84194440344002242F0060442
:108EB00053F8040FC1F81048BFF34F8F9C4502F1DF
:108EC0008072C1F81408F1D10020BDE8F0830420BD
:108ED0007047D11D8B421146C6D3024D4FEA891E01
:108EE000AFE700BF000B0020040B002005281FD8AF
:108EF000104B0202C00203F1FC0C111F00F1C8402C
:108F0000944400220B4430B500F6140E1546144666
:108F100042F0060143F8045FC0F81018BFF34F8F0A
:108F2000634502F18072CEF80040F1D1002030BDDF
:108F300004207047040B002005280ED80203C0024D
:108F400042F0010200F1C843C3F81028BFF34F8F6D
:108F500000221046C3F8142870470420704700BF51
:108F6000052872D8B1FA81F35B0900296DD04FEA68
:108F7000C02C020342F001000CF1C84210B5C2F847
:108F80001008BFF34F8F4020C2F81438C2F8000811
:108F90004FF4FA7000BF0138FCD1D2F808389B07B3
:108FA000F6D58023494CC2F800380B68A34212D092
:108FB000474CA3427ED0474CA3427FD0464CA342AD
:108FC00045D0464CA3427DD0454CA3423BD13123F2
:108FD000C2F8003802E03223C2F800384B7A0CF1B4
:108FE000C84E8A7A013B120442EA03628B885C1EF7
:108FF000CB8842F00402013B1B0243EA04430C7A93
:10900000CEF81028013C2343BFF34F8FCEF814381D
:109010008A7C0B7CCC89013A013B013C12061B0285
:1090200042F0050243EA04434C7CCEF81028621E4D
:109030001343BFF34F8FCEF814380B7B012B29D08D
:10904000022B08D0F3B1052010BD0420704729235E
:10905000C2F80038C2E7234BCEF81038BFF34F8F69
:109060000023CEF81438CB7A0CF1C84C002B14BF77
:1090700003230223CCF81038BFF34F8F0023CCF822
:10908000143810BD184ACEF81028BFF34F8FCEF811
:109090001438E8E7154BCEF81038BFF34F8F002394
:1090A000134ACEF81438CEF81028BFF34F8FCEF8FD
:1090B0001438D8E72123C2F800388FE72523C2F8F7
:1090C00000388BE72D23C2F8003887E700B4C404CA
:1090D00000879303005A620280C3C90100366E0103
:1090E000002D31010B0014000C0014000B000400D3
:1090F0000C001000094B002009494FF47C1210B4F9
:10910000087007249A6018200649074A5C6558646D
:109110005DF8044B99641A64704700BF0064024014
:10912000000B0020800000648056A0000F4B9A695D
:1091300012F0300F05D03021D9619A6912F0300F4A
:10914000FAD10B4B094A1B7843F000735360BFF30D
:109150004F8F5368002043F400535360936913F01A
:10916000100F18BF01209B06F8D57047005400402F
:109170000411002010B5FFF7D9FF0028FBD1274BC1
:109180009A6912F0220F05D02221D9619A6912F052
:10919000220FFAD1224C214AD4E90131DB0B0231F2
:1091A00003F00E0343F0A00343EA01412370516032
:1091B000BFF34F8F536843F400535360936999078B
:1091C000FCD560681549C0F3072393628B699A0741
:1091D000FCD5C0B2A36888626BB112490F4A0B4438
:1091E000083103F1080093699B07FCD511F8013F92
:1091F00081429362F7D1094A93695906FCD500234D
:109200005360BFF34F8F4FF48043044953608B6921
:109210009B06FCD50023237310BD00BF0054004003
:109220000411002008110020002A00F09A80B0F5F7
:10923000002F2DE9F047064680F082808318914682
:10924000B3F5002F7CD80C46002979D0464D2B7BF6
:10925000002B7FD1A0466627444CC1446B68B342C3
:1092600003D8F31AAA68934260D32B7B26F07F0AB7
:10927000002B68D18023C5E901A3FFF757FF002821
:10928000FBD1A36913F0660F04D0E761A36913F063
:10929000660FFAD14FEADA3303F00E0343F0A0036E
:1092A00043F400322B706260BFF34F8F636843F466
:1092B00000536360A3699807FCD56A68C2F307236B
:1092C000A362A3699907FCD5D3B2A362A3695B0625
:1092D000FCD5D30B264A03F00E0343F0A0031A4338
:1092E0002B706260BFF34F8F6268AB6842F400522C
:1092F000012B62600CD91F4A1344083203F10801A4
:10930000A3695807FCD5636A02F8013F8A42F7D186
:1093100000236360BFF34F8F4FF480436360A36902
:109320009B06FCD56B680022F31A2A732B44013686
:109330005B7B08F8013BC84590D10020BDE8F08771
:109340000220BDE8F087AB6813B1FFF713FF91E788
:109350002B738FE7AB6813B1FFF70CFF7AE72B7322
:1093600078E70220704700BF04110020005400403D
:109370000004800008110020002A40D0B0F5002F22
:109380002DE9F041044632D200EB0208B8F5002F77
:109390002DD80E4659B31C4D01270DE0AB68BBB16B
:1093A000FFF7E8FE2B7B9BB1D5E901231A44A242CB
:1093B00027D00134A04517D06A6844F07F0342F0FB
:1093C0007F018B4201D1A24214D92B7B002BE5D126
:1093D000012200236C602F7301342B44AA60A04546
:1093E00016F8012B5A73E7D10020BDE8F081022066
:1093F000BDE8F081AB681A44A242D3D2E5E702206F
:1094000070475A1CE8E700BF0411002010B50A4C51
:10941000237B43B1A36833B1FFF7ACFEFFF786FEB1
:1094200018B9A06010BD00232373FFF77FFE00284A
:10943000FBD1A06010BD00BF04110020044B00222E
:109440004FF0FF30A0211A731970C3E901026DE6D5
:1094500004110020FEE700BFFEE700BF80B500AFAB
:1094600013F076FD00BF80BD80B483B000AF78609C
:1094700000BF0C37BD465DF8047B704780B582B0F5
:1094800000AF78607A6813469B001344184611F0C9
:10949000D1FF00BF0837BD4680BD80B500AF00F0EA
:1094A00003F80346184680BD80B500AF13F050FEA8
:1094B0000346034AA2FB03239B08184680BD00BF56
:1094C000CDCCCCCC80B400AF00BFBD465DF8047BF2
:1094D000704780B58EB000AFF860B9607A603B60CD
:1094E00007F1100324220021184614F013FB3B68F7
:1094F0007B62FB683B613B6CBB6207F110031A4661
:109500007968B86813F09EF878637B6B1846383733
:10951000BD4680BD80B582B000AF78600A4811F0CA
:109520005BFC02467B681A607B681B68002B01D0DD
:10953000002304E00120FFF797FF4FF0FF331846A8
:109540000837BD4680BD00BFA87D020880B584B045
:1095500000AF78607B681B684FF0FF31184611F050
:109560006FFCF860FB68002B02D00220FFF77CFF45
:1095700000BF1037BD4680BD80B584B000AF7860B5
:109580007B681B68184611F079FCF860FB68002BBB
:1095900002D00320FFF768FF00BF1037BD4680BD33
:1095A00080B582B000AF786039603B68002204214A
:1095B000184610F08BFA02467B681A607B681B68BD
:1095C000002B01D0002304E00420FFF74DFF4FF0F3
:1095D000FF3318460837BD4680BD80B584B000AF64
:1095E000786039603B68BB607B68186807F10801E8
:1095F0004FF0FF33002210F0A1FAF860FB68002B57
:1096000002D00520FFF730FF00BF1037BD4680BDF8
:1096100080B584B000AF786039603B68FB607B68E0
:10962000186807F10C010023002210F087FA0346A6
:10963000002B01D1002304E00620FFF715FF4FF0B7
:10964000FF3318461037BD4680BD80B582B000AFED
:109650007860396039687868FFF7DAFF03461846A2
:109660000837BD4680BD80B586B000AFF860B960F0
:109670007A607B68002B0CD0FB6818687A68134608
:109680009B00134407F11001002210F0A5FA786145
:1096900009E0FB68186807F110014FF0FF33002262
:1096A00010F09AFA78617B6913F1020F02D14FF042
:1096B000FF3304E03B691A46BB681A600023184672
:1096C0001837BD4680BD80B584B000AF78600B46CA
:1096D000FB70FB7800221946012011F0ADF8F8600C
:1096E000FB68002B05D10720FFF7BEFE4FF0FF33CC
:1096F00003E07B68FA681A60002318461037BD46FD
:1097000080BD80B584B000AF78607B681B68184668
:1097100010F016FBF860FB68002B02D00820FFF762
:10972000A3FE00BF1037BD4680BD80B584B000AF3A
:1097300078607B681B68184611F0F6F8F860FB68E3
:10974000002B02D00920FFF78FFE00BF1037BD4667
:1097500080BD80B584B000AF78607B681B68184618
:1097600011F03AF9F860FB68002B02D00A20FFF7ED
:109770007BFE00BF1037BD4680BD80B584B000AF12
:10978000786039607B68186807F1080100230022BF
:1097900010F022FAF860FB68002B02D04FF0FF3384
:1097A00004E0BB681A463B681A600023184610376D
:1097B000BD4680BD80B584B000AF786039603B683D
:1097C000002B0AD07B6818683A6813469B00134444
:1097D000194611F069F8F86007E07B681B684FF0E4
:1097E000FF31184611F060F8F860FB68002B02D0DA
:1097F0004FF0FF3300E0002318461037BD4680BD10
:1098000080B584B000AF78607B681B68184611F0A3
:1098100069FBF860FB68002B02D00B20FFF724FEE9
:1098200000BF1037BD4680BD80B58AB000AF7860FC
:109830007B681B683A4A93426DD13A4B1B6B394A9D
:1098400043F000731363374B1B6B03F000733B61F2
:109850003B69344B1B6B334A43F080631363314BDA
:109860001B6B03F08063FB60FB682E4B1B6B2D4A68
:1098700043F0006313632B4B1B6B03F00063BB606F
:10988000BB684FF4C0437B610223BB610023FB61D3
:1098900003233B620B237B6207F114031946224822
:1098A0000EF014FC32237B610223BB610023FB61B9
:1098B00003233B620B237B6207F1140319461B4809
:1098C0000EF004FC86237B610223BB610023FB6155
:1098D00003233B620B237B6207F1140319461448F0
:1098E0000EF0F4FB4FF400637B610223BB610023A5
:1098F000FB6103233B620B237B6207F114031946D0
:109900000C480EF0E3FB002205213D200FF0C0FBC8
:109910003D200FF0FBFB00BF2837BD4680BD00BFD8
:109920000080024000380240001802400008024057
:10993000000002400004024080B582B000AF7860B1
:109940007B681B68164A934226D1164B1B6B154A3F
:1099500023F080631363134B1B6B124A23F00063E5
:109960001363104B1B6B0F4A23F0007313634FF408
:10997000C0410D480EF0F0FC32210C480EF0ECFC1A
:1099800086210B480EF0E8FC4FF4006109480EF008
:10999000E3FC3D200FF0C8FB00BF0837BD4680BD8B
:1099A00000800240003802400018024000080240D7
:1099B000000002400004024080B582B000AF786031
:1099C000044B1B68184610F0AFFF00BF0837BD46B8
:1099D00080BD00BF3442002080B500AF02480EF0C9
:1099E0003FF800BF80BD00BF3842002080B58EB078
:1099F00000AF78604D4B4E4A1A604C4B01225A60C2
:109A00004A4B4FF40062DA60484B4FF480429A6050
:109A1000464B03221A8207F13003062219464548B5
:109A2000FFF702FC414A07F1300353613F4B01222B
:109A30009A613E4B0022DA613C4B4FF400021A62FD
:109A40003A480EF0BDF8034687F8373097F83730BC
:109A5000002B08D17B6893F82D3043F00403DAB271
:109A60007B6883F82D200423334A34492F480DF0B6
:109A70003BFE0423324A33492C480DF07BFE7B68C1
:109A8000062283F82C20294B5B691A787B6883F8BF
:109A90002620264B5B695A787B6883F82720234B66
:109AA0005B699A787B6883F82820204B5B69DA78B9
:109AB0007B6883F829201D4B5B691A797B6883F8E2
:109AC0002A201A4B5B695A797B6883F82B207B68C4
:109AD00040F2DC529A847B6893F82D3043F00A03FD
:109AE000DAB27B6883F82D2000220121012010F0DA
:109AF000A3FE0346144A136007F10C03242200213D
:109B0000184614F007F84FF400733B6230237B6271
:109B100007F10C031A4679680C4812F093FD0348CC
:109B20000EF058F900BF3837BD4680BD38420020DE
:109B300000800240F8FF0700642A00201412002071
:109B4000941200209411002034420020F19D00085E
:109B500080B58AB000AF786039604B4BDB6A9B6898
:109B6000FB6100237B6100233B610023FB6000233A
:109B7000BB60454BDB6ABB6100233B613B683B62DA
:109B80005AE0BB691B68002B03DAF82387F82730FB
:109B90005CE03B6A5B89FB600023BB602FE0FA69F5
:109BA0003B69D0183B6A5A68BB68D1183A6940F2E1
:109BB000F4539B1A1A4613F097FEBB69DB68BB612E
:109BC000BB691B68002B03DAF82387F827303DE0D8
:109BD000BB699B68FB613A69FB681344A3F2F453C9
:109BE000FB60BA683B69D31A03F2F453BB607A692D
:109BF0003B69D31A03F2F4537B6100233B61FA689B
:109C00003B69134440F2F4529342C8D8FA693B6965
:109C1000D0183B6A5A68BB681344FA68194613F0B7
:109C200063FE3A69FB6813443B617A69FB6813443D
:109C30007B613B6A1B683B623B6A002BA1D179695F
:109C400011480DF0E7FD002387F827300E4B1B6805
:109C500003F580535B6903F02003002B0DD00A4B02
:109C60001B6803F580531A4620235361064B1B687B
:109C700003F580531A460023536097F9273018469E
:109C80002837BD4680BD00BF3842002080B58CB06B
:109C900000AF78600023FB620023BB620023FB81DE
:109CA0000023FB610023BB6100237B6100233B6138
:109CB0004E480DF07FFE0346002B01D0002391E0BB
:109CC0004A4BDB6BFB81494B1B6C7B62FB89002B96
:109CD00007D0FB894FF4C1721946002005F0DCFF64
:109CE000F862FB6A002B4BD0404B1B6B3B6200239E
:109CF000FB61FB6ABB6240E0BB6A5B897B6100235E
:109D0000BB6121E0BB6A5A68BB69D0187A6AFB69FB
:109D1000D118FA6940F2F4539B1A1A4613F0E4FD85
:109D20003B6ADB683B623B6A9B687B62FA697B69E2
:109D30001344A3F2F4537B61BA69FB69D31A03F2AB
:109D4000F453BB610023FB617A69FB69134440F261
:109D5000F4529342D6D8BB6A5A68BB69D0187A6A63
:109D6000FB6913447A69194613F0BEFDFA697B69F1
:109D70001344FB61BB6A1B68BB62BB6A002BBBD18F
:109D80001A4B1B6B3B6200233B610BE03B6A1B6879
:109D900043F000423B6A1A603B6ADB683B623B6906
:109DA00001333B61114B9B6B3A699A42EED30F4BE7
:109DB00000229A630D4B1B6803F580535B6903F027
:109DC0008003002B0DD0094B1B6803F580531A4606
:109DD00080235361054B1B6803F580531A4600230B
:109DE0009360FB6A18463037BD4680BD384200207C
:109DF00080B584B000AF78607B68FB600F4B1B6858
:109E00004FF0FF31184610F04FFD0346002BF5D1FF
:109E1000F868FFF73BFFB860BB68002B0AD0FB680F
:109E20001B69F968B86898470346002B02D0B868E8
:109E300006F0CAF9BB68002BEAD1DFE73442002004
:109E400080B582B000AF3B1D1A4611210A480DF0C3
:109E500045FE7B6823F4F0437B607B6843F4B043AA
:109E60007B607B681A46112103480DF071FE00BF2C
:109E70000837BD4680BD00BF3842002080B582B0A3
:109E800000AF78607B68732283F82E207B68742291
:109E900083F82F207B68064A5A617B68054A9A61DD
:109EA0007868FFF7A3FD002318460837BD4680BD3C
:109EB000B9D20008519B0008BFF34F8F0549064BEC
:109EC000CA6802F4E0621343CB60BFF34F8F00BF58
:109ED000FDE700BF00ED00E00400FA050AB3F0B5AD
:109EE000558985B0144600262A4601A86168039664
:109EF000174FCDE9016613F0F7FC04AB396801A8F0
:109F00001D4405F80C6C13F09FFFB0B1796801A8EF
:109F100013F09AFF30B1204605B0BDE8F04006F0DE
:109F200053B970470B4813F0B9FE4FF47A7011F033
:109F300081FA00F021FAFFF7BFFF074813F0AEFEE9
:109F40004FF47A7011F076FA00F00EFAFFF7B4FFD2
:109F50000C000020D47D0208B87D020830B51748F7
:109F6000ADF5017D164D00224FF0FF3369460068C4
:109F70000FF032FE6946284614F0D0F8284614F057
:109F80003FF901464FF4C172362089B205F084FED4
:109F900080B10446284614F033F90246294620468B
:109FA00092B206F087FB2146686E0CF06BFF2046EC
:109FB00006F00AF90DF5017D30BD00BFF442002026
:109FC0008042002008B5FFF7C9FF012011F032FAE6
:109FD000F9E700BF70B51A4EB36E33B3054614F0FF
:109FE0000FF901464FF4C172362089B205F054FED4
:109FF0000446F8B1284614F003F9294682B22046F7
:10A0000006F058FB2146B06E0CF03CFF20B920460C
:10A01000BDE8704006F0D8B801460A4813F0DCFDF0
:10A020002046BDE8704006F0CFB80748BDE8704054
:10A0300013F034BE0548BDE8704013F02FBE00BFDA
:10A0400080420020287E0208EC7D02080C7E020877
:10A0500030B583B0134C144D0DF0B8F9072201A9A7
:10A06000606601950DF0EFF80DF0B0F901A90A2234
:10A070000195A0660DF0E7F80DF0A8F9E06658B17B
:10A0800041F6907209490DF04AF800220849E06E45
:10A090000DF050F903B030BD0648FFF79BFFE06EAE
:10A0A000EEE700BF80420020C0A81445708E020871
:10A0B000DD9E0008487E020808B5074A00210748CF
:10A0C00012F0C0FA064B186700B108BD0548BDE89C
:10A0D000084013F0E3BD00BFCC7E0208C59F000816
:10A0E00080420020607E020880B582B000AF7860B8
:10A0F000FFF7AEFF094813F0D1FD4FF4FA6011F0FD
:10A1000099F900224FF4007105200FF0DFFC03469F
:10A11000034A136000BF0837BD4680BDF07E0208C9
:10A12000F442002080B5ADF5047D00AF07F504735F
:10A13000A3F50173186007F50473A3F502731960A2
:10A1400007F50473A3F503731A6007F50473A3F509
:10A1500002733C49186814F08DFA0346002B66D14F
:10A1600007F50473A3F502733749186814F082FAEF
:10A170000346002B2CD007F50473A3F500730022CF
:10A180001A6004334FF4FE720021184613F0C2FC2B
:10A1900007F50473A3F503731A6807F50473A3F5B1
:10A1A000027307F11000196814F0D8F807F504736A
:10A1B000A3F5007207F50473A3F503731B6813443A
:10A1C00000221A7007F110031846FFF703FF2EE074
:10A1D00007F50473A3F5007300221A6004334FF4EB
:10A1E000FE720021184613F095FC07F50473A3F5E1
:10A1F00003731A6807F50473A3F5027307F11000DF
:10A20000196814F0ABF807F50473A3F5007207F5AD
:10A210000473A3F503731B68134400221A700B4BDD
:10A22000186807F11001002300220FF087FC07F5E2
:10A230000473A3F503731B68184607F50477BD463E
:10A2400080BD00BF007F0208087F0208F4420020A2
:10A2500080B5ADF5826D02AF07F58163A3F20443CB
:10A2600018600E4A07F10800172300930C4B0D49A4
:10A2700013F05EFD07F502730B49184613F058FD05
:10A2800007F5027207F108031946084813F0A4FC09
:10A290004FF47A7011F0CEF8E3E700BF427F020876
:10A2A000707F02084C7F0208587F0208687F02080E
:10A2B00080B582B000AF7860054A0021054812F0F1
:10A2C000C1F90346044A136000BF0837BD4680BD8C
:10A2D000187F020851A200081C43002080B5ADF58C
:10A2E000826D02AF07F58163A3F2044318600E4A42
:10A2F00007F10800172300930C4B0D4913F018FDCC
:10A3000007F502730B49184613F012FD07F50272A8
:10A3100007F108031946084813F05EFC4FF47A7001
:10A3200011F088F8E3E700BFB27F0208E07F02087F
:10A33000BC7F0208C87F0208D87F020880B582B0BF
:10A3400000AF7860054A0021054812F07BF903460A
:10A35000044A136000BF0837BD4680BD887F0208ED
:10A36000DDA2000820430020024B4AF2A5525A65A4
:10A37000704700BF00280040014B00225A6570471B
:10A3800000280040044A4AF2A553506DC01AB0FAA2
:10A3900080F04009704700BF00280040074B084983
:10A3A0001A6C42F080521A640A6842F480720A60A1
:10A3B0001A6F42F400421A67704700BF003802402B
:10A3C0000070004080B582B000AF78602C22002180
:10A3D000786813F09FFB00BF0837BD4680BD80B58D
:10A3E00082B000AF2C2005F0D9F978607B68002B93
:10A3F00002D07868FFF7E6FF7B6818460837BD464D
:10A4000080BD80B582B000AF78607B685B69002B4F
:10A4100007D07B685B69184600F01CFD7B68002252
:10A420005A617B681B6A002B07D07B681B6A184641
:10A4300005F0CAFE7B6800221A6200BF0837BD46DD
:10A4400080BD80B582B000AF78607B68002B05D0FE
:10A450007868FFF7D6FF786805F026F800BF083760
:10A46000BD4680BD80B586B000AFF860B9607A6047
:10A47000FB707B681B88FB82FB8A002B01D10023C9
:10A4800045E0FB68B3F86430BB82BA8AFB8A9A4223
:10A4900001D2BB8AFB82FB685B8E5B00BB82FA8ABF
:10A4A000BB8A9A4201D9BB8AFB82FB78FA8AB968D7
:10A4B000F86807F0F2FA0346FB7497F91330B3F12A
:10A4C000FF3F0FD1FB68B3F86430002B04D0FB686A
:10A4D000B3F86630082B02D90123FB8202E0FB8A25
:10A4E0005B08FB8297F91330B3F1FF3F02D1FB8A7F
:10A4F000012BDAD897F91330002B03D17B68FA8A45
:10A500001A8002E07B6800221A8097F913301846FF
:10A510001837BD4680BD80B586B000AFF860B96021
:10A520001346FB710021F8680CF020F90021F8684F
:10A530000CF02DF90021F8680CF04DF900220021F3
:10A54000F8680CF071F90021F8680CF032F9BB687A
:10A55000002B02D0B868FFF774FFFB79002B04D002
:10A56000F8680BF05DF800230FE0F8680AF047FF89
:10A570000346FB7597F91730002B04D004220549D8
:10A58000F8680CF051F997F9173018461837BD469E
:10A5900080BD00BFABAB000880B582B000AF786073
:10A5A0003960002239687868FFF7B5FF034618461E
:10A5B0000837BD4680BD80B582B000AF7860396095
:10A5C00039687868FFF7E8FF00BF0837BD4680BDEF
:10A5D00080B584B000AF786039603B685B69002B60
:10A5E00005D139687868FFF7E6FF00230FE03B6884
:10A5F0005B69184600F038FCF860FB68002B05DC4E
:10A6000039687868FFF7D7FF002300E00123184678
:10A610001037BD4680BD80B584B000AF786039602A
:10A620000023FB733B685B6A4FF6FE72934203D8CC
:10A630003B685B6A9BB201E04FF6FF73BB813B68EE
:10A64000996907F10C0200237868FFF70BFF0346B6
:10A65000BB7397F90E30002B0DD10123FB733B68C0
:10A660009B69BA891A443B689A613B685B6ABA89FC
:10A670009A1A3B685A62FB7B18461037BD4680BD6C
:10A6800080B584B000AF786039600023FB733B680D
:10A69000002B01D1002325E03B685B6A002B08D129
:10A6A00039687868FFF794FF0346002B01D1002337
:10A6B00018E039687868FFF7AEFF0346FB733B6824
:10A6C0005B6A002B0DD13B685B69184600F0CCFB40
:10A6D0000346002B05DC39687868FFF76CFF002320
:10A6E00000E0FB7B18461037BD4680BD80B584B0C6
:10A6F00000AF786039603B681C4A1A607A683B6832
:10A700001B681946104600F067FB0346FB7397F978
:10A710000F30002B24D03B68154A1A607A683B68DA
:10A720001B681946104600F057FB0346FB7397F968
:10A730000F30002B14D03B680E4A1A607A683B68D1
:10A740001B681946104600F047FB0346FB7397F958
:10A750000F30002B04D03B6800221A60002300E079
:10A760007B6818461037BD4680BD00BF5880020880
:10A77000648002087080020880B58EB000AFF86077
:10A78000B9607A60FB687B62BB685B69002B03D1B0
:10A79000BB689B69002B02D06FF00703A9E0BB6880
:10A7A0001B6A002B03D1BB687A6A1A6205E0BB689A
:10A7B0001B6A796A184605F0ACFD786A05F084FDDD
:10A7C000BB681B6A1B68002B12D0BB681B6A1B8905
:10A7D00040F2FF32934228BF13467B86BB68186A5B
:10A7E0007A8E0023454905F089FE444B7B6305E0E2
:10A7F0007B6A5B687B637B6A5B897B867B8E062BCF
:10A8000062D97B8E1A463E49786B06F051FB38625E
:10A810003B6A002B58D00023FB6204223949786B35
:10A8200013F05CFD0346002B16D17B6B0333FB61F9
:10A83000FB695A1C7B6BD31A9BB27A8ED31A7B832B
:10A84000FB6901337A8B3049184606F031FBB86258
:10A85000BB6A002B11D106E07B6B043300221A7017
:10A860006FF00F0345E0FB6901337A8B24491846EA
:10A8700006F01EFBB8620123FB62FB690133BA6A72
:10A88000D31A3B83BB6A002B1ED0BA6AFB699A427B
:10A890001AD97B8E1A461D49786B06F009FB0346D0
:10A8A000002B11D0FB6901337B61FB6900221A7018
:10A8B0003B8B7A69134400221A70FA6A7969B86886
:10A8C00000F026F8034614E0BB681B6A184605F042
:10A8D000E4FC03467B82BB681B6A1B89B3F5806F6F
:10A8E00005D27B8A052B02D86FF0040301E06FF0DC
:10A8F0000F0318463837BD4680BD00BF24430020F3
:10A900007C80020880800208888002088C8002080F
:10A9100080B592B002AFF860B9607A600023BB6383
:10A9200000237B63002387F82F30BB68184613F0A1
:10A9300067FCB862BB6A002B6BD0BA68BB6A013B8C
:10A9400013441B782F2B64D1BB68534A934202D126
:10A95000BB6A012B5DD1BB6A013B3F2B28BF3F2364
:10A960007B627B6A002B0AD0BB687A6A19464A4828
:10A9700012F0BAFF484A7B6A134400221A7000237F
:10A98000FB6343E07B6A002B28D07B6AC3F13F0363
:10A990003B623B6A002B1ED0404AFB6B52F83330BF
:10A9A000184613F02DFCF861FA693B6A934228BF00
:10A9B0001346BB617B6A384A9818384AFB6B52F8D9
:10A9C0003330BA69194612F08FFF7A6ABB691344B3
:10A9D000314A0021D154304B3B6304E02F4AFB6BDA
:10A9E00052F833303B63FB68396B184600F0F4F9DA
:10A9F0000346FB7597F91730002B04D13B6BBB6006
:10AA0000FB68BB6305E0FB6B0133FB63FB6B042B53
:10AA1000B8D9BB6B002B24D1BB683F21184613F07B
:10AA2000A7F978637B6B002B05D07B6B00221A7033
:10AA30007B6B01337B63FB68BA681146184600F0F4
:10AA4000CBF90346FB7597F91730002B02D1FB6851
:10AA5000BB6306E007F108031946F868FFF746FEF6
:10AA6000B863BB6B002B06D107F108031946F868E1
:10AA7000FFF73CFEB863BA687B6B019397F82F3001
:10AA8000009313467A68B96BF86800F009F803463A
:10AA900018464037BD4680BD24470020308002085C
:10AAA00080B586B000AFF860B9607A603B60BB6883
:10AAB000002B38D0FB68BA685A61BB681A68FB681B
:10AAC0009A61BB685B681A46FB685A62FB680022A1
:10AAD00083F828207B68002B32D0FB685B691B7CE5
:10AAE00003F00103002B2BD0FB689869FB685B6ABD
:10AAF0001A46164906F0DCF978617B69002B1FD0F5
:10AB00007B691A1DFB689B69D31A3B61FB689A69D4
:10AB10003B691A44FB689A61FB685A6A3B69D21A1E
:10AB2000FB685A620CE0FB6800225A61FB68002255
:10AB30009A61FB6800225A62FB68002283F8282091
:10AB4000002318461837BD4680BD00BF8C80020820
:10AB500080B584B000AF78600B46FB707B68FB600B
:10AB6000FB68002B02D0F868FFF76BFC00BF1037C2
:10AB7000BD4680BD80B586B000AFF860B9601346B1
:10AB8000FB80FB687B617B69002B01D1002308E01F
:10AB90007B69002283F828207969B868FFF770FD87
:10ABA000002318461837BD4680BD80B584B000AF7D
:10ABB000786039607B68FB60FB68002B07D100215F
:10ABC0003868FFF7E9FC0346FB72002321E0FB68CD
:10ABD00093F828300133DAB2FB6883F82820FB6849
:10ABE00093F82830042B05D1F9683868FFF7D4FCB6
:10ABF00000230EE0FB685B69002B09D0F968386818
:10AC0000FFF73EFD0346002B02D0386807F0A8FB93
:10AC1000002318461037BD4680BD80B586B000AF12
:10AC2000F860B9607A60FB70FB687B6197F903306C
:10AC3000002B05D17B68002B02D07B69002B11D142
:10AC40007B68002B08D07B681B891946B8680AF01E
:10AC500081FE786805F0B8FA7969B868FFF79CFC5E
:10AC600000233BE07B681B891946B8680AF072FE36
:10AC70007B695B69002B2DD1BA6879697868FFF729
:10AC80007BFD0346FB7497F9133013F1050F0BD0CE
:10AC90007B691B6A002B07D07B691B6A184605F08D
:10ACA00093FA7B6900221A62786805F08DFA97F9A9
:10ACB0001330002B04D17969B868FFF7E1FC0CE090
:10ACC00097F9133013F1100F07D17969B868FFF7BE
:10ACD00063FC02E0786805F077FA0023184618371D
:10ACE000BD4680BD80B586B000AFF860B960134640
:10ACF000FB7197F90730002B02D1BB68002B02D102
:10AD00006FF0050325E00121B8680BF063FBFFF746
:10AD100066FB78617B69002B02D14FF0FF3318E0AE
:10AD20007B69BA68DA617969B8680BF01FFD0B4975
:10AD3000B8680BF02CFD0A49B8680BF04CFD0422F2
:10AD40000849B8680BF070FD0749B8680BF031FD91
:10AD5000002318461837BD4680BD00BF1BAC000855
:10AD600051AB0008ABAB000875AB000880B584B0F0
:10AD700000AF78600B467B807B68002B14D00121EC
:10AD800078680BF027FB7B881A46094978680AF037
:10AD900053FC0346FB73FF2178680AF0F8FC7860E7
:10ADA000044978680BF029FD00BF1037BD4680BD0F
:10ADB000708E0208E5AC000880B582B000AF2E208E
:10ADC0000BF0C6FC786050217868FFF7CFFF00BF1A
:10ADD0000837BD4680BD00BF80B584B000AF786045
:10ADE00039607B68002B02D03B68002B02D16FF0EA
:10ADF0000F0328E0164BFB6020E0FB685B681946F8
:10AE0000386813F021F80346002B14D1FB689A68C8
:10AE10007B681A60FB68DA687B685A60FB68DA68EE
:10AE20007B689A607B680022DA60FB681A7C7B682A
:10AE30001A74002307E0FB681B68FB60FB68002BAB
:10AE4000DBD16FF0050318461037BD4680BD00BF4B
:10AE50005C8E020880B483B000AF786000BF0C370E
:10AE6000BD465DF8047B704780B483B000AF786066
:10AE70007B685A687B689B68D31A18460C37BD46B6
:10AE80005DF8047B704700BF80B500AF1B4B1B789B
:10AE9000002B29D10CF09AFA0346194A1360184B7B
:10AEA0001B68002B02D14FF0FF3324E0144B1B68CA
:10AEB0005A7A134B1B6842F02002D2B25A72104BDE
:10AEC0001B6844220F4918460CF029F90C4B1B68EB
:10AED00043220C4918460CF0B6F9094B1B680022B6
:10AEE000094918460CF026FA044B1B780133DAB2F4
:10AEF000024B1A700023184680BD00BF9047002007
:10AF00008C470020708E020885C6000880B500AF0F
:10AF1000094B1B78013BDAB2074B1A70064B1B78C2
:10AF2000002B07D1054B1B6818460CF019FA034B90
:10AF300000221A6000BF80BD904700208C4700208F
:10AF400080B584B000AF78607B681B6AFB600C2121
:10AF5000F86801F094F8064B054A0549786806F050
:10AF60006DFA786800F082FC00BF1037BD4680BDE6
:10AF7000708E020880B584B000AF78607B681B6A71
:10AF8000FB600821F86801F07AF8FB681C330022A6
:10AF90001946786802F06AFA0346FB72FB689B79EF
:10AFA000FF2B05D0FB689B790133DAB2FB689A71FD
:10AFB0004FF4FA733B813B8903F2F313064A82FB99
:10AFC00003125211DB17D31A9AB2FB681A8100BF21
:10AFD0001037BD4680BD00BFD34D621080B584B030
:10AFE00000AF786039607B681B6AFB600C4B9B7814
:10AFF000002B11D0FB6800221A810A4B9B6818466F
:10B0000005F03DFF0246FB689A613B681A69FB68E0
:10B01000DA61786800F008F800BF1037BD4680BDDF
:10B020008447002064470020B0B58AB002AF786042
:10B030007B68002B02D16FF00F03CCE07B681B6AAA
:10B04000BB61BB69002B02D16FF00503C3E0012196
:10B05000B86901F014F807F10C030322B9697868A4
:10B0600001F0DEFB78617B69002B00F085807B6955
:10B070005B683B61B8893B6903F1F0010223392227
:10B0800001F017F80346BB81B8893B6903F1F00171
:10B090007B689B8C1A4601F046F80346BB81B88951
:10B0A0003B6903F1F0010423322201F002F8034668
:10B0B000BB81BC893B6903F1F005BB69DB691846BC
:10B0C00005F0DDFE03461A462946204601F04EF8FB
:10B0D0000346BB81B8893B6903F1F00104233622A2
:10B0E00000F0E7FF0346BB81BC893B6903F1F00533
:10B0F000BB699B69184605F0C2FE03461A462946FD
:10B10000204601F033F80346BB81B8893B6903F15F
:10B11000F0010323372200F0CCFF0346BB8100235C
:10B12000BB770EE0B8893B6903F1F001BB7F2C4A85
:10B13000D35C1A4600F0E0FF0346BB81BB7F0133BE
:10B14000BB77BB7F022BEDD9B8893B69F0337A69B5
:10B15000194601F017FC234B1868234B01937B68B9
:10B1600000934323214A79690BF032FF0346FB77B2
:10B17000786905F029F801E0FF23FB77BB699B792B
:10B18000FF2B05D0BB699B790133DAB2BB699A7199
:10B19000BB699B79052B0DD8BB699B791A460123A6
:10B1A00093409BB21A465201D21A92001344DB001C
:10B1B0009BB201E04EF66023FB81FB8903F2F3139F
:10B1C0000B4A82FB03125211DB17D31A9AB2BB69E6
:10B1D0001A8197F91F3018462037BD46B0BD00BF11
:10B1E000140000208C470020708E0208748E020824
:10B1F000D34D621080B582B000AF274B1B687B60D7
:10B2000042E07B681B6A3B603B68002B39D03B689F
:10B210005B79002B35D03B689B8A002B12D03B68B2
:10B220005B8A01339AB23B685A823B685A8A3B6810
:10B230009B8A9A4206D1786800F070FE786800F028
:10B2400090F91EE03B681B8A002B0BD03B681B8AE1
:10B250005A1E91B23A681182012B03D1786800F02E
:10B26000C7F80EE03B68DB89002B0AD03B68DB891E
:10B270005A1E91B23A68D181012B02D1786800F050
:10B2800088F87B681B687B607B68002BB9D100BFA6
:10B2900000BF0837BD4680BDD489002080B582B08C
:10B2A00000AF164B1B687B6020E07B681B6A3B602D
:10B2B0003B68002B17D03B681B89012B06D93B68E4
:10B2C0001B89013B9AB23B681A810CE03B681B89E1
:10B2D000012B08D13B681B89013B9AB23B681A815C
:10B2E000786800F00DF87B681B687B607B68002B3A
:10B2F000DBD100BF00BF0837BD4680BDD489002028
:10B3000080B584B000AF78607B681B6AFB60FB6827
:10B310005B790C2B03D0FB685B79062B03D1786833
:10B3200000F0A4FA31E0FB685B79012B0ED1FB68D9
:10B330009B79052B03D87868FFF776FE25E07868BF
:10B3400000F0ECFD786800F00CF91EE0FB685B791A
:10B35000082B0BD1FB689B79012B03D87868FFF78A
:10B3600009FE12E0786800F023FB0EE0FB685B79D1
:10B37000032B0AD1FB689B79012B03D8786800F076
:10B3800017FD02E0786800F071FA00BF1037BD4683
:10B3900080BD80B584B000AF78607B681B6AFB60BD
:10B3A000FB685B79012B07D0FB685B790A2B03D024
:10B3B000FB685B79052B17D1786800F0C1FBFB684F
:10B3C0009B891A46FB685B8AD31A012B0CDDFB684C
:10B3D0009B891A46FB685B8AD31A002B00DA01337B
:10B3E0005B109AB2FB68DA8100BF1037BD4680BDA2
:10B3F00080B584B000AF78607B681B6AFB60FB6837
:10B400005B79012B0BD0FB685B790A2B07D0FB68BB
:10B410005B79052B03D0FB685B79042B17D1786827
:10B4200000F02AFCFB689B8A1A46FB685B8AD31AE9
:10B43000012B0CDDFB689B8A1A46FB685B8AD31ADA
:10B44000002B00DA01335B109AB2FB681A8200BF4E
:10B450001037BD4680BD80B584B000AF78603960DC
:10B460007B681B6AFB60FB6800221A62FB68002293
:10B470005A62274BDB78002B03D0264BDA68FB6837
:10B480009A62234B1B79002B04D0224B1A69FB686C
:10B49000DA6204E0FB689B6A5A08FB68DA621C4BBC
:10B4A0005B79002B04D01B4B5A69FB681A6307E0D9
:10B4B000FB689A6A1346DB009B1ADA08FB681A637A
:10B4C0003B681A69FB68DA61114B9B79002B0BD042
:10B4D000104B9B69184605F0D2FC0246FB681A62C5
:10B4E000FB680122DA7102E0FB680022DA71084B86
:10B4F000DB79002B07D0074BDB69184605F0BFFC52
:10B500000246FB685A6200BF1037BD4680BD00BFCF
:10B51000844700206447002080B582B000AF786087
:10B52000396034220021386812F0F4FA7B683A68F6
:10B530001A6200BF0837BD4680BD80B582B000AF3B
:10B5400078607B681B6A002B07D07B681B6A1846F3
:10B5500003F0AAFF7B6800221A6200BF0837BD46CD
:10B5600080BD80B584B000AF78607B68002B02D1CD
:10B570006FF00F0359E07B6893F82D3003F001035F
:10B58000002B02D16FF00F034FE07B681B6AFB605A
:10B590007B689B8CB3F5107F02D24FF0FF3344E001
:10B5A000FB68002B0DD1342004F0F8F8F860FB683C
:10B5B000002B02D14FF0FF3337E07B68FA681A6244
:10B5C00005E0FB681B79002B01D0FFF79FFC3422BC
:10B5D0000021F86812F09EFAFFF756FC0346002B94
:10B5E00002D04FF0FF3320E0FB6801221A717B6824
:10B5F00093F82D3003F00403002B05D10221F868E5
:10B6000000F03DFD002310E0786800F02FF90346BC
:10B61000FB7297F90B30002B05D0786800F07EFCA8
:10B620004FF0FF3301E097F90B3018461037BD4655
:10B6300080BD80B594B002AF78607B68002B4BD0A2
:10B64000FFF722FC0346002B48D107F10C033422FC
:10B650000021184612F05EFA07F10C030721184684
:10B6600000F00DFD07F10A0307F10C0108227868CC
:10B6700001F0D6F878647B6C002B2AD07B6C5B6879
:10B680003B6478893B6C03F1F0010223392200F01E
:10B6900010FD03467B8178893B6C03F1F0017B68E8
:10B6A0009B8C1A4600F03FFD03467B8178893B6CFA
:10B6B000F0337A6C194601F065F90A4B18687B681B
:10B6C00000934323084A796C0BF036FC786C04F045
:10B6D0007BFDFFF71BFC02E000BF00E000BF483726
:10B6E000BD4680BD8C470020748E020880B584B0B2
:10B6F00000AF78607B681B6AFB60FB68002B1AD088
:10B70000FB685B790A2B08D00A2B0DDC002B14D0C8
:10B71000002B09DB033B022B06D8FB6800229A7141
:10B72000786800F045FB09E0FB6800229A717868B0
:10B7300000F09CF802E000BF00E000BF1037BD46FB
:10B7400080BD80B584B000AF786039607B68002B25
:10B7500013D07B681B6AFB60FB68002B0ED0FB6874
:10B760005B79082B0AD13B681A68FB68DB699A424F
:10B7700004D1786800F005F800E000BF1037BD463E
:10B7800080BDB0B58AB002AF78607B681B6ABB61D0
:10B790000C21B86900F073FC07F10C030422B969AD
:10B7A000786801F03DF878617B69002B35D07B69C2
:10B7B0005B683B61B8893B6903F1F00104233222E5
:10B7C00000F077FC0346BB81BC893B6903F1F005BF
:10B7D000BB69DB69184605F052FB03461A46294649
:10B7E000204600F0C3FC0346BB81B8893B69F033B7
:10B7F0007A69194601F0C6F8184B1868184B01937E
:10B800007B6800934323174A79690BF0E1FB0346F9
:10B81000FB77786904F0D8FC01E0FF23FB77BB6974
:10B820009B79FF2B05D0BB699B790133DAB2BB69E9
:10B830009A7142F21073FB81FB8903F2F3130A4AF7
:10B8400082FB03125211DB17D31A9AB2BB691A8119
:10B8500097F91F3018462037BD46B0BD8C470020F1
:10B86000708E0208748E0208D34D621080B58AB0C3
:10B8700002AF78607B681B6ABB610023FB75BB6904
:10B880000022DA610621B86900F0F9FB07F108032C
:10B890000122B969786800F0C3FF38613B69002B69
:10B8A0004BD03B695B68FB603889FB6803F1F001B2
:10B8B0000223392200F0FDFB03463B813889FB68F7
:10B8C00003F1F0017B689B8C1A4600F02CFC0346C8
:10B8D0003B813889FB6803F1F0010323372200F034
:10B8E000E8FB03463B810023FB770EE03889FB68C9
:10B8F00003F1F001FB7F294AD35C1A4600F0FCFB00
:10B9000003463B81FB7F0133FB77FB7F022BEDD9A5
:10B910003889FB68F0333A69194601F033F8204B57
:10B920001868204B01937B68009343231E4A3969B2
:10B930000BF04EFB386904F047FCBB699B79FF2B89
:10B9400005D0BB699B790133DAB2BB699A71BB69D7
:10B950009B79052B0DD8BB699B791A46012393402F
:10B960009BB21A465201D21A92001344DB009BB2DA
:10B9700001E04EF660237B817B8903F2F3130B4ACF
:10B9800082FB03125211DB17D31A9AB2BB691A81D8
:10B9900097F9173018462037BD4680BD14000020A7
:10B9A0008C470020708E0208748E0208D34D6210FE
:10B9B00080B588B000AF78607B68002B00F0B7805E
:10B9C0007B681B6ABB61BB69002B00F0B280BB695E
:10B9D00000225A82BB699B6AB3F1FF3F19D0BB6951
:10B9E0009B6A1E33554AA2FB03235B09FB61FB697B
:10B9F000B3F5803F02D34FF6FF73FB61FB699AB248
:10BA0000BB699A82BB699B8A002B02D1BB69012268
:10BA10009A82BB69DB6AB3F1FF3F1DD0BB69DB6A69
:10BA20001E33464AA2FB03235B09FB61FB69B3F5A6
:10BA3000803F02D34FF6FF73FB61FB699AB2BB698B
:10BA40005A81BB695B89002B02D1BB6901225A81F3
:10BA5000BB695A89BB69DA81BB691B6BB3F1FF3FD4
:10BA60001DD0BB691B6B1E33344AA2FB03235B0949
:10BA7000FB61FB69B3F5803F02D34FF6FF73FB61B7
:10BA8000FB699AB2BB699A81BB699B89002B02D181
:10BA9000BB6901229A81BB699A89BB691A82BB6919
:10BAA0005A89BB699B899A4206D3BB699B89002B43
:10BAB00002D0BB6900225A81BB69DB79002B03D01D
:10BAC000BB691B6A3B6114E0BB691C331B78FB75C7
:10BAD00097F91730002B02DBFF233B6109E0FB7D68
:10BAE000BF2B03D96FF07F433B6102E04FF6FF733A
:10BAF0003B61BB695B6AFB60FB68002B08D1BB69DB
:10BB0000DA693B691340FB60FB6843F08073FB60BC
:10BB10000A21B86900F0B3FABB6903F11C0107F10F
:10BB20000C0307F11002786805F088FC02E000BF02
:10BB300000E000BF2037BD4680BD00BF89888888EF
:10BB400080B58AB002AF78607B681B6ABB61052153
:10BB5000B86900F094FA07F10C030322B969786818
:10BB600000F05EFE78617B69002B4ED07B695B68DC
:10BB70003B61B8893B6903F1F0010223392200F0EF
:10BB800098FA0346BB81B8893B6903F1F0017B68F1
:10BB90009B8C1A4600F0C7FA0346BB81B8893B6903
:10BBA00003F1F0010323372200F083FA0346BB813F
:10BBB0000023BB770EE0B8893B6903F1F001BB7F3E
:10BBC0002A4AD35C1A4600F097FA0346BB81BB7F32
:10BBD0000133BB77BB7F022BEDD9B8893B69F033CA
:10BBE0007A69194600F0CEFE214B1868BB6903F153
:10BBF00018027B680093432379690BF09DF9034693
:10BC0000FB77786904F0E0FA01E0FF23FB77BB697A
:10BC10009B79FF2B05D0BB699B790133DAB2BB69F5
:10BC20009A71BB699B79092B0AD8BB699B799BB236
:10BC30001A465201D21A920013441B019BB201E032
:10BC400044F62063FB81FB8903F2F313094A82FB6C
:10BC500003125211DB17D31A9AB2BB691A8197F9F2
:10BC60001F3018462037BD4680BD00BF140000209D
:10BC70008C470020D34D621080B58AB002AF786047
:10BC80007B681B6ABB610421B86900F0F8F907F111
:10BC90000C030322B969786800F0C2FD78617B6902
:10BCA000002B4CD07B695B683B61B8893B6903F131
:10BCB000F0010223392200F0FCF90346BB81B88968
:10BCC0003B6903F1F0017B689B8C1A4600F02BFA6C
:10BCD0000346BB81B8893B6903F1F0010323372296
:10BCE00000F0E7F90346BB810023BB770EE0B8897B
:10BCF0003B6903F1F001BB7F294AD35C1A4600F08F
:10BD0000FBF90346BB81BB7F0133BB77BB7F022BB3
:10BD1000EDD9B8893B69F0337A69194600F032FEF3
:10BD2000204B18687B68009343231F4A79690BF006
:10BD300003F90346FB77786904F046FA01E0FF2334
:10BD4000FB77BB699B79FF2B05D0BB699B790133DE
:10BD5000DAB2BB699A71BB699B79092B0AD8BB69B6
:10BD60009B799BB21A465201D21A92001344DB000F
:10BD70009BB201E042F21073FB81FB8903F2F313E3
:10BD80000A4A82FB03125211DB17D31A9AB2BB691B
:10BD90001A8197F91F3018462037BD4680BD00BF75
:10BDA000140000208C470020748E0208D34D6210CE
:10BDB000B0B58AB002AF78607B681B6ABB610321B3
:10BDC000B86900F05CF907F10C030322B9697868DF
:10BDD00000F026FD78617B69002B66D07B695B688B
:10BDE0003B61B8893B6903F1F0010223392200F07D
:10BDF00060F90346BB81B8893B69F0334FF4107298
:10BE0000194600F090F90346BB81B8893B6903F1FC
:10BE1000F0010423322200F04CF90346BB81BC89B7
:10BE20003B6903F1F005BB69DB69184605F027F8AB
:10BE300003461A462946204600F098F90346BB817E
:10BE4000B8893B6903F1F0010323372200F031F98F
:10BE50000346BB810023BB770EE0B8893B6903F141
:10BE6000F001BB7F294AD35C1A4600F045F903462E
:10BE7000BB81BB7F0133BB77BB7F022BEDD9B88978
:10BE80003B69F0337A69194600F07CFD204B186855
:10BE90007B68009343231F4A79690BF04DF80346F2
:10BEA000FB77786904F090F901E0FF23FB77BB6929
:10BEB0009B79FF2B05D0BB699B790133DAB2BB6953
:10BEC0009A71BB699B79092B0AD8BB699B799BB294
:10BED0001A465201D21A92001344DB009BB201E0D1
:10BEE00042F21073FB81FB8903F2F3130A4A82FBCF
:10BEF00003125211DB17D31A9AB2BB691A8197F950
:10BF00001F3018462037BD46B0BD00BF14000020CA
:10BF10008C470020748E0208D34D6210B0B58AB0F1
:10BF200002AF78607B681B6AFB61FB69002B00F045
:10BF30008480FB695B79002B00F08180FB699B6941
:10BF40003B61FB6900229A61FB690022DA61FB69AF
:10BF500000221A62FB6900225A62FB6900221A63FE
:10BF6000FB691A6BFB69DA62FB69DA6AFB699A6240
:10BF7000FB6900229A82FB699A8AFB695A82FB69F3
:10BF80005A8AFB691A82FB691A8AFB69DA81786826
:10BF900000F026FD0346002B3BD007F10E030722DD
:10BFA000F969786800F03CFCB861BB69002B30D0BF
:10BFB000BB695B687B61F8897B6903F1F00104234D
:10BFC000362200F076F80346FB81FC897B6903F199
:10BFD000F0053B69184604F052FF03461A4629460D
:10BFE000204600F0C3F80346FB81F8897B69F033F3
:10BFF000BA69194600F0C6FC134B186807F1100225
:10C000007B6800934323B9690AF096FFB86904F08E
:10C01000DBF80E4B0D4A0D49786805F00FFA002148
:10C02000F86900F02CF8FB691B79002B08D0FEF7AB
:10C030006DFFFB6900221A7102E000BF00E000BF43
:10C040002037BD46B0BD00BF8C470020708E02086F
:10C0500080B582B000AF78607868FFF75FFF00239B
:10C0600018460837BD4680BD80B582B000AF786005
:10C070007868FFF753FF00BF0837BD4680BD80B426
:10C0800083B000AF78600B46FB707B685B79FA7811
:10C090009A4208D07B68FA785A717B6800229A71BC
:10C0A0007B6800221A8100BF0C37BD465DF8047B17
:10C0B000704780B483B000AF396011461A4603461A
:10C0C000FB800B467B7113463B71FB885A1CFA8040
:10C0D0001A463B6813447A791A70FB885A1CFA8016
:10C0E0001A463B6813443A791A70FB8818460C3795
:10C0F000BD465DF8047B704780B483B000AF034653
:10C100003960FB8013467B71FB885A1CFA801A4603
:10C110003B6813447A791A70FB8818460C37BD4681
:10C120005DF8047B704780B483B000AF034639608C
:10C13000FB801346BB80BB881B0A9AB2FB88591C44
:10C14000F98019463B680B44D2B21A70FB885A1C1E
:10C15000FA801A463B681344BA88D2B21A70FB8838
:10C1600018460C37BD465DF8047B704780B485B037
:10C1700000AF0346B9607A60FB817B681A0EFB89C9
:10C18000591CF9811946BB680B44D2B21A707B68FE
:10C190001A0CFB89591CF9811946BB680B44D2B2B1
:10C1A0001A707B681A0AFB89591CF9811946BB6809
:10C1B0000B44D2B21A70FB895A1CFA811A46BB682A
:10C1C00013447A68D2B21A70FB8918461437BD46F8
:10C1D0005DF8047B704780B590B000AF786039603F
:10C1E0000023FB620023BB6208220021B14811F04A
:10C1F00091FC7B685B892B2B02D86FF0010339E23D
:10C200007B685B68BB61F023FB867B681B89BB8610
:10C210007B683B630CE03B6B5B89FA8ED31AFB8631
:10C220003B6B5B89BA8ED31ABB863B6B1B683B6347
:10C230003B6B002B04D03B6B5B89FA8E9A42EAD2AF
:10C240003B6B002B02D16FF0010313E2FB8E7B8767
:10C25000BB8E3B873B6B5B68FB63CBE17B8FFA6BF1
:10C2600013441B78FB75002387F826304FF0FF330B
:10C270003B627B8F0233FB83FA8B7B8F9A4202D225
:10C280006FF00103F6E17B8F01333A6B52899342E1
:10C2900007DA7B8F0133FA6B13441B7887F827305A
:10C2A0000BE03B6B1B68002B04D03B6B1B685B688F
:10C2B0001B7800E0002387F8273097F8273087F8AD
:10C2C0002630FB7D3B2B00F2DE8001A252F823F0EA
:10C2D000C1C30008D1C3000887C40008E5C3000833
:10C2E00087C4000887C4000887C4000887C4000802
:10C2F00087C4000887C4000887C4000887C40008F2
:10C3000087C4000887C4000887C4000887C40008E1
:10C3100087C4000887C4000887C4000887C40008D1
:10C3200087C4000887C4000887C4000887C40008C1
:10C3300087C4000887C4000887C4000887C40008B1
:10C3400087C4000887C4000887C4000887C40008A1
:10C3500087C4000887C4000887C4000887C4000891
:10C3600087C4000887C4000887C4000887C4000881
:10C3700087C4000887C4000887C4000887C4000871
:10C3800087C4000887C4000887C4000887C4000861
:10C3900087C4000887C4000887C4000803C40008D5
:10C3A00017C4000837C400084BC4000887C400083D
:10C3B00087C4000887C400085FC4000873C400086D
:10C3C000002387F8273097F8273087F826305EE07B
:10C3D00097F82730042B02D06FF005034AE10623BB
:10C3E0003B6254E0042387F8263097F8272097F81B
:10C3F00026309A4202D26FF005033BE107233B62ED
:10C4000045E097F82730042B02D06FF0050331E1A7
:10C4100003233B623BE097F82730012B02D06FF0FB
:10C42000050327E1FB8EF02B02D06FF0050321E11D
:10C4300000233B622BE097F82730012B02D06FF0EE
:10C44000050317E101233B6221E097F82730042B15
:10C4500002D06FF005030DE102233B6217E097F86D
:10C460002730042B02D06FF0050303E104233B6265
:10C470000DE097F82730042B02D06FF00503F9E0A8
:10C4800005233B6203E0002387F8263000BFFB7DD5
:10C49000002B03D17B8F01337B8788E07A8F97F85D
:10C4A000273013444FF6FD72934205DD6FF0010310
:10C4B000E0E000BF8447002097F827309AB27B8FD6
:10C4C00013449BB202337B8797F82630002B6ED043
:10C4D0000023BB60694A3B6A13441B78002B66D17A
:10C4E00097F82630042B28BF0423DBB2BB82FB8BDA
:10C4F000BA8A07F10801386B04F000F803461A46BF
:10C50000BB8A934202D06FF00103B3E097F8263064
:10C51000042B2CD997F8263003F00303DBB2002B51
:10C5200002D06FF00503A5E0544A3B6A1344012290
:10C530001A70BB68184604F0A2FC024650493B6AD8
:10C5400041F8232097F82630043B87F82630FB8BF0
:10C5500004337B827A8AFB8B9A4202D26FF001030A
:10C5600088E07B8AFB833B6A01333B62B2E797F842
:10C570002630042B06D1BB68184604F080FC034625
:10C58000BB600AE097F82630012B02D06FF005035C
:10C5900070E007F108031B78BB60384A3B6A13441C
:10C5A00001221A70BA6836493B6A41F823203B6B76
:10C5B0005B897A8F9A421DD33B6B5B897A8FD31A42
:10C5C0007B873B6B5B893A8FD31A3B877A8F3B8F94
:10C5D0009A420CD23B6B1B683B633B6B002B02D136
:10C5E0006FF0050346E03B6B5B68FB6302E06FF0B6
:10C5F00001033FE03B6B002B0AD07A8F3B8F9A42BE
:10C6000006D27B8FFA6B13441B78FF2B7FF426AE88
:10C610001A4B1B78002B18D0194B1B68FB60174B6B
:10C6200000221A70FB68012B02D10123FB620CE08F
:10C63000FB68022B02D10123BB6206E0FB68032BDF
:10C6400003D10123BB620123FB62FB6A002B06D0EE
:10C650000023FB626C23FB86EC23BB86D8E5BB6A18
:10C66000002B06D00023BB622C23FB866C23BB86E9
:10C67000CEE5002318464037BD4680BD84470020E4
:10C680006447002080B58AB000AFF860B9607A6076
:10C690003B60604B5B683B623B6A1B6AFB617B688B
:10C6A0005B68BB61FB69002B00F09D80FB691B7917
:10C6B000002B00F098807B685B892B2B40F29580E3
:10C6C000BB691B78022B40F09280002387F827304B
:10C6D00012E097F827303A6A134493F8262097F827
:10C6E0002730B9690B441B7F9A4240F0828097F84B
:10C6F0002730013387F827303B6A93F82C3097F8BE
:10C7000027209A4203D297F82730052BE1D9BB693D
:10C710005B68184604F0B3FB0246FB691B689A424B
:10C7200069D1F9697868FFF756FD0346002B64D19B
:10C73000394B5B78002B62D07B685B687B61374B41
:10C740005B68FB74FB7C052B2AD1FB695B79012BB1
:10C7500012D17969386AFEF77EFE3B6A93F82D3074
:10C7600003F00803002B03D0386AFEF703FC49E00E
:10C77000386AFFF71DF945E0FB695B79032B07D0A9
:10C78000FB695B79042B03D0FB695B79052B39D1FD
:10C790007969386AFEF75FFE386AFFF709F931E018
:10C7A000FB7C062B13D1FB695B79032B0BD0FB6958
:10C7B0005B79012B07D0FB695B79042B03D0FB6904
:10C7C0005B79052B03D1386AFEF7BAFB1AE0FB7CD4
:10C7D000022B16D1FB695B79062B12D17969386A75
:10C7E000FEF7FCFB0EE000BF0CE000BF0AE000BF5C
:10C7F00008E000BF06E000BF04E000BF02E000BFA9
:10C8000000E000BF786803F0DFFC00BF2837BD46BA
:10C8100080BD00BF308A002084470020644700208C
:10C8200080B588B000AFF860B9603B601346FB711B
:10C83000FB68002B01D100239EE0BB68002B01D1D7
:10C84000002399E04FF420724FF49A71362003F0E0
:10C8500023FAB861BB69002B01D100238CE0FB797E
:10C86000032B03D1BB685B79032B0DD1BB689B798C
:10C87000002B05D111F022FA03461A46404B1A60EC
:10C880003F4B1A68BB681A60BB695B687B614FF4F9
:10C890009A720021786911F03DF97B6901221A70C2
:10C8A0007B6901225A70FB6893F82C207B699A708F
:10C8B000BB681B68184604F0E2FA02467B695A60BE
:10C8C000FB79082B10D0FB79042B0DD0FB79072BBB
:10C8D0000AD0FB79032B0CD1BB685B79052B03D005
:10C8E000BB685B79042B04D1FB6804331A687B694D
:10C8F000DA600023FB830CE0FA8BFB8BF9680A44B7
:10C9000092F826107A6913440A461A77FB8B013392
:10C91000FB83FB8B052BEFD97B69002242F063027E
:10C9200083F8EC20002262F07D0283F8ED200022E3
:10C9300042F0530283F8EE20002242F0630283F8B3
:10C94000EF207B6903F1F001012335220020FFF77E
:10C95000B0FB03467B827B6903F1F001FA797B8AA5
:10C960001846FFF7C9FB03467B823B68002B02D0C9
:10C970003B687A8A1A80BB6918462037BD4680BD5D
:10C980009447002080B584B000AF0346B9607A6058
:10C99000FB81FB895A1CFA811A46BB681344FF22AB
:10C9A0001A7007E0FB895A1CFA811A46BB681344C7
:10C9B00000221A70FB89432B04D9FB8903F003037F
:10C9C000002B02D0FB89432BECD9FB89F0339BB2BF
:10C9D0001946786803F06FFA00BF1037BD4680BD76
:10C9E00080B485B000AF78607B68002B17D07B687F
:10C9F0001B6A002B13D07B681B6AFB60FB685B79AA
:10CA00000A2B07D0FB685B79052B03D0FB685B79A9
:10CA1000042B01D1012300E00023DBB200E000235E
:10CA200018461437BD465DF8047B704780B582B068
:10CA300000AF786015497A6813465B001344DB0049
:10CA40000B441B68002B13D010497A6813465B0017
:10CA50001344DB000B441B68184603F0B5FB0B497D
:10CA60007A6813465B001344DB000B4400221A6013
:10CA700006497A6813465B001344DB000B44143309
:10CA800000221A7000BF0837BD4680BD98470020BD
:10CA900080B582B000AF00237B6096E04F497A6892
:10CAA00013465B001344DB000B4414331B78FB700C
:10CAB000FB78002B00F0868048497A6813465B00BB
:10CAC0001344DB000B4412331B88013398B24349F3
:10CAD0007A6813465B001344DB000B4412330246B2
:10CAE0001A803E497A6813465B001344DB000B440E
:10CAF00012331B88B3F5967F15D238497A681346EE
:10CB00005B001344DB000B4414331B78012B0ED164
:10CB100032497A6813465B001344DB000B4412333E
:10CB20001B88042B03D97868FFF780FF4AE02B4964
:10CB30007A6813465B001344DB000B4414331B7804
:10CB4000032B0AD125497A6813465B001344DB00A6
:10CB50000B44143304221A7034E020497A681346D7
:10CB60005B001344DB000B4414331B78042B0AD105
:10CB70001A497A6813465B001344DB000B441433F4
:10CB800002221A701EE015497A6813465B001344AE
:10CB9000DB000B4414331B78012B13D10F497A6847
:10CBA00013465B001344DB000B44083318687A68B3
:10CBB00013465B001344DB00084A13440433194650
:10CBC00000F0C6FD7B6801337B607B68092B7FF733
:10CBD00065AF00BF00BF0837BD4680BD9847002045
:10CBE00080B58AB000AFF8600B467A60FB720A230A
:10CBF000FB840A23BB840A237B8400233B840A230F
:10CC0000FB830023BB8300237B8300233B83002320
:10CC10003B84A1E0B7F92020824913465B0013440E
:10CC2000DB000B4414331B78FB75B7F922300A2B59
:10CC300005D1FB7D002B02D13B8C7B8488E0FB7D02
:10CC4000002B00F08580FB68002B20D0FB68196862
:10CC5000B7F92020734813465B001344DB000344FC
:10CC600004331B68994212D17B68002B0CD0B7F9B2
:10CC700020206C4913465B001344DB000B4408334F
:10CC80001B687A689A4202D1B7F92030C5E0FB7D73
:10CC9000012B40D1B7F92020624913465B001344B1
:10CCA000DB000B441B68002B1AD0B7F920205D492C
:10CCB00013465B001344DB000B4412331B88BA8B12
:10CCC0009A4245D83B8CFB83B7F92020554913463F
:10CCD0005B001344DB000B4412331B88BB8337E03B
:10CCE000B7F920204F4913465B001344DB000B4487
:10CCF00012331B887A8B9A422AD83B8CFB84B7F973
:10CD00002020484913465B001344DB000B441233D8
:10CD10001B887B831CE0FB7D012B19D9B7F92020F0
:10CD2000404913465B001344DB000B4412331B885D
:10CD30003A8B9A420CD83B8CBB84B7F920203949F6
:10CD400013465B001344DB000B4412331B883B8308
:10CD50003B8C01339BB23B84B7F92030092B7FF722
:10CD600059AFFB7A03F00203002B08D1B7F9223048
:10CD70000A2B07D1FB7A03F00103002B02D14FF0FD
:10CD8000FF334AE0B7F92230092B02DC7B8C3B846D
:10CD90001CE0B7F92430092B02DCBB8C3B8410E08B
:10CDA000B7F92630092B02DCFB8C3B8409E0B7F98C
:10CDB0001E30092B02DCFB8B3B8402E04FF0FF337B
:10CDC0002BE0B7F920301846FFF730FEFB68002B48
:10CDD0000BD0B7F92020FB681968124813465B0096
:10CDE0001344DB00034404331960B7F920200D49D4
:10CDF00013465B001344DB000B44123300221A80FD
:10CE0000B7F92020074913465B001344DB000B44AD
:10CE100008337A681A60B7F9203018462837BD46BB
:10CE200080BD00BF9847002080B588B002AFF86091
:10CE3000B9607A60FB70BB68002B12D0BB681B68BE
:10CE4000002B0ED0BB681B68F968184601F0B8F8D3
:10CE50000346002B05D1BB681B6803F0F003E02BF1
:10CE600002D16FF00F036CE0FB78FA681946B868DE
:10CE7000FFF7B6FE0346FB82B7F91630002B02DA45
:10CE8000FB8A5BB25DE0B7F91620304913465B00C0
:10CE90001344DB000B44143302221A70B7F9162036
:10CEA0002A4913465B001344DB000B440833FA683D
:10CEB0001A60B7F9162013465B001344DB000833F1
:10CEC000224A1344043306227968184610F00CFDF8
:10CED000B7F916201D4913465B001344DB000B44D1
:10CEE000123300221A80B7F91620184913465B0046
:10CEF0001344DB000B441B68002B21D0B7F916202C
:10CF0000124913465B001344DB000B441B683B6172
:10CF1000B7F916200D4913465B001344DB000B44A0
:10CF200000221A60FB6803F126024FF400630093AD
:10CF30007B683969F8680AF02BFB386903F044F91B
:10CF4000002318461837BD4680BD00BF9847002013
:10CF500080B584B000AF78600023FB601EE0134909
:10CF6000FA6813465B001344DB000B4414331B7850
:10CF7000FB72FB7A002B0ED00C49FA6813465B005B
:10CF80001344DB000B4408331B687A689A4202D1D1
:10CF9000F868FFF74BFDFB680133FB60FB68092B6A
:10CFA000DDDD00BF00BF1037BD4680BD98470020C3
:10CFB00080B586B000AFF860B9607A603B60FA680F
:10CFC0000221B868FFF70CFE0346FB82B7F9163062
:10CFD000002B25DBB7F91620144913465B001344D8
:10CFE000DB000B4414331B78012B19D9B7F9162039
:10CFF00013465B001344DB0008330C4A13441A1D2C
:10D000007B681A60B7F9162013465B001344DB00F7
:10D01000064A13441A1D3B681A60B7F9163001E03E
:10D020004FF0FF3318461837BD4680BD98470020A3
:10D0300080B485B000AFF860B9607A603B60FB688F
:10D04000092B2CD81949FA6813465B001344DB00FE
:10D050000B4414331B78012B21D9FA6813465B006B
:10D060001344DB00114A13441A1DBB681A600F49B0
:10D07000FA6813465B001344DB000B4408331A685C
:10D080007B681A60FA6813465B001344DB000833C0
:10D09000064A13441A1D3B681A60012300E000236E
:10D0A00018461437BD465DF8047B7047984700204A
:10D0B000B0B58AB004AF786039603B68002B75D09A
:10D0C0007B685B683B613B691B889BB2B3F5807FE3
:10D0D0000CD13B691B79062B08D13B695B79042B8A
:10D0E00004D13B695B889BB2082B03D0786803F0BE
:10D0F0006BF85CE03B690E331B68FB603B691833DF
:10D100001B68BB603B6804331B68002B02D1002303
:10D11000FB7509E0BA683B6804331B689A420CBF90
:10D1200001230023DBB2FB753B6903F10802FB7DA1
:10D13000002B01D0012300E0022307F10C01386825
:10D14000FFF772FE3B69DB889BB2B3F5807F03D0AB
:10D15000B3F5007F1ED025E0FB7D002B21D03B687E
:10D1600003F126003B6903F108043B6803F126053F
:10D170003B6804333A6908320221039107F10C013C
:10D180000291019200932B4622460146386800F036
:10D190005DFA06E007F10C0319463868FEF7D1FA8C
:10D1A00000E000BF786803F00FF800E000BF183718
:10D1B000BD46B0BD80B586B002AFF860B960134619
:10D1C000FB71FA793B4913465B001344DB000B44C7
:10D1D00014331B78022B53D1FA79364913465B007E
:10D1E0001344DB000B4412331B88B3F58E7F19D92F
:10D1F000FA7913465B001344DB002E4A13440433D0
:10D200001946F86800F0A4FA0346002B38D1FA79E1
:10D21000284913465B001344DB000B4414330322FC
:10D220001A702DE0FA79234913465B001344DB00A2
:10D230000B4412331B88B3F5877F21D3FA79134649
:10D240005B001344DB001B4A1344191DFA79134693
:10D250005B001344DB000833164A134404331A46B8
:10D26000F86800F054FA0346002B09D1FA79114905
:10D2700013465B001344DB000B44143303221A7083
:10D28000FB6803F12601FA7913465B001344DB00C7
:10D290000833084A134404334FF4006200920A46EC
:10D2A000B968F8680AF074F9034618461037BD46A5
:10D2B00080BD00BF9847002080B58AB002AFF860FB
:10D2C000B9607A607B68BB617B681B68F968184647
:10D2D00000F076FE0346002B02D0614BFB61AFE00D
:10D2E0007B681B6803F0F003E02B18D101233B742B
:10D2F00000237B745E23BB747B6801331B7803F0CF
:10D300007F03DBB2FB747B6802331B783B757B6861
:10D3100003331B787B7507F11003FB6190E07B689A
:10D320001A68FB6804331B685A40FB6808331B68A3
:10D330001340002B12D07B681B689BB24FF6A9628A
:10D3400093420BD0FB680C331B68002B03D0FB68A7
:10D350000C33BB6102E06FF003037DE0414B1B78AF
:10D360001946414A0B465B000B44DB00134414335F
:10D370001B78012B25D93B4B1B7819463A4A0B46A3
:10D380005B000B44DB00134408331B68FA689A42C5
:10D3900017D1BB691A68334B1B78184632490346CC
:10D3A0005B000344DB000B4404331B689A4208D142
:10D3B0002C4B1B781A46B968F868FFF7FBFE03464A
:10D3C0004AE00023FB7531E0FA7D274913465B00F4
:10D3D0001344DB000B4414331B78012B23D9FA7D53
:10D3E000214913465B001344DB000B4408331B68E0
:10D3F000FA689A4217D1BB691968FA7D1A48134630
:10D400005B001344DB00034404331B6899420AD1D8
:10D41000144AFB7D1370FB7D1A46B968F868FFF764
:10D42000C9FE034618E0FB7D0133FB75FB7D092B2C
:10D43000CAD9BA68B969F86800F018F803460BE071
:10D44000FB6803F126024FF400630093FB69B9689F
:10D45000F8680AF09DF8034618462037BD4680BD9F
:10D4600060900208884800209847002080B58CB062
:10D4700002AFF860B9607A60FB6826337B61FF23F6
:10D4800087F8273000233B62BB681B68F9681846A1
:10D4900000F096FD0346002B0CD1BB681B6803F01F
:10D4A000F003E02B06D0BB68002B03D0BB681B68E1
:10D4B000002B02D16FF00F03BFE0FA680121B868BA
:10D4C000FFF78EFB03467B82B7F91230002B02DA9E
:10D4D0007B8A5BB2B1E07B8A7B747A7C59491346C4
:10D4E0005B001344DB000B4414331B78002B15D175
:10D4F00001233B627A7C534913465B001344DB00F3
:10D500000B44143301221A707A7C4E4913465B0097
:10D510001344DB000B440833FA681A603B6A002BA3
:10D5200002D17B68002B0CD1B968F86800F010F9C3
:10D53000034687F827307B68002B02D197F9273004
:10D540007BE07A7C3F4913465B001344DB000B44CD
:10D5500014331B78012B17D93B4A7B7C13707A7CE0
:10D5600013465B001344DB000833364A134404338C
:10D570004FF4006200927A697968F8680AF008F856
:10D58000034687F8273056E07A7C2E4913465B0025
:10D590001344DB000B4414331B78012B4BD10023C5
:10D5A000BB617B68FB610BE0FB691B7B03F0400305
:10D5B000002B02D00123BB6105E0FB691B68FB6106
:10D5C000FB69002BF0D1BB69002B07D07A684FF4C0
:10D5D00020710E2003F03EF9F86104E07B68FB61E6
:10D5E000F86902F071FEFB69002B21D07A7C1549A5
:10D5F00013465B001344DB000B441B68002B0AD06E
:10D600007A7C104913465B001344DB000B441B6813
:10D61000184602F0D9FD7A7C0A4913465B00134490
:10D62000DB000B44FA691A60002387F8273002E018
:10D63000FF2387F8273097F9273018462837BD464B
:10D6400080BD00BF984700208848002080B58AB080
:10D6500002AFF860B9607A603B600023FB774FF45B
:10D6600020721C210E2002F017FBB861BB69002B51
:10D6700002D14FF0FF3346E0BB695B687B61BB8E34
:10D68000184603F0E7FB03461A467B69DA807B699C
:10D69000083306223968184610F026F97B691233E0
:10D6A0000622F96A184610F01FF97B690E33BA6A30
:10D6B00012681A607B6918333A6B12681A607B69CA
:10D6C00000221A70002242F001025A707B69002287
:10D6D00042F008029A700022DA707B6906221A7101
:10D6E0007B6904225A7140F6060300937B68BA688E
:10D6F000B969F86809F04CFFB86902F065FD0023CC
:10D70000BB6197F91F3018462037BD4680BD80B5F4
:10D7100088B004AFF860B9607A60FB6803F1260155
:10D72000FB6803F12600FB68043301220392BA6808
:10D730000292064A0192009303467A68F868FFF75E
:10D7400085FF034618461037BD4680BD6890020825
:10D7500080B582B000AF78603960054A3968786872
:10D76000FFF7D5FF034618460837BD4680BD00BF0A
:10D770006090020880B58EB004AF78603960744B59
:10D780009B687B627B6A1B7803F00F03DBB29B0014
:10D79000DBB27B847B8C132B40F2C0807B685B897F
:10D7A000032B40F2BD807B685B681B7887F82130D3
:10D7B00097F82130002B00F0AA80082B40F0AA80B7
:10D7C000644BFB61624B5B6903F0F003E02B00F0FC
:10D7D000AE805F4B5B695E4A12681146184600F0E6
:10D7E000EFFB0346002B40F0A4807B681B89072BCE
:10D7F00040F298807B8C0E331946786802F014FC56
:10D800000346002B45D07B681A897B8C13447B83AD
:10D810007B681B897A8B9A42C0F08D807B8B4FF49A
:10D82000207219460E2002F037FA78617B69002BCE
:10D8300000F083807B695B891A467B8C08339A42AF
:10D8400003D2786902F0C0FC7AE07B695B687A8C6D
:10D85000796A184610F048F87B8C1946786902F00E
:10D8600001FC0346002B03D0786902F0ADFC67E0B1
:10D870007968786902F0B6FD0346002B03D0786919
:10D8800002F0A2FC5CE0786802F09EFC7B697B60A1
:10D8900008E07B8C0E331946786802F0E3FB034600
:10D8A000002B4CD17B685B683B617B8C19467868A8
:10D8B00002F0BAFB0346002B2BD17B685B68FB6050
:10D8C000FB691A68FB68DA60214B1A69FB681A6108
:10D8D0003B6900221A703B6900229A700022DA70BC
:10D8E000FB68FF221A72FB6800229A720022DA7229
:10D8F0003B6802930123019300230093FF2300223E
:10D90000F969786800F07CFA0346FB7201E000BF19
:10D9100000E000BF786802F057FC15E000BF02E0AD
:10D9200000BF00E000BF786802F04EFC0CE000BFD2
:10D9300006E000BF04E000BF02E000BF00E000BF5F
:10D94000786802F041FC00BF2837BD4680BD00BFAB
:10D95000308A0020448A002080B582B000AF786011
:10D960000B46FB70FB781A460321786800F014F828
:10D9700000BF0837BD4680BD80B582B000AF78607B
:10D980000B46FB70FB781A460B21786800F004F810
:10D9900000BF0837BD4680BD80B58CB004AF78604D
:10D9A0000B46FB701346BB704FF4207224212220DB
:10D9B00002F072F9F861FB69002B41D07B685B686B
:10D9C000BB61FB695B687B617B69FA781A707B6974
:10D9D000BA785A707B6900221A7100225A717B69E9
:10D9E00000229A710022DA71FB695B6803F108007A
:10D9F0007B685B681C2219460FF076FFBB69DB6809
:10DA0000FB6007F10C03184600F01EF838613B6913
:10DA1000002B11D07B6900229A700022DA7007F186
:10DA20000C023B6902930123019300230093FF231F
:10DA30000021F86900F0E4F9F86902F0C5FB00E0A4
:10DA400000BF2037BD4680BD80B485B000AF786090
:10DA5000334B1B68FB6036E0FB6893F82D3003F016
:10DA60000103DBB2002B2BD0FB6893F82D309B0811
:10DA700003F00103DBB2002B22D0FB6804331B68E8
:10DA8000002B1DD07B681A68FB6804331B685A4062
:10DA9000FB6808331B681340002B01D1FB6838E09A
:10DAA000FB6893F82D3003F00203002B08D17B684C
:10DAB0001A68FB680C331B689A4201D1FB6828E0A6
:10DAC000FB681B68FB60FB68002BC5D1154B1B680E
:10DAD000002B1AD0134B1B6893F82D3003F0010371
