:020000040800F2
:1080000000000820C1820008BD820008BD8200086F
:10801000BD820008BD820008BD820008000000008B
:10802000000000000000000000000000D5890108E9
:10803000BD820008000000006D8A01087D8A0108E9
:10804000BD820008BD820008BD820008BD82000814
:10805000BD820008BD820008BD820008BD82000804
:10806000BD820008BD820008BD820008BD820008F4
:10807000BD820008BD820008BD820008BD820008E4
:10808000BD820008BD820008BD820008BD820008D4
:10809000BD820008BD820008BD820008BD820008C4
:1080A000BD820008BD820008BD820008BD820008B4
:1080B000BD820008BD820008BD820008BD820008A4
:1080C000BD820008BD820008BD820008BD82000894
:1080D000BD820008BD820008BD820008BD82000884
:1080E000BD820008BD820008BD820008BD82000874
:1080F000BD820008BD820008BD820008BD82000864
:10810000BD820008BD820008BD820008BD82000853
:10811000BD820008BD820008BD820008BD82000843
:10812000BD820008BD820008BD820008BD82000833
:10813000BD82000815990008BD820008BD820008B4
:10814000BD820008BD820008BD820008BD82000813
:10815000BD820008BD820008BD820008BD82000803
:10816000BD820008BD820008BD820008BD820008F3
:10817000BD820008BD820008BD820008000000002A
:10818000BD820008BD820008BD820008BD820008D3
:10819000BD820008BD820008BD820008BD820008C3
:1081A0000000000000000000BD820008BD82000841
:1081B000BD820008BD820008BD820008BD820008A3
:1081C000BD820008BD82000800000000BD820008DA
:1081D000BD820008BD820008BD820008BD82000883
:1081E000BD820008BD820008BD820008BD82000873
:1081F00000000000BD820008000000000000000038
:1082000010B5054C237833B9044B13B10448AFF3D0
:1082100000800123237010BD900A002000000000A0
:108220003848020808B5034B1BB103490348AFF3B4
:10823000008008BD00000000940A002038480208B1
:10824000A3F5803A704700BF174B002B08BF134BB4
:108250009D46FFF7F5FF00218B460F461348144A51
:10826000121A11F037F80E4B002B00D098470D4B27
:10827000002B00D098470020002104000D000D487D
:10828000002802D00C4815F007F810F0B7FE2000C7
:10829000290000F037F910F0A1FE00BF000008002F
:1082A000000000004594000800000820900A00200B
:1082B0002C0E012099D2010889E50108FEE700BFD4
:1082C000214B83F30888BFF36F8F00F07FF81F4CBA
:1082D0001F4BA34215D29C46DCF808306BB100233B
:1082E000DCE900120439043A51F8040F013342F872
:1082F000040FDCF808008342F6D30CF10C0CA44503
:10830000EAD3144A144B9A421CD203F1FF3C02F107
:10831000100302F108000024ACEB020C2CF0070C57
:108320009C4450F8043C53B150F8082C0023043A04
:10833000013342F8044F50F8041C8B42F8D3083044
:108340006045EED1FFF780FF000008205C4802087E
:10835000444802085C4802086C480208164A9368C0
:1083600003F00C03042B0CD0082B0CD0134B124A37
:10837000134892681349C2F30312825CD3400B6026
:108380007047114BF3E7536851685B0253680A4A20
:1083900001F03F0148BF0C48C3F3881358BF07489A
:1083A0005268B0FBF1F1C2F3014201FB03F3013269
:1083B0005200B3FBF2F3DAE7003802400024F40085
:1083C000002E020804000020002D3101064B074A50
:1083D00007499A60D3F88820064842F47002C3F82F
:1083E00088200860FFF7BABF00ED00E000800008B9
:1083F0000400002000C2EB0B0CF042B9364C052102
:108400000025206800B587B00EF04EFB00F00AF999
:10841000324B258101211A6B314842F48052606051
:10842000201DC4E906551A631B6B616203F4805377
:108430000593059B0BF010FC2A4B4FF4405240F281
:1084400077109A610EF0D6FB2946284605F086F88B
:108450002346254A254843F83C2F226304F138027D
:10846000029000956FF07F4521492248A162616327
:1084700004F13401019004F14000E562A56306F0C7
:1084800099FA04F1400006F03DFB94F86D3004F1D8
:1084900040005B071CD506F03BFB01F0F3FA1648E1
:1084A00001F014FB154C01F095FE4FF47A70144D59
:1084B00000260EF09FFB01F08BFB28B123782846A5
:1084C00013B101F003FB267001200EF093FBF2E7DD
:1084D00006F038FBE1E700BFAC0A0020003802409C
:1084E0000030024000040240C0A8140101D400087A
:1084F000C0A814484D990008182E02080800002052
:10850000282E020810B58AB000F0A8FA01F060FB2E
:1085100000283FD1204BD3F800240092009AB2F1FA
:10852000005F28D300991D4A914224D8D3F804242F
:108530001B4CC4E91D22D3F8001481F308881949A3
:108540008B60904710F0E4F82422002101A810F07D
:10855000C1FE4FF4805301AA0021134806930FF087
:1085600051FC0023012111481A460EF063FA2060E5
:1085700010F02EF9FEE701F01DFBBFF34F8F094904
:108580000B4BCA6802F4E0621343CB60BFF34F8F1A
:1085900000BFFDE7024CD5E70000040800000820FA
:1085A000AC0A002000ED00E0FD830008F98300081C
:1085B0000400FA0510B50C4600F040FB50B9638882
:1085C000C3F30B03012B06D0032B03D194F90C301A
:1085D000002B01DB012010BDE4782409204600F0C7
:1085E0009FFC054B04EB8401204603EB810100F066
:1085F000ABFC012010BD00BF542E0208012804D09E
:10860000022805D0032806D07047002000F0F8B8F3
:10861000024800F0F5B8024800F0F2B8CC2E02088B
:10862000542E020810B5254C0020214600F08CFC89
:10863000002240F2FF731146104600F053FB04F194
:108640001401012000F080FC002240F2FF730120A1
:10865000114600F047FB04F12801022000F074FCF1
:10866000002240F2FF730220114600F03BFB04F1B0
:108670003C01032000F068FC002240F2FF7303205D
:10868000114600F02FFB04F15001042000F05CFCC7
:10869000002240F2FF730420114600F023FB04F196
:1086A0006401052000F050FC002240F2FF73052019
:1086B0001146BDE8104000F015BB00BF542E020863
:1086C000BFF34F8F0549064BCA6802F4E0621343BB
:1086D000CB60BFF34F8F00BFFDE700BF00ED00E0B0
:1086E0000400FA05704700BF074A4FF4C0214FF459
:1086F000FA63916100BF013BFCD1BFF35F8F024B76
:108700004FF400029A61704700240240124A80210F
:108710004FF4FA63916100BF013BFCD10E4A062180
:108720004FF47A73916100BF013BFCD1BFF35F8FBF
:108730000C224FF0C8404FF080714FF4C8730161B4
:1087400000BF013BFCD14FF4C873816000BF013B07
:10875000FCD1013AF1D170470024024008B5054A26
:108760004FF4800141F28833916100BF013BFCD19D
:10877000FFF7A6FF00180240014698B10A4A0620FA
:10878000D36CC3F30B030B605063936843F08043D7
:10879000936013689B07FCD5D36C0020C3F30B03D5
:1087A0000B6070470120704700210140024640B134
:1087B000054B00201B696FEA131303F00F031360CE
:1087C00070470120704700BF0028024028B10268AE
:1087D0004FF0C84300209A6570470120704700BFE2
:1087E000024640B1054B00201B696FEA133303F0CA
:1087F0000F03137070470120704700BF0024024030
:1088000008B50D4901220D4B4FF4800504460C4874
:108810008D610C491A60202211F020F97822002184
:10882000094810F057FD24B178222146064810F07F
:108830003BFCFFF745FF00BF0018024000FF01208E
:1088400004FF0120442F020824FF0120082800F221
:10885000A780DFE800F00E050505050505251F00CA
:108860000138C0B2032900F29D80DFE801F0464ED6
:10887000565E10B44C4A4FF400744C4B4FF4004019
:1088800002299461986120D003290FD0012917D0C3
:10889000002012E003291DD8DFE801F071784F595C
:1088A000032917D8DFE801F05A6118224FF000744D
:1088B0004FF000410020946199615DF8044B7047CE
:1088C0004FF0007300209361F7E74FF00042002063
:1088D0009A61F2E7002070474FF0C8434FF400114F
:1088E0004FF48012002019619A6070474FF0C8431E
:1088F0004FF4401200201A617047C3022C4A4FF413
:10890000206100201A4411607047C302284A4FF4C6
:10891000106100201A4411607047C302244A4FF4CA
:10892000C06100201A4411607047C302204A4FF40E
:10893000A06100201A44116070474FF0C8434FF403
:1089400000014FF48002002019619A6070474FF0D7
:10895000C8434FF4400200201A6170474FF0C843EB
:108960004FF4401200209A6070474FF0C8434FF414
:1089700080114FF40012002019619A6070474FF087
:10898000C8434FF4400200209A6070474FF0C8433C
:108990004FF480014FF40002002019619A60704783
:1089A000022070470120704700240240000402406A
:1089B000000800644FF0C843254AD3F8201803F597
:1089C000805C03F5005001F00F01515C090741F094
:1089D000404110B4C3F8201803F54053DCF82010D0
:1089E0001C4C01F00F01515C090741F04041CCF8EB
:1089F0002010DCF8201801F00F01515C090741F04C
:108A00004041CCF82018016A01F00F01515C0907C0
:108A100041F040410162D0F8201801F00F01515C93
:108A2000090741F04041C0F820184FF48030196A1E
:108A300001F00F01525C120742F040421A624FF0FF
:108A40008072054BA0615DF8044B9A61704700BFCE
:108A5000582F0208002802400020024008B500F00C
:108A60003DFB00F0DFFC002008BD00BF642303FBDA
:108A700000F020B1002300BF01339842FBD17047C2
:108A800009B305281FD8C00200F1C843D3F808383D
:108A9000DB072CD54B88C3F30B02012A10B414D08A
:108AA000B3F5805F25D041F2020293421DD1183008
:108AB0005E4B5F4C0431C218C4500B680020136039
:108AC0005DF8044B704704207047CB8ADA0720D446
:108AD000DC0640F193800B7D564A1B0932F81320C7
:108AE000930842F08052013B15E00320E8E70220A2
:108AF0007047CB89DA077DD4DB0640F18A800B7B97
:108B00004C4A1B0932F81320930842F08052013B73
:108B100072E00423484A0C311830444C013B0251A6
:108B20000219132B00F280800FF2040C5CF823F082
:108B3000BB8A0008ED8B0008E78B0008E18B00087A
:108B4000DB8B0008D58B0008CF8B0008C98B000891
:108B5000C38B0008BD8B0008B78B0008B18B0008E1
:108B6000AB8B0008A58B00089F8B0008998B000831
:108B7000938B00088D8B0008878B0008818B000881
:108B800051F8043B035151F8043B035151F8043BA5
:108B9000035151F8043B035151F8043B035151F880
:108BA000043B035151F8043B035151F8043B03517A
:108BB00051F8043B035151F8043B035151F8043B75
:108BC000035151F8043B035151F8043B035151F850
:108BD000043B035151F8043B035151F8043B03514A
:108BE00051F8043B035151F8043B035151F8043B45
:108BF000035162E70423104A04318DE70A7D0D4BCF
:108C0000120903EB42031A8C930842F08052013B95
:108C100081E70A7B074B120903EB42031A8C930886
:108C200042F08052013BE7E7002049E7000800647A
:108C300008000210682F020814000010002947D015
:108C40004FF0C843DA69BFF34F8F9B69BFF34F8F73
:108C5000D8071FD51F4B10B41A78EAB91E4AD16441
:108C6000BFF35F8F116C3F24072041F001011164B5
:108C70001821D460C2F88400184C516701211848AB
:108C8000946710671970136CD907FCD400205DF845
:108C9000044B7047012070470F4AD167BFF35F8FC5
:108CA000116F4FF47C14072041F001011167182166
:108CB00094605065094C5164002109489464106423
:108CC0001970136FDB07FCD400205DF8044B70476C
:108CD00004207047280B00200064024080000064DC
:108CE0008056A000052868D89A4266D8B3F5006F70
:108CF00063D22DE9F043364E4FEA801E012700E093
:108D00000A460EEB521402F01F0C12F0070F02F18C
:108D1000010106EB840407FA0CFCB146F0464ED084
:108D200065688B424CEA05056560E9D208329342DA
:108D300027D3FF2708EB511601F01F040A4608311C
:108D400009EB860607FA04F40F327568934244EA89
:108D500005047460EED2994213D8DFF874904FEA9C
:108D60008018012608EB511401F01F02013109EBB4
:108D7000840406FA02F28B42656842EA05026260E8
:108D8000F0D20202134BC10203F1FC0C101F01F1DF
:108D9000C84194440344002242F0060453F8040FEF
:108DA000C1F81048BFF34F8F9C4502F18072C1F8A3
:108DB0001408F1D10020BDE8F08304207047D11DD4
:108DC0008B421146C7D3DFF808904FEA8018B0E70E
:108DD000280B00202C0B002005286CD89A426AD85A
:108DE000B3F5006F67D22DE9F0438146374F860116
:108DF0004FF0010800E00A4606EB521402F01F0C87
:108E000012F0070F02F1010107EB840408FA0CFCD1
:108E10003D46B64651D060688B4220EA0C0CC4F83F
:108E200004C0E8D20832934227D34FF0FF0C0EEB78
:108E3000511401F01F060A46083105EB84040CFAB0
:108E400006F70F326668934226EA07066660EED29E
:108E5000994212D81D4D4FEA891E01270EEB51127F
:108E600001F01F04013105EB820207FA04F68B4280
:108E7000546824EA06045460F0D24FEA0922144BE5
:108E80004FEAC921101F03F1FC0C01F1C8419444C1
:108E90000344002242F0060453F8040FC1F81048BE
:108EA000BFF34F8F9C4502F18072C1F81408F1D1D5
:108EB0000020BDE8F08304207047D11D8B4211468D
:108EC000C6D3024D4FEA891EAFE700BF280B002032
:108ED0002C0B002005281FD8104B0202C00203F102
:108EE000FC0C111F00F1C840944400220B4430B523
:108EF00000F6140E1546144642F0060143F8045FCE
:108F0000C0F81018BFF34F8F634502F18072CEF89E
:108F10000040F1D1002030BD042070472C0B002010
:108F200005280ED80203C00242F0010200F1C84336
:108F3000C3F81028BFF34F8F00221046C3F814283F
:108F400070470420704700BF052872D8B1FA81F33A
:108F50005B0900296DD04FEAC02C020342F00100EA
:108F60000CF1C84210B5C2F81008BFF34F8F402073
:108F7000C2F81438C2F800084FF4FA7000BF013884
:108F8000FCD1D2F808389B07F6D58023494CC2F8AB
:108F900000380B68A34212D0474CA3427ED0474C06
:108FA000A3427FD0464CA34245D0464CA3427DD03D
:108FB000454CA3423BD13123C2F8003802E03223B2
:108FC000C2F800384B7A0CF1C84E8A7A013B120481
:108FD00042EA03628B885C1ECB8842F00402013BAC
:108FE0001B0243EA04430C7ACEF81028013C2343C9
:108FF000BFF34F8FCEF814388A7C0B7CCC89013AB2
:10900000013B013C12061B0242F0050243EA044305
:109010004C7CCEF81028621E1343BFF34F8FCEF85E
:1090200014380B7B012B29D0022B08D0F3B105207B
:1090300010BD042070472923C2F80038C2E7234B33
:10904000CEF81038BFF34F8F0023CEF81438CB7A08
:109050000CF1C84C002B14BF03230223CCF81038AA
:10906000BFF34F8F0023CCF8143810BD184ACEF848
:109070001028BFF34F8FCEF81438E8E7154BCEF821
:109080001038BFF34F8F0023134ACEF81438CEF8B0
:109090001028BFF34F8FCEF81438D8E72123C2F839
:1090A00000388FE72523C2F800388BE72D23C2F85C
:1090B000003887E700B4C40400879303005A6202B3
:1090C00080C3C90100366E01002D31010B00140070
:1090D0000C0014000B0004000C001000094B0020D1
:1090E00009494FF47C1210B4087007249A601820C4
:1090F0000649074A5C6558645DF8044B99641A6434
:10910000704700BF00640240280B0020800000640C
:109110008056A0000F4B9A6912F0300F05D0302115
:10912000D9619A6912F0300FFAD10B4B094A1B78BA
:1091300043F000735360BFF34F8F5368002043F434
:1091400000535360936913F0100F18BF01209B0662
:10915000F8D57047005400402C11002010B5FFF7DF
:10916000D9FF0028FBD1274B9A6912F0220F05D0B6
:109170002221D9619A6912F0220FFAD1224C214A98
:10918000D4E90131DB0B023103F00E0343F0A003FD
:1091900043EA014123705160BFF34F8F536843F49A
:1091A0000053536093699907FCD560681549C0F373
:1091B000072393628B699A07FCD5C0B2A3688862C3
:1091C0006BB112490F4A0B44083103F1080093694F
:1091D0009B07FCD511F8013F81429362F7D1094A00
:1091E00093695906FCD500235360BFF34F8F4FF4AA
:1091F0008043044953608B699B06FCD5002323738D
:1092000010BD00BF005400402C1100203011002080
:10921000002A00F09A80B0F5002F2DE9F0470646AD
:1092200080F0828083189146B3F5002F7CD80C46DD
:10923000002979D0464D2B7B002B7FD1A046662795
:10924000444CC1446B68B34203D8F31AAA689342F2
:1092500060D32B7B26F07F0A002B68D18023C5E9E1
:1092600001A3FFF757FF0028FBD1A36913F0660F96
:1092700004D0E761A36913F0660FFAD14FEADA333D
:1092800003F00E0343F0A00343F400322B7062603E
:10929000BFF34F8F636843F400536360A36998077B
:1092A000FCD56A68C2F30723A362A3699907FCD5BA
:1092B000D3B2A362A3695B06FCD5D30B264A03F0A5
:1092C0000E0343F0A0031A432B706260BFF34F8F6D
:1092D0006268AB6842F40052012B62600CD91F4AED
:1092E0001344083203F10801A3695807FCD5636AE7
:1092F00002F8013F8A42F7D100236360BFF34F8F2A
:109300004FF480436360A3699B06FCD56B68002221
:10931000F31A2A732B4401365B7B08F8013BC845DE
:1093200090D10020BDE8F0870220BDE8F087AB684F
:1093300013B1FFF713FF91E72B738FE7AB6813B1FE
:10934000FFF70CFF7AE72B7378E70220704700BF26
:109350002C11002000540040000480003011002037
:10936000002A40D0B0F5002F2DE9F041044632D25A
:1093700000EB0208B8F5002F2DD80E4659B31C4D4E
:1093800001270DE0AB68BBB1FFF7E8FE2B7B9BB17B
:10939000D5E901231A44A24227D00134A04517D0B1
:1093A0006A6844F07F0342F07F018B4201D1A24200
:1093B00014D92B7B002BE5D1012200236C602F7385
:1093C00001342B44AA60A04516F8012B5A73E7D14B
:1093D0000020BDE8F0810220BDE8F081AB681A44AE
:1093E000A242D3D2E5E7022070475A1CE8E700BF4B
:1093F0002C11002010B50A4C237B43B1A36833B174
:10940000FFF7ACFEFFF786FE18B9A06010BD002381
:109410002373FFF77FFE0028FBD1A06010BD00BFC3
:109420002C110020044B00224FF0FF30A0211A73B2
:109430001970C3E901026DE62C110020FEE700BFA0
:10944000FEE700BF0FF064B900EB80000DF0D2BB67
:1094500008B50FF05DFA024BA3FB0030800808BD91
:10946000CDCCCCCC08B50FF053FA024BA3FB0030A7
:10947000800808BDCDCCCCCC704700BFF0B58BB018
:1094800016460D4604462022002102A81F460FF072
:1094900021FF109B01AA31462846069701940793A5
:1094A0000EF0B0FC0BB0F0BD10B5044604480DF052
:1094B00073F8B0FA80F320605B09584210BD00BF1A
:1094C000AC3002084FF0FF3100680DF099B800BFD2
:1094D00000680DF0B3B800BF0B460022042110B5A0
:1094E000044618460BF0D2FEB0FA80F320605B0908
:1094F000584210BD10B582B00C464FF0FF33002229
:1095000001A9006801940BF0F9FE02B010BD00BF84
:1095100010B5002382B00C46006801A91A460194D8
:109520000BF0ECFE003818BF0120404202B010BD25
:1095300010B5002382B00C46006801A91A460194B8
:109540000BF0DCFE003818BF0120404202B010BD15
:1095500010B50C4682B06AB102EB820301A9002269
:1095600000680BF019FF02300CD0019B0020236033
:1095700002B010BD4FF0FF3301A900680BF00CFFE3
:109580000230F2D14FF0FF3002B010BD10B5002212
:10959000044601200CF030FD18B103460020236082
:1095A00010BD4FF0FF3010BD00680BF0A9BF00BF29
:1095B00000680CF099BD00BF00680CF0EDBD00BF65
:1095C00010B5002382B00C46006801A91A460BF0C2
:1095D000E3FE18B9019B236002B010BD4FF0FF30CD
:1095E00002B010BD08B549B101EB810100680CF073
:1095F0003BFD003818BF0120404208BD4FF0FF314D
:1096000000680CF031FD003818BF0120404208BD51
:1096100000680DF047B800BF2C4B2DE9F04FDC6A15
:1096200083B08B46A36800294DD0002640F2F45940
:10963000B0462268002A1BDBBBF80A2095194D456D
:109640003CD9002702E04D45A36821D9A9EB060AC1
:10965000DBF8041098190026394452460FF024FD17
:10966000E468A5F2F45557442368D044B342EADADB
:109670006FF00700154B1B6803F580535A6992067B
:1096800003D52021002259615A6003B0BDE8F08F54
:1096900018462E46DBF804102A460193A8443944A4
:1096A0000FF002FDDBF800B0019BBBF1000FC0D151
:1096B0004146064808F06CFF0020DBE798190027B8
:1096C0002E461546E6E78846F2E700BFBC110020AB
:1096D0002DE9F04FDFF8F49083B001904FF0FF31A7
:1096E000D9F848000CF0C0FC0028F7D1374809F041
:1096F0001FF804460028F1D1B9F83C1051BB4FF0D7
:10970000000AD9F83800D9F8303040B100211A6881
:10971000013142F0004281421A60DB68F7D1D9F88A
:109720000030002203F58053C9F838205A69120628
:1097300003D580225A6100229A60BAF1000FCDD081
:10974000019950460B6998470028CFD0504604F045
:109750008FFCCBE74FF4C172D9F8407004F07AFA6D
:1097600082460028CBD08346214640F2F458D9F8EF
:109770003060BBF80A205418444523D90025DBF893
:109780000400A8EB0102A4F2F4543944284415441F
:109790000FF08AFCF66844454FF00001B768EED838
:1097A00039462246DBF8040028440FF07DFCDBF844
:1097B00000B0BBF1000FA4D02146BBF80A2054181A
:1097C0004445DBD839440025ECE700BFBC1100203C
:1097D0002D4B02689A4200D07047A3F590432B4866
:1097E0001A6B42F00072F0B51A6389B01A6B00244C
:1097F0000227032602F000720B2503A90092009AAB
:109800001A6B42F080621A631A6B02F08062019256
:10981000019A1A6B42F000621A631B6B03F000633B
:1098200002934FF4C043CDE904740393029BCDE946
:10983000066509F009FB322303A915480393CDE916
:109840000474CDE9066509F0FFFA862303A91148DF
:109850000393CDE90474CDE9066509F0F5FA4FF4F8
:10986000006303A90C48039304970795CDE90546C7
:1098700009F0EAFA224605213D200AF0E9FF3D20E1
:109880000BF024F809B0F0BD00800240001802403F
:10989000000802400000024000040240026808B5CF
:1098A000144B9A4200D008BDA3F590434FF4C04139
:1098B00011481A6B22F080621A631A6B22F0006260
:1098C0001A631A6B22F000721A6309F003FC32214A
:1098D0000A4809F0FFFB8621094809F0FBFB09480B
:1098E0004FF4006109F0F6FB3D20BDE808400AF0A6
:1098F000FBBF00BF00800240001802400008024089
:109900000000024000040240014B986C0CF0ECBBDC
:10991000BC110020014808F061BF00BFBC1100204D
:1099200010B5094C82B0112101AA204608F094FF1D
:10993000019A1121204622F4F04242F4B0420192F1
:1099400008F0C4FF02B010BDBC1100203A4B47F232
:1099500073413A4AF0B53A4D8DB043610126394B17
:1099600001AFC18504462B604FF400638261394624
:10997000EB604FF4804306223348AB6003236E60F4
:109980002B82FFF745FC00224FF400032846C5E96F
:109990000576C5E9072308F0D1FF28B994F82D30E2
:1099A00043F0040384F82D3028490423284AA1F108
:1099B0004C0008F057FD27490423274AA1F1CC00A9
:1099C00008F096FD6B69062284F82C201A7884F83A
:1099D00026205A7884F827209A7884F82820DA7884
:1099E00084F829201A7984F82A2094F82D205979AE
:1099F00040F2DC5384F82B100121A38442F00A03C7
:109A00000846002284F82D300CF0F6FA2422A864CF
:109A1000002103A84FF400750FF05CFC302303AA6B
:109A200021460E48CDE908530EF0ECF9044809F040
:109A30008FF800200DB0F0BDC1C3000819960008D2
:109A4000BC11002000800240F8FF0700081200202F
:109A50000813002088120020D82A0020D196000880
:109A6000BFF34F8F0549064BCA6802F4E062134307
:109A7000CB60BFF34F8F00BFFDE700BF00ED00E0FC
:109A80000400FA0510B582B00C4C08F0C3FB0C4B77
:109A900001A90A220193206008F060FB08F0BAFBDC
:109AA00041F690720749606008F0DEF9002206492D
:109AB000606808F08DFB02B010BD00BFA842002016
:109AC000C0A81445B8410208459B000870B5194E5E
:109AD00033682BB305460FF013FF01464FF4C172F4
:109AE000362089B204F0B6F80446F0B128460FF0EB
:109AF00007FF294682B2204604F096FB21463068D3
:109B000008F01AFB38B901200DF074F82046BDE8C2
:109B1000704004F0ADBA014607480FF03DFCF2E793
:109B20000648BDE870400FF099BC0548BDE870409C
:109B30000FF094BCA8420020F8300208BC300208A4
:109B4000DC3002080AB3F0B5558985B0144600260A
:109B50002A4601A861680396134FCDE901660FF00C
:109B6000A3FA04AB396801A81D4405F80C6C0FF08A
:109B70004BFD90B1796801A80FF046FD30B1204649
:109B800005B0BDE8F04004F073BA70470748FFF72E
:109B90009DFF00F017F8FFF763FF0548FFF796FFFA
:109BA00000F008F8FFF75CFF1000002038310208D1
:109BB00018310208024B4AF2A5525A65704700BF9D
:109BC00000280040014B00225A65704700280040E1
:109BD000044A4AF2A553506DC01AB0FA80F0400909
:109BE000704700BF00280040074B08491A6C42F03C
:109BF00080521A640A6842F480720A601A6F42F452
:109C000000421A67704700BF0038024000700040F1
:109C100030B5134D87B0A84202D9012007B030BD3E
:109C200000230446CDE9003300F052F803462846ED
:109C3000039300F04DF8034620461C4600F048F818
:109C400002460223694601A8A41A0593013404942C
:109C50000AF03EFC003818BF012007B030BD00BF3D
:109C6000FFFF1B0884B010B502AC84E80F0020464B
:109C70000AF032F8204609F0EFFF0299114A8B688A
:109C800043F001038B601468A20808D00E480F4B04
:109C90001044800053F8042B98420A60FAD1A307BD
:109CA0000AD00A4A24F003031444134413F8012B86
:109CB0009C420A700299F9D10868BDE8104004B0CE
:109CC000704700BF000004080001010200040408FE
:109CD0001E4B984228D31E4B984223D91D4B9842C5
:109CE00024D31D4B984223D903F50033984221D940
:109CF00003F5802398421FD903F5802398421DD98C
:109D0000B0F1016F1CD303F5002398421AD903F573
:109D10008023984218D903F58023984294BF0A20E3
:109D20000B207047012070470020704702207047C9
:109D300003207047042070470520704706207047B5
:109D400007207047082070470920704700800008EE
:109D5000FFFF000800800108FFFF01080AF0B4B906
:109D60000E4B984201D90120704700B5002387B0FF
:109D700002226946CDE90033FFF7AAFF03460592A8
:109D800001A8C3F10802CDE903320AF0A1FB0038B3
:109D900018BF012007B05DF804FB00BFFFFF0C08EF
:109DA00042B32DE9F041044617460D1F0026DFF8A7
:109DB000488010E021686A680AF020FAA0B9226899
:109DC00055F8043F12689A4211D12368BE4203F14C
:109DD0000403236005D02168013600230220414599
:109DE000E8D30020BDE8F0810120BDE8F081022029
:109DF000BDE8F08100207047FCFF1B08F0B500248F
:109E000083B0054698B28DF8044004240E461746E8
:109E10008DF8054004F064FC2146ADF806004FF4CF
:109E2000C172362003F016FF78B104464168284617
:109E3000019DBBB232460D60214608F053F9204621
:109E400003B0BDE8F04004F013B9034803B0BDE827
:109E5000F040FFF73BBE00BF743102082DE9F0412E
:109E600014461F465289ADF5187D2389BDF87882C6
:109E7000934229D1042B05460E4608D963685888B9
:109E800004F02EFCD5F814320133984223D06368D5
:109E9000588804F025FCD5F814325A1C90420FD093
:109EA000424639463046FFF7A9FF6389B3F5017F83
:109EB0003CD3204604F0DCF80DF5187DBDE8F081B8
:109EC0000346C5F81402EBE74B480DF5187DBDE8D5
:109ED000F041FFF7FBBD6289042318A92046043A2C
:109EE00092B204F037F9454A61891368043B0B4488
:109EF00013600B1F002B1A46B8BF01F1FF329B07FE
:109F0000C2F38F0201D0013292B218A93C48FFF788
:109F100047FF6289D5F81432111FD5F81822013392
:109F20000A44C5F81432C5F81822B9E7DFF8CC8026
:109F30000EA83449D8F800200FF0DAFA0EA8FFF77F
:109F4000C5FD284603F09AFB304608F037F9304645
:109F500008F042F92C4F00222C49D8F8080008F0EC
:109F600037F9204604F084F8FB68B3F1A53F11D01F
:109F70002748FFF7ABFDFFF725FEBFF34F8F2549BD
:109F8000254BCA6802F4E0621343CB60BFF34F8FE6
:109F900000BFFDE7214E6C4606F110050FCD0FC442
:109FA0002B68236096E80F00FFF75CFE1C49024611
:109FB000044606A80FF09CFA06A8FFF787FD7B6809
:109FC000A34214D01748FFF781FD0AF07DF8384608
:109FD000FFF7C6FE40464FF0016140F80C7F0B686A
:109FE00003F58063C3F38F02FFF7DAFEC0E70E4884
:109FF000FFF76CFDBCE700BF8C3102081443002062
:10A0000018430020A4310208000004082DA0000815
:10A010002C32020800ED00E00400FA05B00A00202E
:10A02000CC31020800320208DC3102082DE9F04F81
:10A030005A4CABB016461F46E168BDF8D080B1F16E
:10A04000A53F63D008F0E6F80546002800F08580BB
:10A050000022534907F008FF002840F0848074680C
:10A060006378022B46D1A378A11C002B00F09480CA
:10A070006FEA040E8C460EEB0C021CF8014F002C0C
:10A08000F9D1013214A80FF0E9FC14AA45491EA821
:10A090000FF02EFA1EA8FFF719FD4FF40A7003F017
:10A0A00001FC0446002864D03B684FF00009DFF84B
:10A0B0000CA10246DFF8E4B03B49C0E98338022333
:10A0C000C0E985990360284608F082F8CAF8009034
:10A0D000FFF744FE5846FFF743FE2846D4F81432F3
:10A0E00042463946CAF804B0FFF788FE2F48FFF70A
:10A0F000EDFC05E02E48FFF7E9FC284608F06CF877
:10A10000304603F0B5FF2BB0BDE8F08F294A684612
:10A1100029490FF0EDF96846FFF7D8FC09F0D4FFA4
:10A120004FF00160FFF774FD4FF0016323482146B3
:10A1300040F8103F226802F58062C2F38F02FFF7F9
:10A140002FFE00283FF47EAF02461D490AA80FF0FB
:10A15000CFF90AA8FFF7BAFC74E71A48FFF7B6FC74
:10A160002BB0BDE8F08F1848FFF7B0FC2BB0BDE86E
:10A17000F08F1648FFF7AAFC204603F07FFA284626
:10A1800008F01CF8284608F027F80C4B2246104926
:10A19000986808F01DF8B3E7012273E7000004088F
:10A1A000B8410208C83202085D9E0008EC3202087D
:10A1B000B432020810000408483202081443002098
:10A1C00060320208843202089C320208DC32020843
:10A1D0002DA0000810B50D4C08F01CF8A06080B14F
:10A1E00045220B4907F040FE30B902460949A068F4
:10A1F000BDE8104007F0ECBF0748BDE81040FFF78E
:10A2000065BC0648BDE81040FFF760BC1443002061
:10A21000B84102082DA000081C33020804330208CC
:10A2200038B50E4B0D46044619462B6000F0F0FA87
:10A2300008B9204638BD0A492046296000F0E8FAEE
:10A240000028F6D007492046296000F0E1FA0028EE
:10A25000EFD000231C462B60EBE700BF343302082D
:10A26000403302084C33020882BB70B5B1FA81F565
:10A270000C466D0939B30121204606F041FF2C2020
:10A2800003F010FB0646D8B12C2229460FF022F825
:10A2900031462046F46106F04BFF20460D4906F09A
:10A2A0004BFF20460C4906F04FFF042220460B4985
:10A2B00006F054FF20460A4906F042FF284670BDCA
:10A2C0004FF0FF3070BD6FF0050070BD6FF00500FE
:10A2D000704700BF81A40008E5A2000841A400085F
:10A2E000A1A7000890B110B50446406918B100F06C
:10A2F000B5FA00236361206A18B103F0B9FE0023A8
:10A3000023622046BDE8104003F0B8B9704700BF93
:10A3100038B504460D46002106F00AFF002120460C
:10A3200006F00AFF0021204606F00EFF002220461C
:10A33000114606F013FF0021204606F001FF75B11B
:10A34000686918B100F08AFA00236B61286A18B1B5
:10A3500003F08EFE00232B62284603F08FF920467F
:10A3600007F058FB00B938BD204604220249BDE879
:10A37000384006F0F3BE00BF41A40008F8B54FF620
:10A38000FE734C6A0E4605469C428F690DD8002C20
:10A390003AD10127706900F063FA002824DC3146C5
:10A3A00028460027FFF7B4FF1EE04FF6FF746A8EC1
:10A3B000B5F86430520092B29A4228BF1A469442CD
:10A3C00028BF1446002322463946284604F03CFDA7
:10A3D000431C0BD090B9736A0127B2691B1B22443E
:10A3E0007362B261002BD5D03846F8BDB5F8643041
:10A3F00023B1B5F866306408082B02D9736A0027C8
:10A40000F0E7012CDED8F9E7A4B2D0E7A9B138B55E
:10A410004B6A04460D462BB9486940B100F020FA5A
:10A42000002804DD29462046BDE83840A6E720463E
:10A430002946FFF76DFF002038BD0020704700BFA0
:10A4400010B50C4680B190F828300133DBB2042BF4
:10A4500080F8283008D0436923B101462046FFF731
:10A46000D5FF38B9002010BD01462046FFF750FF48
:10A47000002010BD204605F0B3F8002010BD00BF3D
:10A480002DE9F04F05460E4614462DED028B87B0A0
:10A4900083B9BAB178B11189304606F03FFD6B69D6
:10A4A000D3B1204603F0E4FD002007B0BDEC028BE1
:10A4B000BDE8F08F32B13046218906F02FFD2046ED
:10A4C00003F0D6FD29463046FFF722FF002007B0F3
:10A4D000BDEC028BBDE8F08FAB69002B40F0B38080
:10A4E000286A002800F0A680214603F0DDFD204602
:10A4F00003F0CCFD286A0368002B00F09680B0F8CA
:10A50000088040F2FF339F499845894628BF984606
:10A510000023424603F01EFEB8F1060F71D94246F1
:10A520009949484604F0E2F800286AD00422974985
:10A5300048460FF053FA0746002840F0A980A8F1DA
:10A54000040209F1040B924909F1030A92B2584638
:10A55000019204F0CBF8019A034600286CD0002B3E
:10A560004FD09A4501934CD242468A49484604F05E
:10A57000BDF8019B002844D0A3EB0B0300225846F2
:10A580009BB289F803200BF80320CDF814B00FF02C
:10A59000B7F9814628B100F1FF3A1BF80A302F2B9A
:10A5A0007CD03F2158460EF0C3FF18B10023037042
:10A5B000DDF814B059462846A84600F029F90028CD
:10A5C00052D1D8F800000023D8F80420C5F8148030
:10A5D000A8616A6285F8283027B198F81030DB0747
:10A5E00000F1B380286A00283AD003F041FD00232F
:10A5F00020462B6203F03CFD29463046FFF706FF5C
:10A6000064E7286A03F038FD2B6A1A89B2F5806F77
:10A6100002D205287FF645AF184603F029FD002336
:10A6200020462B6203F024FD4CE7D4F80490B4F8E4
:10A630000A8071E72C625AE75349584604F056F8ED
:10A64000012703468BE76FF00707286A002840F0D0
:10A650009080204603F00CFD10373FF433AF35E710
:10A66000204603F005FDC7E7284605A9FFF7D8FDFA
:10A6700080460028A5D105A92846FFF7D1FD8046D0
:10A6800000289ED1686285F82800C5E90500A9E781
:10A6900000236FF00F0789F80430D6E7012802D0B5
:10A6A0003D4B9B455FD0BAF13F0F28BF4FF03F0AAB
:10A6B000B9F1010F0BD0DFF8CC805946524608F5AE
:10A6C0008060D0440EF0F0FC002388F80034324B58
:10A6D000A8464FF0000B0194534408EE103AB9F12C
:10A6E000010F12D0DAF13F0213D12B4C284621463C
:10A6F0000BF1010B00F08CF8002836D0BBF1050FF0
:10A70000EDD1019CDDF814B04BE7244B53F83B40EE
:10A71000ECE7224B039253F83B101F4C0846029182
:10A720000FF0EEF8039A0299824228BF024618EE13
:10A73000100A02920EF0B8FCA4F58063029A53440A
:10A740001344002283F80024D0E7124903F0CEFF1F
:10A7500000283FF447AF0430AA696B6A821AA861E7
:10A760009B1A6B623EE79B461BE72346019C0593C1
:10A7700027E703F07DFC002320462B6203F078FCE2
:10A780006AE700BF28430020583302085C33020800
:10A79000643302086833020828470020B0330208F7
:10A7A00098B1002238B5436A04460D4680F8282047
:10A7B0002BB9406958B100F053F8002807DD214655
:10A7C0002846FFF7DBFD002038BD002070472146FA
:10A7D0002846FFF79DFDF6E710B52E2007F082F81A
:10A7E00088B10446012106F08BFC50220649204620
:10A7F00006F0C2FAFF21204606F06AFB0349BDE8D5
:10A80000104006F0A5BC10BDB841020869A20008BE
:10A81000F0B170B50D46C1B10F49064601F5ED64C2
:10A8200000E0616828460EF0EFFE28B12468002C95
:10A83000F7D16FF0050070BDD4E90223F060B3607A
:10A84000C6E90023237C337470BD6FF00F0070BD28
:10A850006FF00F00704700BFD8330208704700BF89
:10A86000D0E90120101A70472DE9F843002973D070
:10A87000B0FA80F504466D0900286DD08946164669
:10A880004FF49A714FF4207236201F4603F0E2F91C
:10A890008046002860D0032E42D099F80630002B65
:10A8A00065D0354B1868D8F804504FF49A720021DF
:10A8B000C9F8000028460EF00DFD01232B706B70C7
:10A8C00094F82C30AB70D9F8000003F00DFF042E83
:10A8D000686046D16368EB6004F1260105F11C0C49
:10A8E0002C3411F801EB8C420CF801EBF9D1632305
:10A8F0006FF07D0285F8F260404685F8EC3085F80F
:10A90000EF30352385F8ED20532285F8F030012310
:10A9100085F8EE2085F8F13003233B80BDE8F8830D
:10A9200099F80530032BB8D0294645684FF49A7240
:10A9300028460EF0CFFC01232B706B7094F82C305E
:10A94000AB70D9F8000003F0CFFE686099F80530CD
:10A95000043B012BC0D8BDE74FF000084046BDE8DE
:10A96000F883F31F012BB5D9032EB5D1EEE70EF016
:10A9700085FD014B186096E76847002010B5046A12
:10A980006379082B04D000230822A371627123810C
:10A99000002204F11C0101F079FCA379FF2B01D006
:10A9A0000133A3710123238110BD00BF002800F0F3
:10A9B0008D80016A002900F089808B6A0022B3F142
:10A9C000FF3F00B54A8283B00DD01E33B3F5701F30
:10A9D0006DD2A2F177323B2BA2FB03C2C2F34F121E
:10A9E00075D801238B82CB6A5A1C44D01E33B3F531
:10A9F000701F57D2394A3B2BA2FB032CCCF34F1CC0
:10AA000067D801239C464B810A6BA1F80EC0531CEA
:10AA100036D01E32B2F5701F3FD2304B3B2AA3FB1B
:10AA200002E3C3F34F1357D8012213468A81012250
:10AA30000B829C4502D30AB100234B81CB7923B30F
:10AA40000B6A00934B6A01932BB9CB69009A1340B0
:10AA500043F0807301934B790A2B04D000230A2220
:10AA60008B714A710B8101AB6A461C3103F070FF98
:10AA700003B05DF804FB0A6BB1F80AC0531CC8D1DF
:10AA80008B891A1E18BF0122D3E791F91C300A7F67
:10AA9000002B13DBFF230093D4E74FF6FF7213461E
:10AAA0008A81C4E74FF6FF739C464B81ACE74FF6B3
:10AAB000FF738B82CB6A5A1C98D1DCE7BF2A8CBF0C
:10AAC0006FF07F434FF6FF730093BBE770478A82B6
:10AAD00089E7A1F80AC097E78B81A8E78988888869
:10AAE00038B5114D2C791CB1013400202C7138BDC2
:10AAF00007F090FBA86098B1427A0C4942F020021E
:10AB00004272442207F0B0F908494322A86807F0CE
:10AB100025FB22460649A86807F05AFB2C79E3E793
:10AB20004FF0FF3038BD00BF68470020B841020831
:10AB300095B0000838B51A4D00230446EA7BC0E9F9
:10AB400008330AB12B6A83622B7C2BB36B6A6A7C55
:10AB5000E3624AB1AB6A2363AB7C0A69E2616BB919
:10AB6000E371EB7C9BB938BDA36AC3EBC303DB087D
:10AB70002363AB7C0A69E261002BF1D0E86A03F041
:10AB8000B3FD01232062E371EB7C002BEBD0286B3B
:10AB900003F0AAFD606238BDA36A5B08D7E700BF77
:10ABA000684700202DE9F04FD0F820808BB0074691
:10ABB00098F80530032B07D00023032288F80630CD
:10ABC00088F80520A8F808300DF126030322414635
:10ABD0003846FFF749FE0646002800F09080BDF891
:10ABE00026404FF0020E45684FF0390A04F1010C7F
:10ABF000A01CF035E11C1FFA8CFC221D80B205F868
:10AC000004A089B205F80CE005F800E0402092B2FB
:10AC1000631D6854322104F106099BB2A954042231
:10AC20001FFA89F9EA54D8F81C00ADF8269003F011
:10AC30005BFD04F109034FEA106B04F1070E04F108
:10AC40000E029BB205F809B01FFA8EFE04F1080C43
:10AC5000029304F10A0392B299B204F10B034FEA92
:10AC6000104907929BB2029A05F80E901FFA8CFCCD
:10AC7000049304F10C034FEA102E039199B204F1EE
:10AC80000D0305F80CE01FFA83FAA8543720039A45
:10AC9000CDF818A04FF0030AA8540120049A04F13B
:10ACA0000F03059104F1100105F802A09BB2059A6B
:10ACB00089B2A8541C20069A432905F802A0079AD5
:10ACC000A8544FF0FF02ADF82630EA5407D8C4F17B
:10ACD00034026818002192B20EF0FCFA4421F031DF
:10ACE000304689B203F092F815484323154A80682C
:10ACF0003146009707F0CAF9304603F0B9F998F8E1
:10AD00000630FF2B16D00133DBB2092B88F8063052
:10AD100010D8C3EB43110C4A03EB8103DB0003F2B1
:10AD2000F3139BB2A2FB03235B09A8F808300BB016
:10AD3000BDE8F08F1423A8F808300BB0BDE8F08F01
:10AD400068470020B4410208D34D62102DE9F04F4E
:10AD5000066A002389B005467279F361062A03D09A
:10AD60000622B371338172710DF11E030122314647
:10AD70002846FFF779FD0446002866D0BDF81E205E
:10AD8000392140684FF00309531CD71C00F1F00C27
:10AD900002F1050E9BB20CF802100221BFB20CF8B2
:10ADA0000310931DB5F824A002EB01089BB2111DFE
:10ADB0001FFA88F803934FEA1A2BD31D89B20CF8B7
:10ADC00008B01FFA8EFE0CF807A098B2372702F1E0
:10ADD0000803049002F109000CF801709BB20121F4
:10ADE000039F0CF80E9080B20CF80710059302F147
:10ADF0000A0304999BB2059F0CF801901C21432B78
:10AE00000CF807104FF0FF01ADF81E000CF8001011
:10AE100008D8C2F13A020CEB0300002192B20EF006
:10AE200059FA442303F1F0012046164F89B202F08B
:10AE3000EDFF15484323154A80682146CDE90057A8
:10AE400007F084F8204603F013F9B379FF2B13D0F1
:10AE50000133DAB2052AB2710ED84FF47A730C4975
:10AE60000020934003F2F3139BB2A1FB03235B0981
:10AE7000338109B0BDE8F08F78230020338109B019
:10AE8000BDE8F08FB841020868470020B4410208CD
:10AE9000D34D6210002800F0F3802DE9F04F076ACF
:10AEA0008BB08046002F00F0E6807B79012B04D028
:10AEB00000230122BB717A713B810DF1260303222D
:10AEC00039464046FFF7D0FC0646002800F0C08017
:10AED000BDF82640392245684FF0040A631CE11C86
:10AEE000F03504F106099BB204F10C0B2A5502223D
:10AEF00089B2EA54A018B8F824C0221D80B2631D9C
:10AF00004FEA1C2E92B205F800E09BB205F801C092
:10AF100032211FFA89F9A95405F803A0F869ADF8A0
:10AF2000269003F0E1FB04F10B0304F1070E04F19A
:10AF3000080C04F109019BB204F10A021FFA8EFE0B
:10AF400002931FFA8BF34FEA106B1FFA8CFC05F883
:10AF500009B04FEA104989B204F10F0B05F80E90C1
:10AF60004FEA102E92B205F80CE01FFA8BFB6854E2
:10AF70003621A954029A029305F802A0B869ADF8E7
:10AF8000263003F0B1FB04F1100304F114024FEA80
:10AF9000106A04F10D0E99B204F1110392B204F19A
:10AFA0000E0C9BB2039107921FFA8EFE029A1FFAB3
:10AFB0008CFC049304F1120305F802A04FEA104A36
:10AFC00099B204F1130305F80EA04FEA102E1FFAF0
:10AFD00083F9039A05F80CE004F1150305F80B005A
:10AFE0003720CDF818904FF00309A8540120049A97
:10AFF0009BB2059104F1160105F80290059A89B2F9
:10B00000A8541C20069A432905F80290079AA854D0
:10B010004FF0FF02ADF82630EA5407D8C4F12E02F3
:10B020006818002192B20EF055F94421F0313046F3
:10B03000144C89B202F0EAFE13484323134A806895
:10B040003146CDE9008406F081FF304603F010F868
:10B05000BB79FF2B12D00133DAB2052ABA710DD8B1
:10B060004FF47A730A49934003F2F3139BB2A1FBA6
:10B0700003235B093B810BB0BDE8F08F7823F9E730
:10B08000704700BFB841020868470020B441020879
:10B09000D34D6210A74B2DE9F04FD3F804A087B031
:10B0A0001446DAF82070002F45D03B79002B42D0AF
:10B0B00053892B2B3FD956683378022B3BD19AF812
:10B0C0002CC0BCF1000F10D00AF1260106F11C02C1
:10B0D000002311F8015B013312F8010BDBB285424A
:10B0E00029D1062B01D06345F3D3706803F0FCFA35
:10B0F0003B6898421FD190490022C1E9032263892D
:10B100002B2B18D9B4F808904FF0F00B0192009453
:10B11000CDE902A7009E00E073895B45ABEB03021B
:10B12000A9EB03030DD836681FFA82FB1FFA83F9D7
:10B13000002EF1D1009C204607B0BDE8F04F02F090
:10B1400097BFCB45746880F00F815D46625DFF2A32
:10B1500000F00A81AB1C9BB2AB42EBD3691C708937
:10B16000814280F2F880671997F801803B2A00F24B
:10B170009781DFE812F03C004D009501B100950188
:10B18000950195019501950195019501950195010F
:10B1900095019501950195019501950195019501FF
:10B1A00095019501950195019501950195019501EF
:10B1B00095019501950195019501950195019501DF
:10B1C00095019501950195019501950195019501CF
:10B1D000950195019501950195019501A3008D00BB
:10B1E000D100C300950195019501E3007F008DB268
:10B1F0008542C0F0B6802D1AA9EB0009ADB21FFA46
:10B2000089F94D4596D23668002E93D074689DE733
:10B21000B8F1040F8ED14FF6F97295428AD80635EF
:10B220004FF0060AADB200220592434A5244127B07
:10B23000002ADDD11FFA88F705A930463A4602F008
:10B2400089FF87427FF476AFB8F1040F00F03881B0
:10B25000B8F1010F7FF46EAF9DF81400364A4FF03D
:10B26000010102EB0A0302EB8A0A1973CAF81400FF
:10B270007089BDE7B8F1040F7FF45CAF4FF6F97247
:10B2800095423FF657AF06354FF0050AADB2CAE713
:10B29000BBF1F00F7FF44EAFB8F1010218BF0122ED
:10B2A000002A7FF447AF4FF6FE77B9423FF442AF32
:10B2B000033592464FF00108ADB2B4E7B8F1040F80
:10B2C0007FF438AF4FF6F97295423FF633AF06354B
:10B2D0004FF0030AADB2A6E7B8F1030F7FF62AAF2D
:10B2E00045444FF6FD7295423FF724AF03EB080546
:10B2F0004FF0070A4FF00408ADB294E7B8F1040F1D
:10B300007FF418AF4FF6F97295423FF613AF06354A
:10B310004FF0020AADB286E7B8F1010F7FF40AAF31
:10B320004FF6FE7291423FF405AF0335C246ADB20F
:10B3300079E700BF348A002068470020B8F1040F85
:10B340007FF4F8AE4FF6F97295423FF6F3AE06354C
:10B35000C246ADB267E737681FB37F6897F80080D1
:10B3600004E7A9453FF6F2AE894B1B7B63B1884BDE
:10B370004FF000021A735B69012B00F09C80022BD6
:10B3800006D0032B00F09580019B002B00F09C80E1
:10B3900000234FF06C094FF02C0B0193009B5B894D
:10B3A000B8E63B2A7AD801A757F822F0EFB1000897
:10B3B00035B100089DB4000835B100089DB40008FF
:10B3C0009DB400089DB400089DB400089DB4000819
:10B3D0009DB400089DB400089DB400089DB4000809
:10B3E0009DB400089DB400089DB400089DB40008F9
:10B3F0009DB400089DB400089DB400089DB40008E9
:10B400009DB400089DB400089DB400089DB40008D8
:10B410009DB400089DB400089DB400089DB40008C8
:10B420009DB400089DB400089DB400089DB40008B8
:10B430009DB400089DB400089DB400089DB40008A8
:10B440009DB400089DB400089DB400089DB4000898
:10B450009DB400089DB400089DB400089DB4000888
:10B460009DB400089DB400089DB400089DB4000878
:10B470009DB400089DB4000835B1000835B100083E
:10B4800035B1000835B100089DB400089DB400082E
:10B490009DB4000835B1000835B100084FF0000830
:10B4A00045444FF6FD7295423FF744AE43449DB28A
:10B4B0009EE6012301934FF0EC094FF06C0B6DE712
:10B4C000059803F011F9C9E6314B009C5B7BDDE97F
:10B4D00002A7002B3FF42FAE2D4B65681B7E052B7A
:10B4E0001DD0062B2BD0022B7FF425AE7B79062BAB
:10B4F0007FF421AE264B9B7B002B3FF41CAE244BEC
:10B50000DAF82060D869019B338103F0EDF8034637
:10B510005046B3612B69F361FFF7BCFC0BE67B7906
:10B52000012B27D0033B022B3FF605AEDAF82000B3
:10B530002946FFF7FFFA5046FFF738FAFBE57B791B
:10B54000DA1E022A02D9012B7FF4F5ADDAF8203099
:10B550005A790C2A04D000220C219A7159711A814F
:10B560000C4B50461A46194603F0F2F95046FFF7C5
:10B57000EDFBE0E5DAF820002946FFF7DBFA9AF860
:10B580002D3050461B07D7D5FFF7F8F9D3E500BF9C
:10B5900068470020B84102080B463422002110B54C
:10B5A000044618460DF096FE206210BD10B5044604
:10B5B000006A18B102F062F80023236210BD00BFD8
:10B5C000002865D02DE9F04190B00446FFF788FAD5
:10B5D000064610B110B0BDE8F0810146342203A840
:10B5E0000DF078FE07220DF10A0303A98DF8112052
:10B5F00020460822FFF738F90546002849D0BDF853
:10B600000A2039214068531C02F1030CF0309BB230
:10B61000815402211FFA8CFCC15402EB010EA78C4D
:10B62000531D1FFA8EFE111D4FEA17289BB200F81A
:10B630000E8089B200F80C70432B4FF0FF07ADF875
:10B640000A10475407D8C2F13F021844314692B25B
:10B650000DF040FE4423F0330F4E284699B202F01D
:10B66000D5FB009443230D4A2946B06806F00EFD31
:10B67000284602F0FDFC3479013CE4B23471002C20
:10B68000A8D1B06806F0A8FDB46010B0BDE8F081A4
:10B690007047014EEFE700BF68470020B441020841
:10B6A000026A2AB15379052B03D8022B07D813B9A4
:10B6B00070470A2B03D000239371FFF747BB002389
:10B6C0009371FFF76FBA00BF00287DD02DE9F04FCE
:10B6D000056A85B0044615B16B79082B02D005B018
:10B6E000BDE8F08F0A68EB699A42F8D14FF0000983
:10B6F0000C23042229466B710DF10E0385F8069088
:10B70000A5F80890FFF7B0F80746002854D0BDF818
:10B710000E603222436806F1020A03F1F008731C3E
:10B720001FFA8AFA08F806209BB2042208F80320C0
:10B73000E869ADF80EA002F0D7FF06F1030E4FEA5C
:10B74000106B06F1040C721D08F80AB01FFA8EFE89
:10B75000F11D4FEA104A92B2B31D08F80EA01FFA6D
:10B760008CFC89B24FEA102E9BB2432908F80CE0FA
:10B7700008F802004FF0FF02ADF80E3008F8032081
:10B7800008D8C6F13D0208EB0100494692B20DF01F
:10B79000A1FD4421F031384689B202F037FB0B4954
:10B7A0000B4A43230094886839460192094A06F0FF
:10B7B000CDFB384602F05CFCAB79FF2B01D00133A6
:10B7C000AB7114232B818AE7704700BF68470020C4
:10B7D000B8410208B44102082DE9F04F056A89B06A
:10B7E00006466B79052B04D000230522AB716A71E4
:10B7F0002B810DF11E03032229463046FFF734F852
:10B800000446002800F08580BDF81E2043683920DA
:10B81000511CD71CF03302F1040E89B202F1050C61
:10B8200098540220BFB25854911DB6F824A002EBE0
:10B83000000889B202F109001FFA88F80391D11DAE
:10B840004FEA1A2B89B203F808B080B2049102F1D2
:10B85000080103F807A01FFA8EFE1FFA81F93727A7
:10B8600002901FFA8CFC03F80E700127039802F176
:10B870000A01CDF814904FF0030989B203F80C9037
:10B880001F541C270498432903F8009005981F545F
:10B890004FF0FF070298ADF81E001F5407D8C2F101
:10B8A0003A025818002192B20DF014FD4421F031F3
:10B8B000204689B202F0AAFA17484323214680683D
:10B8C00005F11802009606F0E1FB034620461C46EF
:10B8D00002F0CEFBAB79FF2B15D00133DBB2092B85
:10B8E000AB7110D8C3EB43110C4A204603EB810324
:10B8F0001B0103F2F3139BB2A2FB03235B092B8111
:10B9000009B0BDE8F08F282320462B8109B0BDE89F
:10B91000F08F4FF0FF34DDE768470020D34D621011
:10B920002DE9F047046A84B0002C7FD06279002AA8
:10B930007CD0A169002305460391111FE361012911
:10B94000A361A362E3812361A382C4E90833C4E94C
:10B950000B3301D90A2A5BD10DF10A0307222146D4
:10B960002846FEF781FF0646002851D0BDF80A7030
:10B970003622736807F1020903F1F0087B1C1FFAF5
:10B9800089F908F807209BB2042208F803200398DD
:10B99000ADF80A9002F0A8FEF91C4FEA106A07F110
:10B9A000040EFB1D08F809A089B24FEA1049BA1D20
:10B9B0001FFA8EFE07F1050C08F801909BB2010AF0
:10B9C00092B2432B08F80E101FFA8CFC4FF0FF01C7
:10B9D00008F80C00ADF80A2008F8021008D8C7F1E2
:10B9E0003D0208EB0300002192B20DF073FC4423EA
:10B9F000F033304699B202F009FA164A0095432313
:10BA00009068314603AA06F041FB304602F030FB55
:10BA1000114B28461A46194602F09AFF63791BB16A
:10BA200000236371A3712381237913B904B0BDE8A6
:10BA3000F087084E3579013DEDB2357125B100230F
:10BA4000237104B0BDE8F087B06806F0C5FBB560AF
:10BA5000F5E700BF68470020B8410208F8B50028A4
:10BA600045D090F82D300446DA0740D5838C056A1E
:10BA7000B3F5107F38D385B32B7913BB3422002163
:10BA800028460DF027FCFFF72BF8064660BB012384
:10BA90002B7194F82D305B0708D46B79022B03D0FF
:10BAA0000223A87128816B713046F8BD2046FFF74C
:10BAB0004DF90028F8D020464FF0FF36FFF730FF51
:10BAC000F2E70C4F3E79013EF6B23E71002ED5D121
:10BAD000B86806F081FBBE60D0E7342001F0E2FEDA
:10BAE000054608B12062C9E74FF0FF36DCE76FF08A
:10BAF0000F06D9E768470020734B2DE9F04F1D680A
:10BB00008DB00DB3DFF8C4A1DFF8C491DFF8C4B184
:10BB10002C6AB4B16379A3B1A18A29B1628A0132D6
:10BB200092B29142628212D0228A1AB1511E012A27
:10BB3000218213D0E28922B1511E012AE18100F055
:10BB4000AD802D68002DE3D10DB0BDE8F08F284603
:10BB5000FFF7E6FE2846FFF781FFF2E75A1ED1B253
:10BB60000929EED840F21922CA40D24312F001024C
:10BB7000E7D1042B03D00423A271228163710DF15C
:10BB80002E03032221462846FEF76EFE06460028B5
:10BB900067D0BDF82E2039214068531CF0309BB28D
:10BBA00081540221C154D31C5718B5F824E09BB22C
:10BBB000BFB20493131D4FEA1E2899B2531D00F81B
:10BBC0000780059199B2931D049F069102F1080127
:10BBD0001FFA83FCD31D00F807E03727CDF81CC0FF
:10BBE0001FFA83FC02F10903CDF820C01FFA81FC83
:10BBF0009BB202F10A01CDF824C04FF0030C03936D
:10BC000089B2059B4329C7544FF00107069B00F8F2
:10BC100003C0079BC7544FF01C07089B00F803C0E4
:10BC2000099BC7544FF0FF07039BADF82E30C75454
:10BC300007D8C2F13A020844002192B20DF04AFB43
:10BC40004421F031304689B202F0E0F843235A46ED
:10BC50003146D9F80800009506F018FA304602F08F
:10BC600007FAA379FF2B2CD00133DBB2092BA37188
:10BC700027D8C3EB431203EB8203DB0003F2F31379
:10BC80009BB2AAFB03235B09628A2381A38A9B1AC6
:10BC9000012B7FF756AF5B10238252E703F0FB02C4
:10BCA000012A02D00A2B7FF44CAF2846FFF794FDFF
:10BCB000A389628A9B1A012B7FF743AF5B10E38154
:10BCC0003FE71423E0E700BFD8890020D34D62107E
:10BCD00068470020B441020838B5214B1C68FCB10C
:10BCE000002503E0013A1A812468CCB1236A002BB5
:10BCF000FAD01A89012AF5D8F6D15A791D810C2A71
:10BD000016D0062A14D0012A16D0082A09D0032AF0
:10BD1000EAD19B792046012B1ED9FFF717F8E3E7FC
:10BD200038BD9B792046012B13D9FEF73FFEDBE798
:10BD30002046FFF70BF8D7E79B792046052B02D862
:10BD4000FFF7A8F8D0E7FFF7EBFD2046FFF786FEE8
:10BD5000CAE7FEF713FEC7E7FEF724FFC4E700BFFC
:10BD6000D889002008B5FFF7DBFD002008BD00BF23
:10BD7000FFF7D6BD48B1006A38B14379181F0A2BC6
:10BD800018BF012894BF0120002070472DE9F04F13
:10BD90008B4600234FF00A0E85B0424E17465A4696
:10BDA0000546314698467446F146F3460393CDE97D
:10BDB000012304E06446013318310A2B17D00A2C02
:10BDC0000FFA83FC0A7D2DD1002AF3D025B1286813
:10BDD00082464868824531D0012A26D04A8A4245A7
:10BDE000E9D301339046E14618310A2BE7D1DA4610
:10BDF000DDF804B0BBF1010F50D10A2C24D04FEA7A
:10BE000044082DB108EB04032A6806EBC3035A600B
:10BE1000A044002306EBC8067382B760204605B035
:10BE2000BDE8F08F002AC6D0D0E70A685AB34A8A24
:10BE300002988242BFD3E6460292BCE717B18868F7
:10BE4000B842C9D16446E9E7B9F10A0F24D1BAF181
:10BE50000A0F1FD1BEF10A0F20D0744604EB44092B
:10BE60004FEA44084FEAC90956F8090020B102F028
:10BE7000FFF8002346F8093008EB0403002206EB24
:10BE8000C3031A75BDE74A8A0398824293D3E346F7
:10BE9000039290E75446E1E74C46DFE74FF0FF346A
:10BEA000BCE700BF9C4700202DE9F04782B0074661
:10BEB000884691461C214FF420720E201E46DDF864
:10BEC0002CA0BDF8344001F0C5FE90B305462046D5
:10BED0006C6802F005FC4B464246E080384631680B
:10BEE000A160B1880026A181DAF80010C4F8121010
:10BEF000BAF80410E1820A990968C4F80E100C9986
:10BF000009682670A1610121E67061700821A170A5
:10BF1000062121710421617140F606010091294634
:10BF200006F002FA284602F0A3F8304602B0BDE857
:10BF3000F0874FF0FF30F9E72DE9F0432F4E02EB89
:10BF4000420785B0044606EBC7070D463B7D022B32
:10BF500012D0182304F1260803FB026303F10C0935
:10BF60004FF400664B46424629462046009606F0AE
:10BF7000DBF905B0BDE8F0837B8AB3F58E7F20D86E
:10BF8000B3F5877FE5D302EB4202012300F12608D7
:10BF90004FEAC20C039341460CF10C030CF1040C64
:10BFA00006EB0309164B66440193031D4A460296AD
:10BFB00000934346FFF778FF0028D1D103233B7558
:10BFC000CEE702EB4202012300F126084FEAC20944
:10BFD00003930C4A414609F1040333440293084B8E
:10BFE0000193031D00934346FFF75EFF09F10C0226
:10BFF00006EB02090028E1D0B2E700BF9C47002011
:10C000009C430208944302082DE9F041204C84B07F
:10C010000026DFF884801F4F04F1F0050CE0012AB0
:10C0200001D1042B12D8032A1ED0042A1FD0012AC2
:10C0300020D01834AC4214D0227C002AF9D0E389F5
:10C0400001339BB2B3F5967FE381E8D354F8040C37
:10C0500018B102F00DF844F8046C26741834AC42A0
:10C06000EAD104B0BDE8F08104232374E1E70223A0
:10C070002374DEE76068CDF8048000F12603011D1B
:10C08000CDE9024200913A461946FFF70DFFD0E78D
:10C09000A0470020944302089C430208F8B50A4CCC
:10C0A0000027064604F1F005237D13B1A368B342CF
:10C0B00003D01834AC42F7D1F8BD206810B101F0BC
:10C0C000D7FF27602775F4E79C47002038B5044662
:10C0D00015460846022122461C46FFF757FE002857
:10C0E00010DB00EB4001094B03EBC102C900127DDC
:10C0F000012A07D901F10C0204311A4419442A60BB
:10C10000216038BD4FF0FF3038BD00BF9C47002094
:10C11000092819D800EB400070B40C4C04EBC00C9B
:10C12000C0009CF81450012D0BD9051D0C30DCF813
:10C1300008602544044401200D6016601C6070BC3A
:10C140007047002070BC7047002070479C4700205B
:10C15000002900F081802DE9F047466886B004464A
:10C160003388B3F5807F02D13379062B05D0204682
:10C1700006B0BDE8F04701F07BBF7379042BF6D120
:10C180007388082BF3D1D6F80E000D464F68B369BB
:10C190000590002F5AD0FF1A06F10808B7FA87F762
:10C1A0007F09C7F1020A5FFA8AFA00283DD02946C2
:10C1B00000F01EFC8146C0BB059B03F0F003E02BA2
:10C1C00033D051462A4605A8FFF7E0FD031E2CDBBD
:10C1D0002D4903EB430202204FF0180E01EBC20C75
:10C1E000D2008CF814000C20CCF8085013FB0E037E
:10C1F000D8F80000C8500B44B8F80400988051F8F3
:10C2000002A0ACF81290BAF1000F0ED04FF4006308
:10C2100041F80290284605F1260200935146434614
:10C2200006F082F8504601F023FFF388B3F5807FD3
:10C2300013D0B3F5007F03D105A92846FFF744FAD0
:10C24000204601F015FF06B0BDE8F08706F10808AA
:10C25000A8B14FF0020AAAE77047002FF0D00221E0
:10C2600005F1260342462846039105A9CDF804802E
:10C270000291291D00911946FFF716FEE0E7F388A9
:10C28000B3F5807FD5D1DBE79C4700202DE9F04F47
:10C290008A4685B004460146DAF80000154600F0EB
:10C2A000A7FB002874D1DAF8003003F0F002E02A8E
:10C2B0006ED0002B6CD0224601215046FFF766FD60
:10C2C000031E3CDBDEB2DFF8F48004F1260B06EB44
:10C2D00046074FEA460908EBC7073B7D4BB1002DE7
:10C2E00059D0012B4FF0FF3018D82CD005B0BDE845
:10C2F000F08F0123CDF808A0BC6059460393204677
:10C300003B752C4B2C4A0193231D00935B46FFF792
:10C31000CBFD002DEAD03B7D012BE6D9182320462A
:10C320004FF400645A4603FB0683294600940C33FD
:10C3300088F8F06005F0F8FF05B0BDE8F08F58B25E
:10C3400005B0BDE8F08F2B461A7B520614D41B684B
:10C35000002BF9D1284601F099FE09EB060358F8A5
:10C36000330008B101F084FE09EB0603002048F811
:10C37000335005B0BDE8F08F2A464FF420710E20EF
:10C3800001F0E6FF05460028E7D14FF0FF30ADE7AA
:10C390006FF00F00AAE7221D0123064D59462046E3
:10C3A000CDE902A3CDE900255B46034AFFF77CFDFA
:10C3B0009CE700BF9C430208944302089C4700206E
:10C3C000F0B5054685B00F4601461068164600F0E8
:10C3D0000FFB002863D1336803F0F002E02A37D066
:10C3E0006A68A9685A400A4209D09BB24FF6A9620E
:10C3F000934204D0EB68002B5AD005F10C06DFF80D
:10C40000B8C09CF8F02002EB42030CEBC303197D8B
:10C41000012902D99968A94243D0274C002303E09F
:10C420000A2B04F1180432D0207DDAB2013301283E
:10C43000F6D9A068A842F3D1306861688842EFD18C
:10C44000394628468CF8F02005B0BDE8F04073E589
:10C4500001225E23F1788DF808208DF80A30727879
:10C46000B37802F07F028DF809008DF80C3002AB32
:10C470008DF80B208DF80D104FF4006405F12602A5
:10C4800039462846009405F04FFF05B0F0BD3A4606
:10C490003146284605B0BDE8F040FFF7F7BE074B30
:10C4A000EAE75B6831689942B7D139462846CBE75D
:10C4B0006FF00300E9E700BF9C47002094430208A7
:10C4C00010B5012384B0074C074A0194041DCDE93F
:10C4D000021300F1260300941946FFF7E5FC04B0AF
:10C4E00010BD00BF9C430208944302082DE9F041AF
:10C4F0000E4686B01746804624214FF42072222033
:10C5000001F0A8FB68B344680546D8F804302670EB
:10C510000026677026716671A671E6711868596801
:10C520009A68DF68A060E1602261676118695969F3
:10C530009A69A06105A8E1612262DB68059300F0B9
:10C540009DF858B10123A670E67005AA0290314605
:10C5500001932846FF23009600F016FA284601F0C2
:10C5600087FD06B0BDE8F0812DE9F0433D4F87B06F
:10C570000546D7F8088098F8004004F00F04A4009E
:10C58000132C13D94389032B10D943681B78082B2C
:10C590000CD1786900F0F003E02B07D00E46396823
:10C5A00000F026FA10B92B89072B05D8284607B0CA
:10C5B000BDE8F04301F05CBD04F10E012846059191
:10C5C00001F054FC0599002841D02B89191989B232
:10C5D0008B42EBD84FF420720E2001F03BFB8146DA
:10C5E0000028E3D0428904F108039A4235D341463A
:10C5F000224640680CF058FD2146484601F088FC70
:10C6000058BB2946484601F099FD30BB28464D46A7
:10C6100001F02EFD214628466C6801F027FC002819
:10C62000C4D16A687B691049D3603B691361FF23F9
:10C630002070A070E0709072D0721372012200908E
:10C64000CDE901260246284600F09EF9AEE72846CD
:10C6500001F05EFC0028DDD0A8E7484601F008FDA7
:10C66000A4E700BF348A0020488A00200A4603213C
:10C670003CE700BF0A460B2138E700BF194B30B436
:10C680001B68ABB193F82D20D407F9D55107F7D526
:10C6900059680029F4D004689D686140294204D09B
:10C6A0009207EDD4DA689442EAD1184630BC70475C
:10C6B0000D4B1B68002BF8D093F82D2002F00502DB
:10C6C000052A08D15A6852B102787F2A08BF002390
:10C6D00030BC18467047002330BC184670471346DC
:10C6E000E3E700BFD8890020DC8900202DE9F8436A
:10C6F000476804463B781A09042A40F09E8003F0FC
:10C700000F0378880E464FEA830901F0E9FF238979
:10C710004D468046834200F296806389AB42C0F06A
:10C720008C8023894345C0F08880132D40F285809A
:10C730003B69DFF88C8103F0F002C8F81430E02A7E
:10C74000F868C8F8100069D096F82D20D20703D5F4
:10C750007268002A40F08A80DBB27F2B62D0574B90
:10C760001D6835B95EE000F043F980B92D68002DF1
:10C7700058D0AE42FAD095F82D30DB07F6D56B686D
:10C78000002BF3D0D8F8140029468342EBD1D8F817
:10C79000100000284DD1FB8823F0C00333B12046A0
:10C7A00000F018FB044600284AD04768C8F8087013
:10C7B00049462046C8E900563B7803F00F039B002A
:10C7C000A8F80C3001F0A4FB7B7A062B6CD0112B5F
:10C7D00065D0012B5ED02946D8F8140000F008F986
:10C7E00068B9D8F8143003F0F003E02B07D04946BD
:10C7F000204601F0E1FB02212046FFF737FF2046EB
:10C8000001F036FC00230020C8E90033C8F80830E6
:10C81000A8F80C30C8E90433BDE8F88396F82D3049
:10C82000D9071ED47B7A112B2AD0D8F8100020B15A
:10C830000025314600F0DCF850B1204601F018FC2C
:10C840000020BDE8F8830146204601F0DFFA64E7E6
:10C85000D8F8103003F0F003E02BEED0002D9AD181
:10C86000EBE77368002BDDD0354692E79342FBD0AF
:10C870001846314600F0BCF8D8B9D8F814306BE748
:10C8800007EB09035B88B3F5884FCED13546002D01
:10C8900081D1D2E731462046FFF766FEB2E7314646
:10C8A000204605F027FAADE73146204603F084FD27
:10C8B000A8E7D8F8100035466BE700BFD8890020FC
:10C8C000348A00202DE9F04F85B09A4605469DF840
:10C8D0003C309DF838B0DDF840800193002A3BD011
:10C8E0000F461421164601F0C1FA019B814600282B
:10C8F00043D16C68452284F808A0637233682270C3
:10C90000236184F801B0288901F0EAFE84F80690DA
:10C9100084F80790DFF86C906080B9F8000001F0AF
:10C92000DFFEB9F80030A0800133A9F80030DFB194
:10C930003B68E3600023A372E372B8F8243013B1BC
:10C940002A899A4213D8D8F81430324629464046EC
:10C95000984705B0BDE8F08F4389132B0DD9436884
:10C9600003AE1B690393E8E7054B1B68E1E732461A
:10C970004146284600F0F0FBEBE76FF00100E8E7E6
:10C98000B84102088E480020F0B4069C9DF8105073
:10C990009DF814601AB109B10F6807B9211D0495FB
:10C9A000CDE90564F0BCFFF78DBF00BFF0B587B0DF
:10C9B000064610461D460C4605929DF83070FFF75E
:10C9C0005DFE9DF8343078B1059A1AB10CB121683A
:10C9D00001B9041D21460097CDE901302B463046B0
:10C9E000FFF770FF07B0F0BD6FF00300FAE700BF7C
:10C9F000431E033314D891F82D3013F002030DD0E9
:10CA00004B6883420FD08A68434013420BD1D34313
:10CA100020EA0200C31AB3FA83F35B091846704791
:10CA200001231846704700231846704708B501F0E7
:10CA30005BFE20224FF0004303E0013A4FEA53032C
:10CA400008D01842F9D12BB15B0803D01842FBD0B3
:10CA5000002008BD012008BD2DE9F04F4C4E87B0E5
:10CA60000378F25C540738D50DF108090DF114086C
:10CA70004F46302B35D00A25421C002403E0A0F19C
:10CA800030041378013216F803C003F10A0E02F1E4
:10CA9000FF3B04FB05301CF0040F0CF0030AEED141
:10CAA000102D0DD11CF0440F0AD0BAF1020F1378EB
:10CAB0000CBF61204120AEEB000E4EEA0414E1E70A
:10CAC0002E2B1AD1474508D09BF801300BF10100FD
:10CAD00047F8044BF25C5207CBD4002007B0BDE806
:10CAE000F08F437803F0DF02582A02D00130082586
:10CAF000C2E7837810250230BEE713B11CF0080F9F
:10CB0000EBD0A7EB09008010013004281DD801A349
:10CB100053F820F0DDCA00084BCB00085FCB0008BB
:10CB200071CB000829CB0008FF2CD6D80298FF282B
:10CB3000D3D8039BFF2BD0D8049AFF2ACDD81B044F
:10CB400043EA006343EA02231C430191F1B120460A
:10CB500001F0CAFD0199034601200B60BEE7B4F164
:10CB6000807FBAD2029BFF2BB7D844EA0364ECE77C
:10CB7000B4F5803FB1D2029AFF2AAED8039BFF2BB7
:10CB8000ABD81B0443EA02631C43DEE70120A5E7A0
:10CB9000B143020800B583B001A9FFF75DFF20B9DA
:10CBA0004FF0FF3003B05DF804FB019803B05DF86F
:10CBB00004FB00BF2DE9F04F83B0036888460026D0
:10CBC0000DF104090DF1080A2B4F2E20019319F8DD
:10CBD00001CB4FF0000BA7FB0C43DE460BF1010429
:10CBE00065464FEAD30B092D0BEB8B03ACEB4303EC
:10CBF0005FFA8BFC0DF1080B03F13003F34403F0F3
:10CC0000FF030BF8083C5FFA84FBE4D809F801CC79
:10CC1000BBF1000F2DD0B24227DD4546A2EB060C3A
:10CC200001364444C644E044761B03E045451CD02D
:10CC300013F8083C05EB060C05F8013BAEEB0503C9
:10CC40000DF1080BAC42DBB25B44EFD194450CF123
:10CC500001060ADAA046D14508F8010BB7D1002336
:10CC60000846237003B0BDE8F08F002003B0BDE894
:10CC7000F08FB4464446E9E7CDCCCCCC1022014934
:10CC8000FFF798BF9048002010B50446406908B1EE
:10CC900001F0EEF921460520BDE8104000F010BF7C
:10CCA0002DE9F0414568074688466B689A880AB3C3
:10CCB000002600E0636828461C6801F0DDF90346A1
:10CCC0002846254633449EB201F0D2F9002CF1D11A
:10CCD000164C0420394623689F423B6814BFC8F8AD
:10CCE0000030236000F0ECFEA38830469B1BA3803D
:10CCF000BDE8F0811A68C468426082687969006999
:10CD0000D9600121986028461A605C60BA691A618E
:10CD1000FFF7B0FC284601F0AFF90646284601F0BF
:10CD2000A7F97D68002DD3D06B68C4E7A048002028
:10CD30002DE9F8430027DFF8688005460E46D8F84D
:10CD40000030F3B10024D5F80CE02146A44620467B
:10CD50005A69724518D0013420B193F81F90C27FF0
:10CD6000914501D8614618461A689C461346002A28
:10CD7000EED110B1FFF794FF0744B74201DA012C5E
:10CD8000DDDC3846BDE8F8839A69D5F810904A454D
:10CD9000E1D1B3F80C90AA889145DCD1E4E700BF5B
:10CDA000A048002038B50A4B186840B10024C37F62
:10CDB0005A1E2BB10446C27700680028F7D138BD4F
:10CDC00005682146FFF76CFF28460028EFD1F6E7FB
:10CDD000A04800202DE9F04F476883B005463B7816
:10CDE00003F00F03052B6DD1F88801F079FC824622
:10CDF000788801F075FC3B7803F00F03B0EB830FEC
:10CE00004FEA83065ED3DFF84C93861B284601F079
:10CE100033F9B9F80430B6B2804603440A2B47DC34
:10CE2000D9F80040002C00F0C180FA6803E02468C3
:10CE3000002C00F0BB8063699342F8D13B69A16983
:10CE40009942F4D1A189BB889942F0D1F88801F0C8
:10CE500047FCC0F30C00002800F09580FB88CAF363
:10CE60000C0A13F020034FEACA07009307D1BB193D
:10CE70009BB29F4212D84FF6EB7293420ED8D5F870
:10CE800004B0BBF8020001F02BFC9BF8002002F07C
:10CE90000F02B0EB820F4FEA82031BD263688BB99B
:10CEA000D9F80020944200F0968022681A60FFDED4
:10CEB00001463846FFF73CFF20B1B9F8043043443F
:10CEC0000A2BADDD2846002601F0D2F8304603B02B
:10CED000BDE8F08FC31ABBF806001FFA83FA01F011
:10CEE000FFFBC0F30C00D5F804B0C2000AEB02034C
:10CEF000ABF80420ABF806309BB21946019300232F
:10CF00008A428BF800308BF801308BF802308BF8B6
:10CF10000330C3D86168002900F0AE804FF0010AE9
:10CF200094460DE0CED0B3F806E0F445CAD322B162
:10CF3000D288824218BF4FF0000A1968002960D0D9
:10CF40001A464B6898888445ECD21346CBF80010FB
:10CF500062469C46002B7AD0DB889A42B2D3019974
:10CF60008142AFD89A42CCF800504DD0009B002BA4
:10CF700076D0A37FDB074FD4B9F80430002698445D
:10CF8000A9F80480A2E7E08901F0AAFBC0F30C0035
:10CF900000283FF463AF3B687868B968FA68A3601B
:10CFA000E060216162613B69A36157E7042000F002
:10CFB0005BFD0446B8B10023E361A360E360236135
:10CFC0006361A3616360D9F80030C9F80040236051
:10CFD0000F23E377DFE7236821460420C9F80030F8
:10CFE00000F06EFD6EE741463846FFF7A1FE804532
:10CFF0003FF768AF042000F037FD04460028DAD17F
:10D0000060E7F4451D60B1D1009B7BB1A37FD907D8
:10D01000B2D5BAF1000F37D1B9F804309844A9F865
:10D0200004800026304603B0BDE8F08FBAF1000F4F
:10D0300016D06368A3B15B689B884BB3B9F8043022
:10D040009844009BA9F80480002BEAD10DE0019BD5
:10D0500083423FF637AF6560D6E7BBF80430BBB11B
:10D06000B9F804309844A9F80480A37F3E4443F003
:10D070000103A683A377D4E7009B6560002BECD067
:10D08000A37FDA077FF578AF6368002BC4D0D2E7BF
:10D09000DBF800204AB1019900E0D98853689A88EA
:10D0A0008A42CBD11A68002AF7D1B9F804309844E3
:10D0B000009BA9F80480002B4AD1A37FB81943F044
:10D0C000010380B2A377A08363681430E7685E68C9
:10D0D00080B2A36821696269356877603360B160A6
:10D0E000F260A369336101F0FBFA00237080B37131
:10D0F000F371B372F37266685DB16F6828461421EC
:10D1000000F006FF2946304600F0CEFF3D68002DB6
:10D11000F3D1D9F80030A34207D0002B3FF4C5AEBD
:10D120001A68A24211D01346F7E72368C9F8003005
:10D130002146042000F0C4FC304600F09DFFB9F801
:10D140000430181AA9F80400C0E622681A60EFE754
:10D15000A08BB9E7A04800202DE9F04F8B8C8DB053
:10D16000D0F8049005460A92B3F11402079148BF23
:10D17000A3F10D02C2F3CF03069399F8003003F038
:10D180000F03052B4FEA830740F0BD804389132B23
:10D1900040F2B980B9F8060001F0A2FA2B89C0F379
:10D1A0000C02143B059200F400529BB20B920393C5
:10D1B000002B00F09180069B0024DB009BB20893BB
:10D1C0004FF4207214210E2000F044FD089B039AB6
:10D1D0008046934228BF13460493002800F09080B5
:10D1E0004368D9F80020D9F80460D9F80800D9F8C4
:10D1F0000C101A605E609860D960D9F810201A612E
:10D20000049BD8F804200992002B32D002936C8939
:10D210000520029BE41BA4B29C4228BF1C46002CA4
:10D220005CD000F021FC8246412221460020BAF168
:10D23000000F5AD0019453466E6806EB070CCDF8E8
:10D2400000C000F0C7FD83462846BBF1000F48D060
:10D2500000F01CFF2D4B59464046CAF81030CAF862
:10D26000145000F021FF029B1E1BB3B20293002B4F
:10D2700034D1079B2744059A9B8CBFB2C2F30C00A4
:10D28000039A133B934238DD0B9B002B35D101F001
:10D2900027FA099E049BF08003F1140080B201F08C
:10D2A0001FFA00237080414607980A9AB372F372FE
:10D2B00043699847404600F0DBFEDDE90323A2EB1B
:10D2C000030BDDE9053213441FFA8BF29BB2039284
:10D2D0000593002A7FF474AF00200BE02D6800272F
:10D2E00095E75146052000F0EBFB404600F0C0FEFC
:10D2F0004FF0FF300DB0BDE8F08F40F40050C6E7AE
:10D300004FF0FF30F6E76FF00500F3E789CC000837
:10D3100000F0AEBE294C00B5204683B0FCF7D2F831
:10D3200063680BB1A0689847244D05F10C0610E026
:10D3300068B12846FCF7CCF8224601A93046FCF734
:10D3400007F904462846FCF7BDF8013411D101F075
:10D350007FF901F0B3F9431C0446E9D12846FCF7F4
:10D36000B7F8002201A93046FCF7F2F82846FCF78E
:10D37000A9F8019C002CECD02378012B11D0022BB2
:10D380000BD0002BE5D16068D4E90213984780B92F
:10D390002146092000F094FBDBE7D4E901309847EF
:10D3A000D7E7D4E9013098472146082000F088FBF0
:10D3B000CFE7606800F05CFEEAE700BFA848002005
:10D3C000F8B5074609200E46154600F04DFB90B112
:10D3D0000446002347600146866003700748E56005
:10D3E000FCF796F800B9F8BD2146092000F068FB6B
:10D3F0004FF0FF30F8BD4FF0FF30F8BDB4480020CB
:10D40000F8B591F82D3007460C46092013F01805A1
:10D4100015D000F029FB054628B30022134B014626
:10D42000C0E9017412482A70EB60FCF771F8A0B1F2
:10D430002946092000F044FB4FF0FF30F8BD00F012
:10D4400013FB064678B10B4B014605704760084850
:10D45000C6E90243FCF75CF808B90020F8BD314684
:10D46000092000F02DFB4FF0FF30F8BD85220108A8
:10D47000B4480020EDC6000838B5054608200C4623
:10D4800000F0F2FA48B101460122C0E90154044813
:10D490000A70FCF72FF8002038BD4FF0FF3038BD80
:10D4A000B448002070B5064608200D4600F0DCFAAE
:10D4B00088B1044601230146C0E90165074823708D
:10D4C000FCF726F800B970BD2146082000F0F8FAF4
:10D4D0004FF0FF3070BD4FF0FF3070BDB4480020FA
:10D4E00070B5064E0D4604463046FBF7EBFF284666
:10D4F000A0473046FBF7ECFF002070BDA848002095
:10D5000070B5074E0D4604463046FBF7DBFF284654
:10D51000A04704463046FBF7DBFF204670BD00BF46
:10D52000A848002038B5054608200C4600F09CFAB3
:10D5300018B10223C0E90154037038BD0146082028
:10D5400000F0BEBA01460148FBF7E2BFB448002034
:10D5500001460148FBF7ECBFB448002070B50D4C04
:10D5600082B006460D4600F05BF8062104F10C007F
:10D57000C4E90165FBF7B0FF20462024FBF794FFC8
:10D580004FF400630022044900940448FBF776FF3F
:10D5900002B070BDA848002015D30008BC410208A5
:10D5A00038B50546082000F05FFA90B101220A4B19
:10D5B000044601468560027043600848FBF7A8FFF7
:10D5C00000B938BD2146082000F07AFA4FF0FF304C
:10D5D00038BD4FF0FF3038BD11D30008B4480020EB
:10D5E00038B50546082000F03FFA90B101220A4BF9
:10D5F000044601468560027043600848FBF788FFD7
:10D6000000B938BD2146082000F05AFA4FF0FF302B
:10D6100038BD4FF0FF3038BD7DD60008B44800203B
:10D6200008B5FBF729FF00F00DF800F0DDF901F077
:10D630003FF904F053FB03F08FFBBDE8084000F016
:10D64000C3BF00BF0B4B00200B4A23F0030330B4D1
:10D650004FF4805518714FF01024012059191D60A6
:10D660009360087102F10C000C6030BCC2E900311B
:10D67000FBF71ABFCB480020B848002000287AD01A
:10D680002DE9F843830704460AD13F4DA0F108066F
:10D690002B68B34204D800F10C036A689A420AD29C
:10D6A000EFF3108372B6BFF34F8FBFF36F8F03B9E1
:10D6B00062B6BDE8F88305F10C00FBF703FF14F830
:10D6C000043C002B5CD034F8063C34F8080CB3F56D
:10D6D000805F51D8B0F5805F4ED82A68A6EB020C67
:10D6E00002EB03081FFA8CFC9C4502D0D15A61451D
:10D6F00042D11118D5F80490494502D04F886745AA
:10D700003AD1AF684FF0000EB74204F804EC88BF7E
:10D71000AE608E4215D00F799FB9494511D0AF68E0
:10D72000B942115A24F8081C115A08BFAE60B1F56D
:10D73000805F06D01144A1F802C034F8063C02EB29
:10D740000308464512D098F8041079B9A9688E42AA
:10D7500034F8081CA8F8001034F8081C08BFC5F8F5
:10D760000880B1F5805F01D00A4453800748BDE8C6
:10D77000F843FBF7ADBE70470448FBF7A9FE8FE7FF
:10D7800005F10C00F9E700BFB8480020C4480020AC
:10D79000CB1C23F003039BB20C2B2DE9F0411E465A
:10D7A00038BF0C2682B0B142019056D8B3F5805FE5
:10D7B00094BF00230123002B4FD1384F04463A6811
:10D7C00082423CD87968814239D9A0F1080830F802
:10D7D000085CA8EB0208083D1FFA88F8A5EB0805CD
:10D7E000ADB2B54257D326D007F10C00FBF76AFE65
:10D7F00034F8082C3B6899180879002831D1985AD8
:10D8000008F108021644BA68B6B28A424FF0000125
:10D8100003EB060208BFBA601080A2F80280117103
:10D8200024F8086C1288B2F5805F01D013445E8042
:10D830001B48FBF74DFE204602B0BDE8F081EFF338
:10D84000108372B6BFF34F8FBFF36F8F002BF2D1EF
:10D8500062B6204602B0BDE8F081002002B0BDE80B
:10D86000F08106F11401A942E2D808F10801B86874
:10D870000E44B6B2991988424FF0000008719A53CD
:10D88000A1F8028024F8086C9A5B88BFB960B2F5F1
:10D89000805FCBD1CCE71846DCE700BFB84800205A
:10D8A000C448002000285FD02DE9F843C31C23F0B2
:10D8B00003039BB20C2B1E4638BF0C26864230D386
:10D8C000B3F5805F2DD8304FC6F5805507F10C00B9
:10D8D000FBF7F8FDD7F808903968A9EB010C1FFA9F
:10D8E0008CF3AB429C4616D26FF0070808E031F883
:10D8F00003E072447346B24216D29D42F4460AD9FE
:10D90000CC18A8EB030220790028F0D031F803C02E
:10D9100063469D42F4D81D48FBF7DAFD0020BDE8C0
:10D92000F8830020BDE8F88306F114039A421CD363
:10D9300006F10803012563449BB2CA18107121F84F
:10D9400003E0A2F802C025712380CA5AB2F5805FB5
:10D9500001D00A445380A1450AD00C48FBF7B8FD1A
:10D9600004F10800BDE8F883704701232371F2E752
:10D970007868234603E01B880B441A790AB1984261
:10D98000F9D1BB60E9E700BFB8480020C4480020D7
:10D9900038B501FB00F4A3B29C420AD11846FFF748
:10D9A00081FF054618B1224600210BF093FC284662
:10D9B00038BD0025284638BD30B400214588D0E95F
:10D9C0000134216075B10333B0F800C00A4623F07A
:10D9D0000303013203EB0C0019601946AA422360CD
:10D9E0000346F6D130BC7047F0B5134B0425DFF881
:10D9F0004CE0002703F184040EF13006AEF10C0276
:10DA00000333276023F0030365B10021B2F800C09F
:10DA10000A46013203EB0C0019601946AA42236042
:10DA20000346F6D1764505D05EF8042FD2E90134DD
:10DA30005588E5E7F0BD00BFDC580020D84102085A
:10DA400080B1EFF3108272B6BFF34F8FBFF36F8FC9
:10DA50008368186820B10168196002B962B670471E
:10DA6000002AFBD0002070470C2814D80B4B03EB86
:10DA70008000C368EFF3108272B6BFF34F8FBFF31D
:10DA80006F8F9B68186820B10168196002B962B68F
:10DA90007047002AFBD00020704700BFCC4102082D
:10DAA00068B161B1EFF3108272B6BFF34F8FBFF36D
:10DAB0006F8F836818680860196002B962B6704792
:10DAC0000C2811D881B1094B03EB8000C368EFF338
:10DAD000108272B6BFF34F8FBFF36F8F9B681868C9
