:020000040804EE
:1000000000000100FFFFFFFF01000100A5A5A5A55D
:100010007765627365727665722E62696E000000A4
:1000200000000000000000000000000000000000D0
:1000300000000000000000000000000000000000C0
:1000400000000000000000000000000000000000B0
:1000500000000000000000000000000000000000A0
:1004000000000820C1060408BD060408BD06040853
:10041000BD060408BD060408BD060408000000006F
:10042000000000000000000000000000F137050897
:10043000BD06040800000000893805089938050841
:10044000BD060408BD060408BD060408BD06040870
:10045000BD060408BD060408BD060408BD06040860
:10046000BD060408BD060408BD060408BD06040850
:10047000BD060408BD060408BD060408BD06040840
:10048000BD060408BD060408BD060408BD06040830
:10049000BD060408BD060408BD060408BD06040820
:1004A000BD060408BD060408BD060408BD06040810
:1004B000BD060408BD060408BD060408BD06040800
:1004C000BD060408BD060408BD060408BD060408F0
:1004D000BD060408BD060408BD060408BD060408E0
:1004E000BD060408BD060408BD060408BD060408D0
:1004F000BD060408BD060408BD060408BD060408C0
:10050000BD060408BD060408BD060408BD060408AF
:10051000BD060408BD060408BD060408BD0604089F
:10052000BD060408BD060408BD060408BD0604088F
:10053000BD060408411C0408BD060408BD060408E5
:10054000BD060408BD060408BD060408BD0604086F
:10055000BD060408BD060408BD060408BD0604085F
:10056000BD060408BD060408BD060408BD0604084F
:10057000BD060408BD060408BD060408000000000E
:10058000BD060408BD060408BD060408BD0604082F
:10059000BD060408BD060408BD060408BD0604081F
:1005A0000000000000000000BD060408BD060408AD
:1005B000BD060408BD060408BD060408BD060408FF
:1005C000BD060408BD06040800000000BD060408BE
:1005D000BD060408BD060408BD060408BD060408DF
:1005E000BD060408BD060408BD060408BD060408CF
:1005F00000000000BD06040800000000000000002C
:1006000010B5054C237833B9044B13B10448AFF34C
:1006100000800123237010BDE80A002000000000C4
:1006200068FC050808B5034B1BB103490348AFF349
:10063000008008BD00000000EC0A002068FC0508EE
:10064000A3F5803A704700BF174B002B08BF134B30
:100650009D46FFF7F5FF00218B460F461348144ACD
:10066000121A13F045FD0E4B002B00D098470D4B8E
:10067000002B00D098470020002104000D000D48F9
:10068000002802D00C4818F073F813F0C5FB2000C6
:10069000290000F0DBF813F0AFFB00BF00000800FA
:1006A000000000007117040800000820E80A00207C
:1006B000BC0E012071870508619A0508FEE700BF9E
:1006C000214B83F30888BFF36F8F00F07FF81F4C36
:1006D0001F4BA34215D29C46DCF808306BB10023B7
:1006E000DCE900120439043A51F8040F013342F8EE
:1006F000040FDCF808008342F6D30CF10C0CA4457F
:10070000EAD3144A144B9A421CD203F1FF3C02F183
:10071000100302F108000024ACEB020C2CF0070CD3
:100720009C4450F8043C53B150F8082C0023043A80
:10073000013342F8044F50F8041C8B42F8D30830C0
:100740006045EED1FFF780FF000008208CFC050813
:1007500074FC05088CFC05089CFC0508164A936887
:1007600003F00C03042B0CD0082B0CD0134B124AB3
:10077000134892681349C2F30312825CD3400B60A2
:100780007047114BF3E7536851685B0253680A4A9C
:1007900001F03F0148BF0C48C3F3881358BF074816
:1007A0005268B0FBF1F1C2F3014201FB03F30132E5
:1007B0005200B3FBF2F3DAE7003802400024F40001
:1007C0000CE2050864000020002D3101064B074AA9
:1007D00007499A60D3F88820064842F47002C3F8AB
:1007E00088200860FFF7BABF00ED00E000040408AD
:1007F0006400002000C2EB0B0EF050BE08B5104B99
:100800000521186811F05EF80E4B4FF4405240F28B
:1008100077109A6111F0FCF8002001F05FFC0A48A3
:1008200013F02AFD002001F0BDFB002001F0B6FC12
:10083000002001F06BFF12F02BFA12F0E1FAFAE758
:10084000040B00200004024024E2050810B5114CFE
:100850008AB000F079FA01F0F3FB201D0EF0C6FD1E
:1008600012F064FE2422002101A813F041FC4FF491
:10087000805301AA00210848069312F0D1F9002301
:10088000012106481A4610F0E3FF206012F0AEFE88
:10089000FEE700BF040B0020FD070408F907040869
:1008A00010B50C4600F040FB50B96388C3F30B034E
:1008B000012B06D0032B03D194F90C30002B01DB64
:1008C000012010BDE4782409204600F09FFC054B70
:1008D00004EB8401204603EB810100F0ABFC012016
:1008E00010BD00BF44E20508012804D0022805D04D
:1008F000032806D07047002000F0F8B8024800F046
:10090000F5B8024800F0F2B8BCE2050844E2050878
:1009100010B5254C0020214600F08CFC00226FF021
:1009200060431221104600F053FB04F11401012032
:1009300000F080FC6FF0604300221221012000F0E3
:1009400047FB04F12801022000F074FC6FF06043C3
:1009500000221221022000F03BFB04F13C010320A5
:1009600000F068FC6FF0604300221221032000F0C9
:100970002FFB04F15001042000F05CFC6FF0604399
:1009800000221221042000F023FB04F16401052061
:1009900000F050FC6FF06043002212210520BDE8FA
:1009A000104000F015BB00BF44E20508BFF34F8FB5
:1009B0000549064BCA6802F4E0621343CB60BFF3FB
:1009C0004F8F00BFFDE700BF00ED00E00400FA0517
:1009D000704700BF074A4FF4C0214FF4FA6391619A
:1009E00000BF013BFCD1BFF35F8F024B4FF400020D
:1009F0009A61704700240240124A80214FF4FA6342
:100A0000916100BF013BFCD10E4A06214FF47A737D
:100A1000916100BF013BFCD1BFF35F8F0C224FF00F
:100A2000C8404FF080714FF4C873016100BF013BB3
:100A3000FCD14FF4C873816000BF013BFCD1013A87
:100A4000F1D170470024024008B5054A4FF48001F7
:100A500041F28833916100BF013BFCD1FFF7A6FF53
:100A600000180240014698B10A4A0620D36CC3F32D
:100A70000B030B605063936843F0804393601368EB
:100A80009B07FCD5D36C0020C3F30B030B607047AE
:100A90000120704700210140024640B1054B002073
:100AA0001B696FEA131303F00F03136070470120F3
:100AB000704700BF0028024028B102684FF0C843C9
:100AC00000209A6570470120704700BF024640B180
:100AD000054B00201B696FEA133303F00F031370FB
:100AE00070470120704700BF0024024008B50D493F
:100AF00001220D4B4FF4800504460C488D610C49D2
:100B00001A60202214F00AF878220021094813F014
:100B1000EFFA24B178222146064813F0D3F9FFF703
:100B200045FF00BF0018024000FF012004FF012024
:100B300034E3050824FF0120082800F2A780DFE83D
:100B400000F00E050505050505251F000138C0B29A
:100B5000032900F29D80DFE801F0464E565E10B496
:100B60004C4A4FF400744C4B4FF4004002299461FE
:100B7000986120D003290FD0012917D0002012E05E
:100B800003291DD8DFE801F071784F59032917D8E0
:100B9000DFE801F05A6118224FF000744FF0004175
:100BA0000020946199615DF8044B70474FF0007329
:100BB00000209361F7E74FF0004200209A61F2E7CE
:100BC000002070474FF0C8434FF400114FF48012DB
:100BD000002019619A6070474FF0C8434FF44012EB
:100BE00000201A617047C3022C4A4FF42061002094
:100BF0001A4411607047C302284A4FF41061002064
:100C00001A4411607047C302244A4FF4C0610020A7
:100C10001A4411607047C302204A4FF4A0610020BB
:100C20001A44116070474FF0C8434FF400014FF46D
:100C30008002002019619A6070474FF0C8434FF45A
:100C4000400200201A6170474FF0C8434FF4401231
:100C500000209A6070474FF0C8434FF480114FF462
:100C60000012002019619A6070474FF0C8434FF49A
:100C7000400200209A6070474FF0C8434FF4800153
:100C80004FF40002002019619A60704702207047FB
:100C90000120704700240240000402400008006464
:100CA0004FF0C843254AD3F8201803F5805C03F5BC
:100CB000005001F00F01515C090741F0404110B4B0
:100CC000C3F8201803F54053DCF820101C4C01F049
:100CD0000F01515C090741F04041CCF82010DCF8CD
:100CE000201801F00F01515C090741F04041CCF898
:100CF0002018016A01F00F01515C090741F04041E1
:100D00000162D0F8201801F00F01515C090741F091
:100D10004041C0F820184FF48030196A01F00F01EB
:100D2000525C120742F040421A624FF08072054B4B
:100D3000A0615DF8044B9A61704700BF48E3050865
:100D4000002802400020024008B500F03DFB00F002
:100D5000F7FC002008BD00BF642303FB00F020B1B6
:100D6000002300BF01339842FBD1704709B3052827
:100D70001FD8C00200F1C843D3F80838DB072CD5D0
:100D80004B88C3F30B02012A10B414D0B3F5805F73
:100D900025D041F2020293421DD118305E4B5F4CC8
:100DA0000431C218C4500B68002013605DF8044B76
:100DB000704704207047CB8ADA0720D4DC0640F164
:100DC00093800B7D564A1B0932F81320930842F09A
:100DD0008052013B15E00320E8E702207047CB89F1
:100DE000DA077DD4DB0640F18A800B7B4C4A1B0975
:100DF00032F81320930842F08052013B72E0042342
:100E0000484A0C311830444C013B02510219132B53
:100E100000F280800FF2040C5CF823F0A70D0408A8
:100E2000D90E0408D30E0408CD0E0408C70E04081A
:100E3000C10E0408BB0E0408B50E0408AF0E04086A
:100E4000A90E0408A30E04089D0E0408970E0408BA
:100E5000910E04088B0E0408850E04087F0E04080A
:100E6000790E0408730E04086D0E040851F8043B53
:100E7000035151F8043B035151F8043B035151F81D
:100E8000043B035151F8043B035151F8043B035117
:100E900051F8043B035151F8043B035151F8043B12
:100EA000035151F8043B035151F8043B035151F8ED
:100EB000043B035151F8043B035151F8043B0351E7
:100EC00051F8043B035151F8043B035151F8043BE2
:100ED000035151F8043B035151F8043B035162E7BD
:100EE0000423104A04318DE70A7D0D4B120903EBF0
:100EF00042031A8C930842F08052013B81E70A7B3F
:100F0000074B120903EB42031A8C930842F08052FC
:100F1000013BE7E7002049E70008006408000210F1
:100F200058E3050814000010002947D04FF0C843CB
:100F3000DA69BFF34F8F9B69BFF34F8FD8071FD577
:100F40001F4B10B41A78EAB91E4AD164BFF35F8F01
:100F5000116C3F24072041F0010111641821D46075
:100F6000C2F88400184C5167012118489467106733
:100F70001970136CD907FCD400205DF8044B70473E
:100F8000012070470F4AD167BFF35F8F116F4FF495
:100F90007C14072041F0010111671821946050650D
:100FA000094C516400210948946410641970136F4E
:100FB000DB07FCD400205DF8044B70470420704729
:100FC000180B002000640240800000648056A000DE
:100FD000052868D89A4266D8B3F5006F63D22DE928
:100FE000F043364E4FEA801E012700E00A460EEB22
:100FF000521402F01F0C12F0070F02F1010106EB70
:10100000840407FA0CFCB146F0464ED065688B426A
:101010004CEA05056560E9D20832934227D3FF27E1
:1010200008EB511601F01F040A46083109EB860649
:1010300007FA04F40F327568934244EA05047460B9
:10104000EED2994213D8DFF874904FEA8018012647
:1010500008EB511401F01F02013109EB840406FA78
:1010600002F28B42656842EA05026260F0D2020237
:10107000134BC10203F1FC0C101F01F1C841944451
:101080000344002242F0060453F8040FC1F810484C
:10109000BFF34F8F9C4502F18072C1F81408F1D163
:1010A0000020BDE8F08304207047D11D8B4211461B
:1010B000C7D3DFF808904FEA8018B0E7180B00207C
:1010C0001C0B002005286CD89A426AD8B3F5006F33
:1010D00067D22DE9F0438146374F86014FF0010872
:1010E00000E00A4606EB521402F01F0C12F0070F44
:1010F00002F1010107EB840408FA0CFC3D46B646F8
:1011000051D060688B4220EA0C0CC4F804C0E8D2CD
:101110000832934227D34FF0FF0C0EEB511401F02D
:101120001F060A46083105EB84040CFA06F70F3255
:101130006668934226EA07066660EED2994212D8A4
:101140001D4D4FEA891E01270EEB511201F01F04BD
:10115000013105EB820207FA04F68B42546824EA57
:1011600006045460F0D24FEA0922144B4FEAC92119
:10117000101F03F1FC0C01F1C84194440344002208
:1011800042F0060453F8040FC1F81048BFF34F8F24
:101190009C4502F18072C1F81408F1D10020BDE82D
:1011A000F08304207047D11D8B421146C6D3024DF7
:1011B0004FEA891EAFE700BF180B00201C0B002070
:1011C00005281FD8104B0202C00203F1FC0C111FAE
:1011D00000F1C840944400220B4430B500F6140ED0
:1011E0001546144642F0060143F8045FC0F8101893
:1011F000BFF34F8F634502F18072CEF80040F1D10A
:10120000002030BD042070471C0B002005280ED89C
:101210000203C00242F0010200F1C843C3F81028E3
:10122000BFF34F8F00221046C3F8142870470420E4
:10123000704700BF052872D8B1FA81F35B09002915
:101240006DD04FEAC02C020342F001000CF1C842FD
:1012500010B5C2F81008BFF34F8F4020C2F8143801
:10126000C2F800084FF4FA7000BF0138FCD1D2F880
:1012700008389B07F6D58023494CC2F800380B6824
:10128000A34212D0474CA3427ED0474CA3427FD00A
:10129000464CA34245D0464CA3427DD0454CA34288
:1012A0003BD13123C2F8003802E03223C2F80038C3
:1012B0004B7A0CF1C84E8A7A013B120442EA03626F
:1012C0008B885C1ECB8842F00402013B1B0243EA80
:1012D00004430C7ACEF81028013C2343BFF34F8F10
:1012E000CEF814388A7C0B7CCC89013A013B013C56
:1012F00012061B0242F0050243EA04434C7CCEF87E
:101300001028621E1343BFF34F8FCEF814380B7BA7
:10131000012B29D0022B08D0F3B1052010BD0420E9
:1013200070472923C2F80038C2E7234BCEF81038A3
:10133000BFF34F8F0023CEF81438CB7A0CF1C84C92
:10134000002B14BF03230223CCF81038BFF34F8FB8
:101350000023CCF8143810BD184ACEF81028BFF37B
:101360004F8FCEF81438E8E7154BCEF81038BFF39E
:101370004F8F0023134ACEF81438CEF81028BFF34D
:101380004F8FCEF81438D8E72123C2F800388FE702
:101390002523C2F800388BE72D23C2F8003887E7F1
:1013A00000B4C40400879303005A620280C3C901D9
:1013B00000366E01002D31010B0014000C001400EA
:1013C0000B0004000C001000094B002009494FF4E9
:1013D0007C1210B4087007249A6018200649074A46
:1013E0005C6558645DF8044B99641A64704700BFEB
:1013F00000640240180B0020800000648056A000AA
:101400001A4B9A6912F0300F05D03021D9619A69D0
:1014100012F0300FFAD1164B14491B7843F00073C9
:101420004B60BFF34F8F4A680020124B42F40052CA
:101430004A608A6912F0100F0DD010B44C68012078
:1014400044F480444C60013B0AD0920609D48A6976
:10145000D406F8D5F2E7013B06D09206E9D57047ED
:1014600004205DF8044B704704207047005400408E
:101470001C110020A086010010B5FFF7C1FF002855
:10148000FBD1274B9A6912F0220F05D02221D96196
:101490009A6912F0220FFAD1224C214AD4E9013183
:1014A000DB0B023103F00E0343F0A00343EA0141DA
:1014B00023705160BFF34F8F536843F40053536060
:1014C00093699907FCD560681549C0F307239362B7
:1014D0008B699A07FCD5C0B2A36888626BB11249C8
:1014E0000F4A0B44083103F1080093699B07FCD5B0
:1014F00011F8013F81429362F7D1094A9369590675
:10150000FCD500235360BFF34F8F4FF48043044951
:1015100053608B699B06FCD50023237310BD00BF6D
:10152000005400401C11002020110020002A00F06F
:101530009A80B0F5002F2DE9F047064680F08280B2
:1015400083189146B3F5002F7CD80C46002979D03A
:10155000464D2B7B002B7FD1A0466627444CC144CF
:101560006B68B34203D8F31AAA68934260D32B7B0B
:1015700026F07F0A002B68D18023C5E901A3FFF77D
:101580003FFF0028FBD1A36913F0660F04D0E76189
:10159000A36913F0660FFAD14FEADA3303F00E03B2
:1015A00043F0A00343F400322B706260BFF34F8F0F
:1015B000636843F400536360A3699807FCD56A68C5
:1015C000C2F30723A362A3699907FCD5D3B2A36230
:1015D000A3695B06FCD5D30B264A03F00E0343F048
:1015E000A0031A432B706260BFF34F8F6268AB6831
:1015F00042F40052012B62600CD91F4A1344083296
:1016000003F10801A3695807FCD5636A02F8013F9A
:101610008A42F7D100236360BFF34F8F4FF48043BA
:101620006360A3699B06FCD56B680022F31A2A73DA
:101630002B4401365B7B08F8013BC84590D1002064
:10164000BDE8F0870220BDE8F087AB6813B1FFF773
:1016500013FF91E72B738FE7AB6813B1FFF70CFF14
:101660007AE72B7378E70220704700BF1C11002037
:10167000005400400004800020110020002A40D0C7
:10168000B0F5002F2DE9F041044632D200EB0208FC
:10169000B8F5002F2DD80E4659B31C4D01270DE08B
:1016A000AB68BBB1FFF7E8FE2B7B9BB1D5E901230B
:1016B0001A44A24227D00134A04517D06A6844F0EA
:1016C0007F0342F07F018B4201D1A24214D92B7BD0
:1016D000002BE5D1012200236C602F7301342B44D1
:1016E000AA60A04516F8012B5A73E7D10020BDE887
:1016F000F0810220BDE8F081AB681A44A242D3D247
:10170000E5E7022070475A1CE8E700BF1C110020E3
:1017100010B50A4C237B43B1A36833B1FFF7ACFE8D
:10172000FFF76EFE18B9A06010BD00232373FFF70A
:1017300067FE0028FBD1A06010BD00BF1C11002077
:10174000044B00224FF0FF30A0211A731970C3E937
:10175000010255E61C110020FEE700BF012800D061
:10176000FEE7024808B512F025FDFEE798E30508FC
:1017700011F0DCBE00EB800010F04AB908B511F0A2
:10178000D5FF024BA3FB0030800808BDCDCCCCCCEC
:1017900008B511F0CBFF024BA3FB0030800808BD59
:1017A000CDCCCCCC704700BFF0B58BB016460D4603
:1017B00004462022002102A81F4612F099FC109B2B
:1017C00001AA3146284606970194079311F028FA9A
:1017D0000BB0F0BD10B5044604480FF0EBFDB0FAB5
:1017E00080F320605B09584210BD00BFB0E40508DB
:1017F0004FF0FF3100680FF011BE00BF00680FF01E
:101800002BBE00BF0B460022042110B5044618462B
:101810000EF04AFCB0FA80F320605B09584210BD1C
:1018200010B582B00C464FF0FF33002201A90068CA
:1018300001940EF071FC02B010BD00BF10B5002382
:1018400082B00C46006801A91A4601940EF064FCAF
:10185000003818BF0120404202B010BD10B500236F
:1018600082B00C46006801A91A4601940EF054FC9F
:10187000003818BF0120404202B010BD10B50C4620
:1018800082B06AB102EB820301A9002200680EF067
:1018900091FC02300CD0019B0020236002B010BDEF
:1018A0004FF0FF3301A900680EF084FC0230F2D142
:1018B0004FF0FF3002B010BD10B5002204460120E9
:1018C0000FF0A8FA18B103460020236010BD4FF0B6
:1018D000FF3010BD00680EF021BD00BF00680FF0A2
:1018E00011BB00BF00680FF065BB00BF10B500233F
:1018F00082B00C46006801A91A460EF05BFC18B9CC
:10190000019B236002B010BD4FF0FF3002B010BD4C
:1019100008B549B101EB810100680FF0B3FA003856
:1019200018BF0120404208BD4FF0FF3100680FF0A2
:10193000A9FA003818BF0120404208BD00680FF026
:10194000BFBD00BF2C4B2DE9F04FDC6A83B08B4646
:10195000A36800294DD0002640F2F459B046226811
:10196000002A1BDBBBF80A2095194D453CD90027FE
:1019700002E04D45A36821D9A9EB060ADBF8041063
:10198000981900263944524612F09CFAE468A5F2F0
:10199000F45557442368D044B342EADA6FF00700A5
:1019A000154B1B6803F580535A69920603D5202115
:1019B000002259615A6003B0BDE8F08F18462E46E8
:1019C000DBF804102A460193A844394412F07AFA4D
:1019D000DBF800B0019BBBF1000FC0D141460648C7
:1019E0000CF0CAF90020DBE7981900272E461546AF
:1019F000E6E78846F2E700BFAC1100202DE9F04F82
:101A0000DFF8F49083B001904FF0FF31D9F848002F
:101A10000FF038FA0028F7D137480CF07DFA044669
:101A20000028F1D1B9F83C1051BB4FF0000AD9F8A9
:101A30003800D9F8303040B100211A68013142F045
:101A4000004281421A60DB68F7D1D9F800300022E9
:101A500003F58053C9F838205A69120603D580224D
:101A60005A6100229A60BAF1000FCDD00199504618
:101A70000B6998470028CFD0504607F0EDFECBE722
:101A80004FF4C172D9F8407007F0D8FC82460028A4
:101A9000CBD08346214640F2F458D9F83060BBF8E9
:101AA0000A205418444523D90025DBF80400A8EB8C
:101AB0000102A4F2F45439442844154412F002FA05
:101AC000F66844454FF00001B768EED83946224623
:101AD000DBF80400284412F0F5F9DBF800B0BBF1A4
:101AE000000FA4D02146BBF80A2054184445DBD887
:101AF00039440025ECE700BFAC1100202D4B0268F3
:101B00009A4200D07047A3F590432B481A6B42F0DD
:101B10000072F0B51A6389B01A6B002402270326FD
:101B200002F000720B2503A90092009A1A6B42F092
:101B300080621A631A6B02F080620192019A1A6B3A
:101B400042F000621A631B6B03F0006302934FF4D0
:101B5000C043CDE904740393029BCDE906650CF004
:101B600067FD322303A915480393CDE90474CDE939
:101B700006650CF05DFD862303A911480393CDE9AA
:101B80000474CDE906650CF053FD4FF4006303A91E
:101B90000C48039304970795CDE905460CF048FDE2
:101BA000224605213D200DF061FD3D200DF09CFDFC
:101BB00009B0F0BD00800240001802400008024059
:101BC0000000024000040240026808B5144B9A422B
:101BD00000D008BDA3F590434FF4C04111481A6BE3
:101BE00022F080621A631A6B22F000621A631A6B89
:101BF00022F000721A630CF061FE32210A480CF0E8
:101C00005DFE862109480CF059FE09484FF4006139
:101C10000CF054FE3D20BDE808400DF073BD00BF40
:101C2000008002400018024000080240000002400C
:101C300000040240014B986C0FF064B9AC11002015
:101C400001480CF0BFB900BFAC11002010B5094C21
:101C500082B0112101AA20460CF0F2F9019A11215B
:101C6000204622F4F04242F4B04201920CF022FAF3
:101C700002B010BDAC1100203A4B47F273413A4A12
:101C8000F0B53A4D8DB043610126394B01AFC185A6
:101C900004462B604FF4006382613946EB604FF4D9
:101CA000804306223348AB6003236E602B82FFF72C
:101CB0003DFC00224FF400032846C5E90576C5E93E
:101CC00007230CF02FFA28B994F82D3043F00403C1
:101CD00084F82D3028490423284AA1F14C000BF048
:101CE000B5FF27490423274AA1F1CC000BF0F4FFEC
:101CF0006B69062284F82C201A7884F826205A78FA
:101D000084F827209A7884F82820DA7884F8292023
:101D10001A7984F82A2094F82D20597940F2DC535E
:101D200084F82B100121A38442F00A030846002204
:101D300084F82D300FF06EF82422A864002103A847
:101D40004FF4007512F0D4F9302303AA21460E484F
:101D5000CDE9085310F064FF04480CF0EDFA0020C0
:101D60000DB0F0BD7149040845190408AC110020FC
:101D700000800240F8FF0700F8110020F812002050
:101D800078120020C82A0020FD190408BFF34F8FE5
:101D90000549064BCA6802F4E0621343CB60BFF307
:101DA0004F8F00BFFDE700BF00ED00E00400FA0523
:101DB0000AB3F0B5558985B0144600262A4601A815
:101DC00061680396174FCDE9016612F07BF804AB0A
:101DD000396801A81D4405F80C6C12F015FCB0B16F
:101DE000796801A812F010FC30B1204605B0BDE8BA
:101DF000F04007F031BD70470B4812F03DFA4FF448
:101E00007A700FF005FE00F0BDFCFFF7BFFF07483A
:101E100012F032FA4FF47A700FF0FAFD00F0AAFCDB
:101E2000FFF7B4FF6C000020DCE40508C0E40508FF
:101E300030B50023ADF5017D17481A4669460068A4
:101E40000EF0B8F910B10DF5017D30BD134D6946A6
:101E5000284612F043FD284612F0B2FD01464FF429
:101E6000C172362089B207F0E9FA04460028EAD0A8
:101E7000284612F0A5FD02462946204692B207F0F8
:101E8000C7FD2146686E0BF04BFD204607F0E4FCD1
:101E90000DF5017D30BD00BF0C43002098420020AD
:101EA000054C08B5FFF7C4FF20460DF09FFA6420EB
:101EB0000FF0AEFDF6E700BF080B002070B51A4E1C
:101EC000B36E33B3054612F07BFD01464FF4C17289
:101ED000362089B207F0B2FA0446F8B1284612F06B
:101EE0006FFD294682B2204607F092FD2146B06E72
:101EF0000BF016FD20B92046BDE8704007F0ACBCE1
:101F000001460A4812F056F92046BDE8704007F035
:101F1000A3BC0748BDE8704012F0AEB90548BDE863
:101F2000704012F0A9B900BF9842002030E50508C2
:101F3000F4E4050814E5050830B583B0144C154DDC
:101F40000BF05CFD41F27A7201A9606601950BF01D
:101F5000F9FC0BF053FD01A941F662320195A06630
:101F60000BF0F0FC0BF04AFDE06658B141F69072C0
:101F700009490BF06DFB00220849E06E0BF01CFDD7
:101F800003B030BD0648FFF799FFE06EEEE700BFF3
:101F900098420020C0A8144594F50508B11D040816
:101FA00050E5050808B5044A0021044810F038FE41
:101FB000034B186708BD00BF98E50508A11E04087B
:101FC0009842002070B50D46ADF5007D1A491446C3
:101FD000284612F02FFFA8B100264FF4FE7201A888
:101FE0003146009612F084F822462946684612F0DF
:101FF00095FD68460DF80460FFF760FF20460DF57B
:10200000007D70BD0646014600904FF4FE7201A8A7
:1020100012F06EF822462946684612F07FFD074806
:1020200033463246694600680DF804600EF074F8D5
:1020300020460DF5007D70BDBCE505080C43002071
:10204000044B40F6FF7204480321C3E90222C3E9AE
:1020500000017047080B002000300040002130B51F
:10206000194C85B00846194D03F050FD2346184A17
:10207000184843F8182F18490190002002956FF076
:102080007F45E26004F114026160216104F11001F6
:10209000009004F11C00A560656108F07FF804F170
:1020A0001C0008F023F994F8493004F11C005B0788
:1020B00004D505B0BDE8304008F01EB905B0BDE854
:1020C000304008F033B900BF0C430020B159040878
:1020D000C0A81401791C0408C0A8144808B5002041
:1020E000FFF7BCFFFFF728FF00224FF40071052027
:1020F0000DF0DAFF054B024641F288301A600FF00E
:1021000087FC0348BDE808400DF070B90C4300207F
:10211000080B002000B597B01C4EFEF7F9FB02211A
:1021200001201B4DFEF708FD02211A4C0846FEF760
:1021300003FD02210320FEF7FFFC02210420FEF72D
:10214000FBFC02210520FEF7F7FC02210620FEF72A
:10215000F3FC11480DF04AF99DF8103008204FF4B7
:10216000805C322201A960F307130020ADF806C09D
:10217000ADF812208DF810300794CDE90565FEF713
:10218000F5FD41F288300FF043FCE2E77856341257
:10219000AABBCCDD11223344080B002010B55F210F
:1021A000ADF5816D0F4C009102A823460E4A0F49F0
:1021B00012F09CF90E4B0DF5027C0FCBACE807003A
:1021C00082AAACF8003002A90A4811F0F3FF04F12A
:1021D0000C020021084810F023FD084B18600DF593
:1021E000816D10BD00E60508CAE50508D4E50508BF
:1021F000E0E50508F0E50508152104088043002006
:102200002DE9F04F8F4CADF28C4D8F4FDFF85C9283
:10221000DFF85C828D4E40460DF0E8F82146FF2045
:10222000FEF73EFB002840F03682E3781B09052BC1
:1022300000F24382DFE813F07701CB012201B00006
:102240005B0006007B790620012B83F0010214BF9E
:10225000032102217A71FEF76FFCC4237C4A7D4979
:1022600022A80093334612F041F97B4BA2AA93E8CF
:102270000300ADF88C12090CA2908DF88E1222A9E1
:10228000764811F097FFC523714A22A8714900933F
:10229000334612F02BF9237DA269A2A81B097049CD
:1022A00012F024F9A2AA22A96C4811F083FF00239E
:1022B0008DF80830237D1B0917D0DFF8B8A1DFF8AF
:1022C000B8B1554602A812F07BFB0DF1080C1A3D7F
:1022D0001AF8013FC0F180015A4660442D1B12F0EC
:1022E000A5F8237DB5EB131FEBDBCE23C2E13B79D1
:1022F0000520012B83F0010214BF032102213A7152
:10230000FEF71AFCA723524A524922A800933346EB
:1023100012F0ECF8534BA2AA93E80300ADF88C122C
:10232000090CA2908DF88E1222A94C4811F042FFA0
:10233000A823474A22A847490093334612F0D6F80B
:10234000237DA269A2A81B09454912F0CFF8A2AAD1
:1023500022A9424811F02EFF00238DF80830237D7A
:102360001B0917D0DFF80CA1DFF80CB1554602A805
:1023700012F026FB0DF1080C1A3D1AF8013FC0F1CE
:1023800080015A4660442D1B12F050F8237DB5EBB6
:10239000131FEBDBB1236DE1FB780420012B83F0ED
:1023A000010214BF03210221FA70FEF7C5FB8A2344
:1023B000274A284922A80093334612F097F82A4B5F
:1023C000A2AA93E80300ADF88C12090CA2908DF834
:1023D0008E1222A9214811F0EDFE8B231C4A22A85F
:1023E0001C490093334612F081F8237DA269A2A80C
:1023F0001B091B4912F07AF8A2AA22A9174811F06A
:10240000D9FE00238DF80830237D1B0917D0DFF893
:1024100064A0DFF864B0554602A812F0D1FA0DF1BD
:10242000080C1A3D1AF8013FC0F180015A46604479
:102430002D1B11F0FBFF237DB5EB131FEBDB94236A
:1024400018E100BF0000002084430020D0E605080A
:1024500036E60508D4E505088CE60508F0E505082C
:1024600048E6050884E605087CE6050840E6050818
:10247000080B00201B00002060E60508BB7883F0F5
:102480000102012BBA7000F0138103210846FEF708
:1024900053FB6D23934A944922A80093334612F0CC
:1024A00025F8924BA2AA93E80300ADF88C12090C10
:1024B000A2908DF88E1222A98D4811F07BFE6E231A
:1024C000884A22A888490093334612F00FF8237DEA
:1024D000A269A2A81B09874912F008F8A2AA22A99A
:1024E000834811F067FE00238DF80830237D1B0917
:1024F00017D0DFF810A2DFF810B2554602A812F08C
:102500005FFA0DF1080C1A3D1AF8013FC0F1800185
:102510005A4660442D1B11F089FF237DB5EB131F34
:10252000EBDB7723A6E0387880F0010301283B70CD
:1025300000F0B58003210120FEF7FEFA3523694A39
:10254000694922A80093334611F0D0FFA2AA99E866
:102550000300ADF88C12090CA2908DF88E1222A9FE
:10256000634811F027FE36235E4A22A85E49009395
:10257000334611F0BBFF237DA269A2A81B095D4968
:1025800011F0B4FFA2AA22A9594811F013FE0023AA
:102590008DF80830237D1B0917D0DFF868A1DFF81C
:1025A00068B1554602A812F00BFA0DF1080C1A3D5D
:1025B0001AF8013FC0F180015A4660442D1B11F00A
:1025C00035FF237DB5EB131FEBDB3F2352E07B7818
:1025D00083F00102012B7A7065D003210220FEF7FF
:1025E000ABFA51233F4A404922A80093334611F0E9
:1025F0007DFF414BA2AA93E80300ADF88C12090CB1
:10260000A2908DF88E1222A9394811F0D3FD5223E1
:10261000344A22A834490093334611F067FF237DE2
:10262000A269A2A81B09334911F060FFA2AA22A93E
:102630002F4811F0BFFD00238DF80830237D1B09C2
:1026400017D0DFF8C0A0DFF8C0B0554602A812F0DE
:10265000B7F90DF1080C1A3D1AF8013FC0F18001DD
:102660005A4660442D1B11F0E1FE237DB5EB131F8C
:10267000EBDB5B231C4922A81A4A0093334611F076
:1026800035FF02AA1D49A2A811F030FFA2AA22A973
:10269000174811F08FFD05200FF0BAF9BBE50221B4
:1026A000FEF74AFA4AE702210846FEF745FA98E79C
:1026B00002210320FEF740FAEBE6D323094A0A4938
:1026C00022A80093334611F011FFE278A369A2A873
:1026D00012090B4911F00AFFA2AA22A9044811F01D
:1026E00069FDD8E736E60508D4E5050874E605086F
:1026F000F0E5050848E605086CE6050868E6050803
:1027000094E605081B00002060E6050810B5E121ED
:10271000ADF5816D104C009102A804F110030F4A31
:102720000F4911F0E3FE0F4B0DF5027C0FCBACE827
:10273000070082AA8CF8003002A90B4811F03AFD7C
:1027400004F11C020021094810F06AFA084B986055
:102750000DF5816D10BD00BFD0E6050836E6050811
:10276000D4E50508B8E60508F0E5050801220408E7
:1027700084430020024B4AF2A5525A65704700BFBD
:1027800000280040014B00225A6570470028004095
:10279000044A4AF2A553506DC01AB0FA80F04009BD
:1027A000704700BF00280040074B08491A6C42F0F0
:1027B00080521A640A6842F480720A601A6F42F406
:1027C00000421A67704700BF0038024000700040A6
:1027D00038B50E4B0D46044619462B6000F0F0FA52
:1027E00008B9204638BD0A492046296000F0E8FAB9
:1027F0000028F6D007492046296000F0E1FA0028B9
:10280000EFD000231C462B60EBE700BF10E7050864
:102810001CE7050828E7050882BB70B5B1FA81F509
:102820000C466D0939B3012120460AF05DF82C20D1
:1028300006F02CFC0646D8B12C22294611F058FC93
:1028400031462046F4610AF067F820460D490AF047
:1028500067F820460C490AF06BF8042220460B4921
:102860000AF070F820460A490AF05EF8284670BD62
:102870004FF0FF3070BD6FF0050070BD6FF00500C8
:10288000704700BF312A040895280408F12904087C
:10289000512D040890B110B50446406918B100F0FC
:1028A000B5FA00236361206A18B106F0D5FF002352
:1028B00023622046BDE8104006F0D4BA704700BF3E
:1028C00038B504460D4600210AF026F800212046BE
:1028D0000AF026F8002120460AF02AF800222046B5
:1028E00011460AF02FF8002120460AF01DF875B1B4
:1028F000686918B100F08AFA00236B61286A18B180
:1029000006F0AAFF00232B62284606F0ABFA204609
:102910000AF074FC00B938BD204604220249BDE823
:1029200038400AF00FB800BFF1290408F8B54FF697
:10293000FE734C6A0E4605469C428F690DD8002CEA
:102940003AD10127706900F063FA002824DC31468F
:1029500028460027FFF7B4FF1EE04FF6FF746A8E8B
:10296000B5F86430520092B29A4228BF1A46944297
:1029700028BF1446002322463946284607F058FE51
:10298000431C0BD090B9736A0127B2691B1B224408
:102990007362B261002BD5D03846F8BDB5F864300B
:1029A00023B1B5F866306408082B02D9736A002792
:1029B000F0E7012CDED8F9E7A4B2D0E7A9B138B529
:1029C0004B6A04460D462BB9486940B100F020FA25
:1029D000002804DD29462046BDE83840A6E7204609
:1029E0002946FFF76DFF002038BD0020704700BF6B
:1029F00010B50C4680B190F828300133DBB2042BBF
:102A000080F8283008D0436923B101462046FFF7FB
:102A1000D5FF38B9002010BD01462046FFF750FF12
:102A2000002010BD204608F0CFF9002010BD00BFE7
:102A30002DE9F04F05460E4614462DED028B87B06A
:102A400083B9BAB178B11189304609F05BFE6B6980
:102A5000D3B1204606F000FF002007B0BDEC028B8A
:102A6000BDE8F08F32B13046218909F04BFE204697
:102A700006F0F2FE29463046FFF722FF002007B09D
:102A8000BDEC028BBDE8F08FAB69002B40F0B3804A
:102A9000286A002800F0A680214606F0F9FE2046AC
:102AA00006F0E8FE286A0368002B00F09680B0F874
:102AB000088040F2FF339F499845894628BF9846D1
:102AC0000023424606F03AFFB8F1060F71D942469C
:102AD0009949484607F0FEF900286AD00422974930
:102AE000484611F0DBFF0746002840F0A980A8F116
:102AF000040209F1040B924909F1030A92B2584603
:102B0000019207F0E7F9019A034600286CD0002BE8
:102B10004FD09A4501934CD242468A49484607F025
:102B2000D9F9019B002844D0A3EB0B03002258469F
:102B30009BB289F803200BF80320CDF814B011F0F4
:102B40003FFF814628B100F1FF3A1BF80A302F2BD6
:102B50007CD03F21584611F0E9FC18B100230370E6
:102B6000DDF814B059462846A84600F029F9002897
:102B700052D1D8F800000023D8F80420C5F81480FA
:102B8000A8616A6285F8283027B198F81030DB0711
:102B900000F1B380286A00283AD006F05DFE0023D9
:102BA00020462B6206F058FE29463046FFF706FF06
:102BB00064E7286A06F054FE2B6A1A89B2F5806F22
:102BC00002D205287FF645AF184606F045FE0023E1
:102BD00020462B6206F040FE4CE7D4F80490B4F88F
:102BE0000A8071E72C625AE75349584607F072F998
:102BF000012703468BE76FF00707286A002840F09B
:102C00009080204606F028FE10373FF433AF35E7BA
:102C1000204606F021FEC7E7284605A9FFF7D8FDA4
:102C200080460028A5D105A92846FFF7D1FD80469A
:102C300000289ED1686285F82800C5E90500A9E74B
:102C400000236FF00F0789F80430D6E7012802D07F
:102C50003D4B9B455FD0BAF13F0F28BF4FF03F0A75
:102C6000B9F1010F0BD0DFF8CC805946524608F578
:102C70008060D04411F026F9002388F80034324BEC
:102C8000A8464FF0000B0194534408EE103AB9F1F6
:102C9000010F12D0DAF13F0213D12B4C2846214606
:102CA0000BF1010B00F08CF8002836D0BBF1050FBA
:102CB000EDD1019CDDF814B04BE7244B53F83B40B9
:102CC000ECE7224B039253F83B101F4C084602914D
:102CD00011F076FE039A0299824228BF024618EE4E
:102CE000100A029211F0EEF8A4F58063029A5344A0
:102CF0001344002283F80024D0E7124907F0EAF8D1
:102D000000283FF447AF0430AA696B6A821AA861B1
:102D10009B1A6B623EE79B461BE72346019C05938B
:102D200027E706F099FD002320462B6206F094FD6C
:102D30006AE700BF9043002034E7050838E705083C
:102D400040E7050844E70508904700208CE70508A0
:102D500098B1002238B5436A04460D4680F8282011
:102D60002BB9406958B100F053F8002807DD21461F
:102D70002846FFF7DBFD002038BD002070472146C4
:102D80002846FFF79DFDF6E710B52E200AF09EF9C4
:102D900088B10446012109F0A7FD502206492046CA
:102DA00009F0DEFBFF21204609F086FC0349BDE85F
:102DB000104009F0C1BD10BD94F50508192804089C
:102DC000F0B170B50D46C1B10F49064601F5ED648D
:102DD00000E06168284611F017FC28B12468002C37
:102DE000F7D16FF0050070BDD4E90223F060B36045
:102DF000C6E90023237C337470BD6FF00F0070BDF3
:102E00006FF00F00704700BFB4E70508704700BFC0
:102E1000D0E90120101A70472DE9F843002973D03A
:102E2000B0FA80F504466D0900286DD08946164633
:102E30004FF49A714FF4207236201F4606F0FEFAC6
:102E40008046002860D0032E42D099F80630002B2F
:102E500065D0354B1868D8F804504FF49A720021A9
:102E6000C9F80000284611F043F901232B706B705C
:102E700094F82C30AB70D9F8000007F029F8042E34
:102E8000686046D16368EB6004F1260105F11C0C13
:102E90002C3411F801EB8C420CF801EBF9D16323CF
:102EA0006FF07D0285F8F260404685F8EC3085F8D9
:102EB000EF30352385F8ED20532285F8F0300123DB
:102EC00085F8EE2085F8F13003233B80BDE8F883D8
:102ED00099F80530032BB8D0294645684FF49A720B
:102EE000284611F005F901232B706B7094F82C30F3
:102EF000AB70D9F8000006F0EBFF686099F8053078
:102F0000043B012BC0D8BDE74FF000084046BDE8A8
:102F1000F883F31F012BB5D9032EB5D1EEE711F0DD
:102F2000BBF9014B186096E7D047002010B5046A42
:102F30006379082B04D000230822A37162712381D6
:102F4000002204F11C0101F079FCA379FF2B01D0D0
:102F50000133A3710123238110BD00BF002800F0BD
:102F60008D80016A002900F089808B6A0022B3F10C
:102F7000FF3F00B54A8283B00DD01E33B3F5701FFA
:102F80006DD2A2F177323B2BA2FB03C2C2F34F12E8
:102F900075D801238B82CB6A5A1C44D01E33B3F5FB
:102FA000701F57D2394A3B2BA2FB032CCCF34F1C8A
:102FB00067D801239C464B810A6BA1F80EC0531CB5
:102FC00036D01E32B2F5701F3FD2304B3B2AA3FBE6
:102FD00002E3C3F34F1357D8012213468A8101221B
:102FE0000B829C4502D30AB100234B81CB7923B3DA
:102FF0000B6A00934B6A01932BB9CB69009A13407B
:1030000043F0807301934B790A2B04D000230A22EA
:103010008B714A710B8101AB6A461C3107F08CF849
:1030200003B05DF804FB0A6BB1F80AC0531CC8D1A9
:103030008B891A1E18BF0122D3E791F91C300A7F31
:10304000002B13DBFF230093D4E74FF6FF721346E8
:103050008A81C4E74FF6FF739C464B81ACE74FF67D
:10306000FF738B82CB6A5A1C98D1DCE7BF2A8CBFD6
:103070006FF07F434FF6FF730093BBE770478A8280
:1030800089E7A1F80AC097E78B81A8E78988888833
:1030900038B5114D2C791CB1013400202C7138BD8C
:1030A0000AF0ACFCA86098B1427A0C4942F02002C8
:1030B000427244220AF0CCFA08494322A8680AF076
:1030C00041FC22460649A8680AF076FC2C79E3E721
:1030D0004FF0FF3038BD00BFD047002094F5050801
:1030E0004536040838B51A4D00230446EA7BC0E98A
:1030F00008330AB12B6A83622B7C2BB36B6A6A7C20
:10310000E3624AB1AB6A2363AB7C0A69E2616BB9E3
:10311000E371EB7C9BB938BDA36AC3EBC303DB0847
:103120002363AB7C0A69E261002BF1D0E86A06F008
:10313000CFFE01232062E371EB7C002BEBD0286BE8
:1031400006F0C6FE606238BDA36A5B08D7E700BF21
:10315000D04700202DE9F04FD0F820808BB00746F3
:1031600098F80530032B07D00023032288F8063097
:1031700088F80520A8F808300DF1260303224146FF
:103180003846FFF749FE0646002800F09080BDF85B
:1031900026404FF0020E45684FF0390A04F1010C49
:1031A000A01CF035E11C1FFA8CFC221D80B205F832
:1031B00004A089B205F80CE005F800E0402092B2C6
:1031C000631D6854322104F106099BB2A9540422FC
:1031D0001FFA89F9EA54D8F81C00ADF8269006F0D9
:1031E00077FE04F109034FEA106B04F1070E04F1B6
:1031F0000E029BB205F809B01FFA8EFE04F1080C0E
:10320000029304F10A0392B299B204F10B034FEA5C
:10321000104907929BB2029A05F80E901FFA8CFC97
:10322000049304F10C034FEA102E039199B204F1B8
:103230000D0305F80CE01FFA83FAA8543720039A0F
:10324000CDF818A04FF0030AA8540120049A04F105
:103250000F03059104F1100105F802A09BB2059A35
:1032600089B2A8541C20069A432905F802A0079A9F
:10327000A8544FF0FF02ADF82630EA5407D8C4F145
:1032800034026818002192B210F032FF4421F0316C
:10329000304689B206F0AEF915484323154A8068D6
:1032A000314600970AF0E6FA304606F0D5FA98F86B
:1032B0000630FF2B16D00133DBB2092B88F806301D
:1032C00010D8C3EB43110C4A03EB8103DB0003F27C
:1032D000F3139BB2A2FB03235B09A8F808300BB0E1
:1032E000BDE8F08F1423A8F808300BB0BDE8F08FCC
:1032F000D047002090F50508D34D62102DE9F04F1E
:10330000066A002389B005467279F361062A03D064
:103310000622B371338172710DF11E030122314611
:103320002846FFF779FD0446002866D0BDF81E2028
:10333000392140684FF00309531CD71C00F1F00CF1
:1033400002F1050E9BB20CF802100221BFB20CF87C
:103350000310931DB5F824A002EB01089BB2111DC8
:103360001FFA88F803934FEA1A2BD31D89B20CF881
:1033700008B01FFA8EFE0CF807A098B2372702F1AA
:103380000803049002F109000CF801709BB20121BE
:10339000039F0CF80E9080B20CF80710059302F111
:1033A0000A0304999BB2059F0CF801901C21432B42
:1033B0000CF807104FF0FF01ADF81E000CF80010DC
:1033C00008D8C2F13A020CEB0300002192B210F0CF
:1033D0008FFE442303F1F0012046164F89B206F018
:1033E00009F915484323154A80682146CDE900575D
:1033F0000AF0A0F9204606F02FFAB379FF2B13D07C
:103400000133DAB2052AB2710ED84FF47A730C493F
:103410000020934003F2F3139BB2A1FB03235B094B
:10342000338109B0BDE8F08F78230020338109B0E3
:10343000BDE8F08F94F50508D047002090F5050809
:10344000D34D6210002800F0F3802DE9F04F076A99
:103450008BB08046002F00F0E6807B79012B04D0F2
:1034600000230122BB717A713B810DF126030322F7
:1034700039464046FFF7D0FC0646002800F0C080E1
:10348000BDF82640392245684FF0040A631CE11C50
:10349000F03504F106099BB204F10C0B2A55022207
:1034A00089B2EA54A018B8F824C0221D80B2631D66
:1034B0004FEA1C2E92B205F800E09BB205F801C05D
:1034C00032211FFA89F9A95405F803A0F869ADF86B
:1034D000269006F0FDFC04F10B0304F1070E04F145
:1034E000080C04F109019BB204F10A021FFA8EFED6
:1034F00002931FFA8BF34FEA106B1FFA8CFC05F84E
:1035000009B04FEA104989B204F10F0B05F80E908B
:103510004FEA102E92B205F80CE01FFA8BFB6854AC
:103520003621A954029A029305F802A0B869ADF8B1
:10353000263006F0CDFC04F1100304F114024FEA2A
:10354000106A04F10D0E99B204F1110392B204F164
:103550000E0C9BB2039107921FFA8EFE029A1FFA7D
:103560008CFC049304F1120305F802A04FEA104A00
:1035700099B204F1130305F80EA04FEA102E1FFABA
:1035800083F9039A05F80CE004F1150305F80B0024
:103590003720CDF818904FF00309A8540120049A61
:1035A0009BB2059104F1160105F80290059A89B2C3
:1035B000A8541C20069A432905F80290079AA8549B
:1035C0004FF0FF02ADF82630EA5407D8C4F12E02BE
:1035D0006818002192B210F08BFD4421F031304682
:1035E000144C89B206F006F813484323134A806846
:1035F0003146CDE900840AF09DF8304606F02CF9FA
:10360000BB79FF2B12D00133DAB2052ABA710DD87B
:103610004FF47A730A49934003F2F3139BB2A1FB70
:1036200003235B093B810BB0BDE8F08F7823F9E7FA
:10363000704700BF94F50508D047002090F50508B5
:10364000D34D6210A74B2DE9F04FD3F804A087B0FB
:103650001446DAF82070002F45D03B79002B42D079
:1036600053892B2B3FD956683378022B3BD19AF8DC
:103670002CC0BCF1000F10D00AF1260106F11C028B
:10368000002311F8015B013312F8010BDBB2854214
:1036900029D1062B01D06345F3D3706806F018FCDE
:1036A0003B6898421FD190490022C1E903226389F7
:1036B0002B2B18D9B4F808904FF0F00B019200941E
:1036C000CDE902A7009E00E073895B45ABEB0302E6
:1036D000A9EB03030DD836681FFA82FB1FFA83F9A2
:1036E000002EF1D1009C204607B0BDE8F04F06F057
:1036F000B3B8CB45746880F00F815D46625DFF2AE8
:1037000000F00A81AB1C9BB2AB42EBD3691C708901
:10371000814280F2F880671997F801803B2A00F215
:103720009781DFE812F03C004D009501B100950152
:1037300095019501950195019501950195019501D9
:1037400095019501950195019501950195019501C9
:1037500095019501950195019501950195019501B9
:1037600095019501950195019501950195019501A9
:103770009501950195019501950195019501950199
:10378000950195019501950195019501A3008D0085
:10379000D100C300950195019501E3007F008DB232
:1037A0008542C0F0B6802D1AA9EB0009ADB21FFA10
:1037B00089F94D4596D23668002E93D074689DE7FE
:1037C000B8F1040F8ED14FF6F97295428AD80635BA
:1037D0004FF0060AADB200220592434A5244127BD2
:1037E000002ADDD11FFA88F705A930463A4606F0CF
:1037F000A5F887427FF476AFB8F1040F00F0388166
:10380000B8F1010F7FF46EAF9DF81400364A4FF007
:10381000010102EB0A0302EB8A0A1973CAF81400C9
:103820007089BDE7B8F1040F7FF45CAF4FF6F97211
:1038300095423FF657AF06354FF0050AADB2CAE7DD
:10384000BBF1F00F7FF44EAFB8F1010218BF0122B7
:10385000002A7FF447AF4FF6FE77B9423FF442AFFC
:10386000033592464FF00108ADB2B4E7B8F1040F4A
:103870007FF438AF4FF6F97295423FF633AF063515
:103880004FF0030AADB2A6E7B8F1030F7FF62AAFF7
:1038900045444FF6FD7295423FF724AF03EB080510
:1038A0004FF0070A4FF00408ADB294E7B8F1040FE7
:1038B0007FF418AF4FF6F97295423FF613AF063515
:1038C0004FF0020AADB286E7B8F1010F7FF40AAFFC
:1038D0004FF6FE7291423FF405AF0335C246ADB2DA
:1038E00079E700BFE08A0020D0470020B8F1040F3C
:1038F0007FF4F8AE4FF6F97295423FF6F3AE063517
:10390000C246ADB267E737681FB37F6897F800809B
:1039100004E7A9453FF6F2AE894B1B7B63B1884BA8
:103920004FF000021A735B69012B00F09C80022BA0
:1039300006D0032B00F09580019B002B00F09C80AB
:1039400000234FF06C094FF02C0B0193009B5B8917
:10395000B8E63B2A7AD801A757F822F09F37040827
:10396000E53604084D3A0408E53604084D3A0408E3
:103970004D3A04084D3A04084D3A04084D3A0408FB
:103980004D3A04084D3A04084D3A04084D3A0408EB
:103990004D3A04084D3A04084D3A04084D3A0408DB
:1039A0004D3A04084D3A04084D3A04084D3A0408CB
:1039B0004D3A04084D3A04084D3A04084D3A0408BB
:1039C0004D3A04084D3A04084D3A04084D3A0408AB
:1039D0004D3A04084D3A04084D3A04084D3A04089B
:1039E0004D3A04084D3A04084D3A04084D3A04088B
:1039F0004D3A04084D3A04084D3A04084D3A04087B
:103A00004D3A04084D3A04084D3A04084D3A04086A
:103A10004D3A04084D3A04084D3A04084D3A04085A
:103A20004D3A04084D3A0408E5360408E536040822
:103A3000E5360408E53604084D3A04084D3A040812
:103A40004D3A0408E5360408E53604084FF000084E
:103A500045444FF6FD7295423FF744AE43449DB254
:103A60009EE6012301934FF0EC094FF06C0B6DE7DC
:103A7000059806F02DFAC9E6314B009C5B7BDDE929
:103A800002A7002B3FF42FAE2D4B65681B7E052B44
:103A90001DD0062B2BD0022B7FF425AE7B79062B75
:103AA0007FF421AE264B9B7B002B3FF41CAE244BB6
:103AB000DAF82060D869019B338106F009FA0346E1
:103AC0005046B3612B69F361FFF7BCFC0BE67B79D1
:103AD000012B27D0033B022B3FF605AEDAF820007E
:103AE0002946FFF7FFFA5046FFF738FAFBE57B79E6
:103AF000DA1E022A02D9012B7FF4F5ADDAF8203064
:103B00005A790C2A04D000220C219A7159711A8119
:103B10000C4B50461A46194606F00EFB5046FFF76E
:103B2000EDFBE0E5DAF820002946FFF7DBFA9AF82A
:103B30002D3050461B07D7D5FFF7F8F9D3E500BF66
:103B4000D047002094F505080B463422002110B51B
:103B50000446184610F0CCFA206210BD10B5044699
:103B6000006A18B105F07EF90023236210BD00BF82
:103B7000002865D02DE9F04190B00446FFF788FA9F
:103B8000064610B110B0BDE8F0810146342203A80A
:103B900010F0AEFA07220DF10A0303A98DF81120E7
:103BA00020460822FFF738F90546002849D0BDF81D
:103BB0000A2039214068531C02F1030CF0309BB2FB
:103BC000815402211FFA8CFCC15402EB010EA78C18
:103BD000531D1FFA8EFE111D4FEA17289BB200F8E5
:103BE0000E8089B200F80C70432B4FF0FF07ADF840
:103BF0000A10475407D8C2F13F021844314692B226
:103C000010F076FA4423F0330F4E284699B205F0AF
:103C1000F1FC009443230D4A2946B06809F02AFEBE
:103C2000284605F019FE3479013CE4B23471002CC9
:103C3000A8D1B06809F0C4FEB46010B0BDE8F0814E
:103C40007047014EEFE700BFD047002090F5050810
:103C5000026A2AB15379052B03D8022B07D813B96E
:103C600070470A2B03D000239371FFF747BB002353
:103C70009371FFF76FBA00BF00287DD02DE9F04F98
:103C8000056A85B0044615B16B79082B02D005B0E2
:103C9000BDE8F08F0A68EB699A42F8D14FF000094D
:103CA0000C23042229466B710DF10E0385F8069052
:103CB000A5F80890FFF7B0F80746002854D0BDF8E3
:103CC0000E603222436806F1020A03F1F008731C09
:103CD0001FFA8AFA08F806209BB2042208F803208B
:103CE000E869ADF80EA006F0F3F806F1030E4FEA0E
:103CF000106B06F1040C721D08F80AB01FFA8EFE54
:103D0000F11D4FEA104A92B2B31D08F80EA01FFA37
:103D10008CFC89B24FEA102E9BB2432908F80CE0C4
:103D200008F802004FF0FF02ADF80E3008F803204B
:103D300008D8C6F13D0208EB0100494692B210F0E6
:103D4000D7F94421F031384689B205F053FC0B49CC
:103D50000B4A43230094886839460192094A09F0C6
:103D6000E9FC384605F078FDAB79FF2B01D0013333
:103D7000AB7114232B818AE7704700BFD047002026
:103D800094F5050890F505082DE9F04F056A89B00E
:103D900006466B79052B04D000230522AB716A71AE
:103DA0002B810DF11E03032229463046FFF734F81C
:103DB0000446002800F08580BDF81E2043683920A5
:103DC000511CD71CF03302F1040E89B202F1050C2C
:103DD00098540220BFB25854911DB6F824A002EBAB
:103DE000000889B202F109001FFA88F80391D11D79
:103DF0004FEA1A2B89B203F808B080B2049102F19D
:103E0000080103F807A01FFA8EFE1FFA81F9372771
:103E100002901FFA8CFC03F80E700127039802F140
:103E20000A01CDF814904FF0030989B203F80C9001
:103E30001F541C270498432903F8009005981F5429
:103E40004FF0FF070298ADF81E001F5407D8C2F1CB
:103E50003A025818002192B210F04AF94421F03188
:103E6000204689B205F0C6FB1748432321468068E7
:103E700005F11802009609F0FDFC034620461C4699
:103E800005F0EAFCAB79FF2B15D00133DBB2092B2F
:103E9000AB7110D8C3EB43110C4A204603EB8103EE
:103EA0001B0103F2F3139BB2A2FB03235B092B81DB
:103EB00009B0BDE8F08F282320462B8109B0BDE86A
:103EC000F08F4FF0FF34DDE7D0470020D34D621074
:103ED0002DE9F047046A84B0002C7FD06279002A73
:103EE0007CD0A169002305460391111FE3610129DC
:103EF000A361A362E3812361A382C4E90833C4E917
:103F00000B3301D90A2A5BD10DF10A03072221469E
:103F10002846FEF781FF0646002851D0BDF80A70FA
:103F20003622736807F1020903F1F0087B1C1FFABF
:103F300089F908F807209BB2042208F803200398A7
:103F4000ADF80A9005F0C4FFF91C4FEA106A07F1BA
:103F5000040EFB1D08F809A089B24FEA1049BA1DEA
:103F60001FFA8EFE07F1050C08F801909BB2010ABA
:103F700092B2432B08F80E101FFA8CFC4FF0FF0191
:103F800008F80C00ADF80A2008F8021008D8C7F1AC
:103F90003D0208EB0300002192B210F0A9F844237F
:103FA000F033304699B205F025FB164A00954323BD
:103FB0009068314603AA09F05DFC304605F04CFCE0
:103FC000114B28461A46194606F0B6F863791BB11C
:103FD00000236371A3712381237913B904B0BDE871
:103FE000F087084E3579013DEDB2357125B10023DA
:103FF000237104B0BDE8F087B06809F0E1FCB5605A
:10400000F5E700BFD047002094F50508F8B5002873
:1040100045D090F82D300446DA0740D5838C056AE8
:10402000B3F5107F38D385B32B7913BB342200212D
:10403000284610F05DF8FFF72BF8064660BB012319
:104040002B7194F82D305B0708D46B79022B03D0C9
:104050000223A87128816B713046F8BD2046FFF716
:104060004DF90028F8D020464FF0FF36FFF730FF1B
:10407000F2E70C4F3E79013EF6B23E71002ED5D1EB
:10408000B86809F09DFCBE60D0E7342004F0FEFF64
:10409000054608B12062C9E74FF0FF36DCE76FF054
:1040A0000F06D9E7D0470020734B2DE9F04F1D686C
:1040B0008DB00DB3DFF8C4A1DFF8C491DFF8C4B14F
:1040C0002C6AB4B16379A3B1A18A29B1628A0132A1
:1040D00092B29142628212D0228A1AB1511E012AF2
:1040E000218213D0E28922B1511E012AE18100F020
:1040F000AD802D68002DE3D10DB0BDE8F08F2846CE
:10410000FFF7E6FE2846FFF781FFF2E75A1ED1B21D
:104110000929EED840F21922CA40D24312F0010216
:10412000E7D1042B03D00423A271228163710DF126
:104130002E03032221462846FEF76EFE064600287F
:1041400067D0BDF82E2039214068531CF0309BB257
:1041500081540221C154D31C5718B5F824E09BB2F6
:10416000BFB20493131D4FEA1E2899B2531D00F8E5
:104170000780059199B2931D049F069102F10801F1
:104180001FFA83FCD31D00F807E03727CDF81CC0C9
:104190001FFA83FC02F10903CDF820C01FFA81FC4D
:1041A0009BB202F10A01CDF824C04FF0030C039337
:1041B00089B2059B4329C7544FF00107069B00F8BD
:1041C00003C0079BC7544FF01C07089B00F803C0AF
:1041D000099BC7544FF0FF07039BADF82E30C7541F
:1041E00007D8C2F13A020844002192B20FF080FFD2
:1041F0004421F031304689B205F0FCF943235A4698
:104200003146D9F80800009509F034FB304605F036
:1042100023FBA379FF2B2CD00133DBB2092BA37135
:1042200027D8C3EB431203EB8203DB0003F2F31343
:104230009BB2AAFB03235B09628A2381A38A9B1A90
:10424000012B7FF756AF5B10238252E703F0FB028E
:10425000012A02D00A2B7FF44CAF2846FFF794FDC9
:10426000A389628A9B1A012B7FF743AF5B10E3811E
:104270003FE71423E0E700BF848A0020D34D62109B
:10428000D047002090F5050838B5214B1C68FCB1DB
:10429000002503E0013A1A812468CCB1236A002B7F
:1042A000FAD01A89012AF5D8F6D15A791D810C2A3B
:1042B00016D0062A14D0012A16D0082A09D0032ABB
:1042C000EAD19B792046012B1ED9FFF717F8E3E7C7
:1042D00038BD9B792046012B13D9FEF73FFEDBE763
:1042E0002046FFF70BF8D7E79B792046052B02D82D
:1042F000FFF7A8F8D0E7FFF7EBFD2046FFF786FEB3
:10430000CAE7FEF713FEC7E7FEF724FFC4E700BFC6
:10431000848A002008B5FFF7DBFD002008BD00BF40
:10432000FFF7D6BD48B1006A38B14379181F0A2B90
:1043300018BF012894BF0120002070472DE9F04FDD
:104340008B4600234FF00A0E85B0424E17465A4660
:104350000546314698467446F146F3460393CDE947
:10436000012304E06446013318310A2B17D00A2CCC
:104370000FFA83FC0A7D2DD1002AF3D025B12868DD
:1043800082464868824531D0012A26D04A8A424571
:10439000E9D301339046E14618310A2BE7D1DA46DA
:1043A000DDF804B0BBF1010F50D10A2C24D04FEA44
:1043B00044082DB108EB04032A6806EBC3035A60D6
:1043C000A044002306EBC8067382B760204605B000
:1043D000BDE8F08F002AC6D0D0E70A685AB34A8AEF
:1043E00002988242BFD3E6460292BCE717B18868C2
:1043F000B842C9D16446E9E7B9F10A0F24D1BAF14C
:104400000A0F1FD1BEF10A0F20D0744604EB4409F5
:104410004FEA44084FEAC90956F8090020B105F0EF
:104420001BFA002346F8093008EB0403002206EBD0
:10443000C3031A75BDE74A8A0398824293D3E346C1
:10444000039290E75446E1E74C46DFE74FF0FF3434
:10445000BCE700BF044800202DE9F04782B00746C2
:10446000884691461C214FF420720E201E46DDF82E
:104470002CA0BDF8344004F0E1FF90B3054620467F
:104480006C6805F021FD4B464246E08038463168B5
:10449000A160B1880026A181DAF80010C4F81210DA
:1044A000BAF80410E1820A990968C4F80E100C9950
:1044B00009682670A1610121E67061700821A17070
:1044C000062121710421617140F6060100912946FF
:1044D00009F01EFB284605F0BFF9304602B0BDE8E2
:1044E000F0874FF0FF30F9E72DE9F0432F4E02EB54
:1044F000420785B0044606EBC7070D463B7D022BFD
:1045000012D0182304F1260803FB026303F10C09FF
:104510004FF400664B46424629462046009609F075
:10452000F7FA05B0BDE8F0837B8AB3F58E7F20D81B
:10453000B3F5877FE5D302EB4202012300F12608A1
:104540004FEAC20C039341460CF10C030CF1040C2E
:1045500006EB0309164B66440193031D4A46029677
:1045600000934346FFF778FF0028D1D103233B7522
:10457000CEE702EB4202012300F126084FEAC2090E
:1045800003930C4A414609F1040333440293084B58
:104590000193031D00934346FFF75EFF09F10C02F0
:1045A00006EB02090028E1D0B2E700BF0448002072
:1045B000CCF70508C4F705082DE9F041204C84B07C
:1045C0000026DFF884801F4F04F1F0050CE0012A7B
:1045D00001D1042B12D8032A1ED0042A1FD0012A8D
:1045E00020D01834AC4214D0227C002AF9D0E389C0
:1045F00001339BB2B3F5967FE381E8D354F8040C02
:1046000018B105F029F944F8046C26741834AC424A
:10461000EAD104B0BDE8F08104232374E1E702236A
:104620002374DEE76068CDF8048000F12603011DE5
:10463000CDE9024200913A461946FFF70DFFD0E757
:1046400008480020C4F70508CCF70508F8B50A4C5F
:104650000027064604F1F005237D13B1A368B34299
:1046600003D01834AC42F7D1F8BD206810B105F082
:10467000F3F827602775F4E70448002038B50446AE
:1046800015460846022122461C46FFF757FE002821
:1046900010DB00EB4001094B03EBC102C900127DA6
:1046A000012A07D901F10C0204311A4419442A6085
:1046B000216038BD4FF0FF3038BD00BF04480020F6
:1046C000092819D800EB400070B40C4C04EBC00C66
:1046D000C0009CF81450012D0BD9051D0C30DCF8DE
:1046E00008602544044401200D6016601C6070BC05
:1046F0007047002070BC70470020704704480020BD
:10470000002900F081802DE9F047466886B0044614
:104710003388B3F5807F02D13379062B05D020464C
:1047200006B0BDE8F04705F097B87379042BF6D1D1
:104730007388082BF3D1D6F80E000D464F68B36985
:104740000590002F5AD0FF1A06F10808B7FA87F72C
:104750007F09C7F1020A5FFA8AFA00283DD029468C
:1047600000F01EFC8146C0BB059B03F0F003E02B6C
:1047700033D051462A4605A8FFF7E0FD031E2CDB87
:104780002D4903EB430202204FF0180E01EBC20C3F
:10479000D2008CF814000C20CCF8085013FB0E0348
:1047A000D8F80000C8500B44B8F80400988051F8BD
:1047B00002A0ACF81290BAF1000F0ED04FF40063D3
:1047C00041F80290284605F12602009351464346DF
:1047D00009F09EF9504605F03FF8F388B3F5807F65
:1047E00013D0B3F5007F03D105A92846FFF744FA9B
:1047F000204605F031F806B0BDE8F08706F108085C
:10480000A8B14FF0020AAAE77047002FF0D00221AA
:1048100005F1260342462846039105A9CDF80480F8
:104820000291291D00911946FFF716FEE0E7F38873
:10483000B3F5807FD5D1DBE7044800202DE9F04FA8
:104840008A4685B004460146DAF80000154600F0B5
:10485000A7FB002874D1DAF8003003F0F002E02A58
:104860006ED0002B6CD0224601215046FFF766FD2A
:10487000031E3CDBDEB2DFF8F48004F1260B06EB0E
:1048800046074FEA460908EBC7073B7D4BB1002DB1
:1048900059D0012B4FF0FF3018D82CD005B0BDE80F
:1048A000F08F0123CDF808A0BC6059460393204641
:1048B0003B752C4B2C4A0193231D00935B46FFF75D
:1048C000CBFD002DEAD03B7D012BE6D918232046F5
:1048D0004FF400645A4603FB0683294600940C33C8
:1048E00088F8F06009F014F905B0BDE8F08F58B20F
:1048F00005B0BDE8F08F2B461A7B520614D41B6816
:10490000002BF9D1284604F0B5FF09EB060358F84F
:10491000330008B104F0A0FF09EB0603002048F8BB
:10492000335005B0BDE8F08F2A464FF420710E20B9
:1049300005F002F905460028E7D14FF0FF30ADE75A
:104940006FF00F00AAE7221D0123064D59462046AD
:10495000CDE902A3CDE900255B46034AFFF77CFDC4
:104960009CE700BFCCF70508C4F705080448002001
:10497000F0B5054685B00F4601461068164600F0B2
:104980000FFB002863D1336803F0F002E02A37D030
:104990006A68A9685A400A4209D09BB24FF6A962D8
:1049A000934204D0EB68002B5AD005F10C06DFF8D7
:1049B000B8C09CF8F02002EB42030CEBC303197D56
:1049C000012902D99968A94243D0274C002303E06A
:1049D0000A2B04F1180432D0207DDAB20133012809
:1049E000F6D9A068A842F3D1306861688842EFD157
:1049F000394628468CF8F02005B0BDE8F04073E554
:104A000001225E23F1788DF808208DF80A30727843
:104A1000B37802F07F028DF809008DF80C3002ABFC
:104A20008DF80B208DF80D104FF4006405F126026F
:104A300039462846009409F06BF805B0F0BD3A46B7
:104A40003146284605B0BDE8F040FFF7F7BE074BFA
:104A5000EAE75B6831689942B7D139462846CBE727
:104A60006FF00300E9E700BF04480020C4F7050821
:104A700010B5012384B0074C074A0194041DCDE909
:104A8000021300F1260300941946FFF7E5FC04B079
:104A900010BD00BFCCF70508C4F705082DE9F041AB
:104AA0000E4686B01746804624214FF420722220FD
:104AB00004F0C4FC68B344680546D8F80430267096
:104AC0000026677026716671A671E67118685968CC
:104AD0009A68DF68A060E1602261676118695969BE
:104AE0009A69A06105A8E1612262DB68059300F084
:104AF0009DF858B10123A670E67005AA02903146D0
:104B000001932846FF23009600F016FA284604F089
:104B1000A3FE06B0BDE8F0812DE9F0433D4F87B01C
:104B20000546D7F8088098F8004004F00F04A40068
:104B3000132C13D94389032B10D943681B78082BF6
:104B40000CD1786900F0F003E02B07D00E463968ED
:104B500000F026FA10B92B89072B05D8284607B094
:104B6000BDE8F04304F078BE04F10E01284605913B
:104B700004F070FD0599002841D02B89191989B2DC
:104B80008B42EBD84FF420720E2004F057FC814684
:104B90000028E3D0428904F108039A4235D3414604
:104BA000224640680FF08EF92146484604F0A4FDE5
:104BB00058BB2946484604F0B5FE30BB28464D4652
:104BC00004F04AFE214628466C6804F043FD0028A4
:104BD000C4D16A687B691049D3603B691361FF23C4
:104BE0002070A070E0709072D07213720122009059
:104BF000CDE901260246284600F09EF9AEE7284698
:104C000004F07AFD0028DDD0A8E7484604F024FE31
:104C1000A4E700BFE08A0020F48A00200A460321AE
:104C20003CE700BF0A460B2138E700BF194B30B400
:104C30001B68ABB193F82D20D407F9D55107F7D5F0
:104C400059680029F4D004689D686140294204D065
:104C50009207EDD4DA689442EAD1184630BC704726
:104C60000D4B1B68002BF8D093F82D2002F00502A5
:104C7000052A08D15A6852B102787F2A08BF00235A
:104C800030BC18467047002330BC184670471346A6
:104C9000E3E700BF848A0020888A00202DE9F843DA
:104CA000476804463B781A09042A40F09E8003F0C6
:104CB0000F0378880E464FEA830905F005F923892A
:104CC0004D468046834200F296806389AB42C0F035
:104CD0008C8023894345C0F08880132D40F2858065
:104CE0003B69DFF88C8103F0F002C8F81430E02A49
:104CF000F868C8F8100069D096F82D20D20703D5BF
:104D00007268002A40F08A80DBB27F2B62D0574B5A
:104D10001D6835B95EE000F043F980B92D68002DBB
:104D200058D0AE42FAD095F82D30DB07F6D56B6837
:104D3000002BF3D0D8F8140029468342EBD1D8F8E1
:104D4000100000284DD1FB8823F0C00333B120466A
:104D500000F018FB044600284AD04768C8F80870DD
:104D600049462046C8E900563B7803F00F039B00F4
:104D7000A8F80C3004F0C0FC7B7A062B6CD0112B09
:104D800065D0012B5ED02946D8F8140000F008F950
:104D900068B9D8F8143003F0F003E02B07D0494687
:104DA000204604F0FDFC02212046FFF737FF204695
:104DB00004F052FD00230020C8E90033C8F8083091
:104DC000A8F80C30C8E90433BDE8F88396F82D3014
:104DD000D9071ED47B7A112B2AD0D8F8100020B125
:104DE0000025314600F0DCF850B1204604F034FDD7
:104DF0000020BDE8F8830146204604F0FBFB64E791
:104E0000D8F8103003F0F003E02BEED0002D9AD14B
:104E1000EBE77368002BDDD0354692E79342FBD079
:104E20001846314600F0BCF8D8B9D8F814306BE712
:104E300007EB09035B88B3F5884FCED13546002DCB
:104E400081D1D2E731462046FFF766FEB2E7314610
:104E5000204608F043FBADE73146204606F0A0FEB1
:104E6000A8E7D8F8100035466BE700BF848A002019
:104E7000E08A00202DE9F04F85B09A4605469DF85E
:104E80003C309DF838B0DDF840800193002A3BD0DB
:104E90000F461421164604F0DDFB019B81460028D5
:104EA00043D16C68452284F808A06372336822708D
:104EB000236184F801B0288905F006F884F806908B
:104EC00084F80790DFF86C906080B9F8000004F077
:104ED000FBFFB9F80030A0800133A9F80030DFB142
:104EE0003B68E3600023A372E372B8F8243013B187
:104EF0002A899A4213D8D8F81430324629464046B7
:104F0000984705B0BDE8F08F4389132B0DD943684E
:104F100003AE1B690393E8E7054B1B68E1E73246E4
:104F20004146284600F0F0FBEBE76FF00100E8E7B0
:104F300094F50508F6480020F0B4069C9DF8105042
:104F40009DF814601AB109B10F6807B9211D0495C5
:104F5000CDE90564F0BCFFF78DBF00BFF0B587B0A9
:104F6000064610461D460C4605929DF83070FFF728
:104F70005DFE9DF8343078B1059A1AB10CB1216804
:104F800001B9041D21460097CDE901302B4630467A
:104F9000FFF770FF07B0F0BD6FF00300FAE700BF46
:104FA000431E033314D891F82D3013F002030DD0B3
:104FB0004B6883420FD08A68434013420BD1D343DE
:104FC00020EA0200C31AB3FA83F35B09184670475C
:104FD00001231846704700231846704708B504F0AF
:104FE00077FF20224FF0004303E0013A4FEA5303DA
:104FF00008D01842F9D12BB15B0803D01842FBD07E
:10500000002008BD012008BD2DE9F04F4C4E87B0AF
:105010000378F25C540738D50DF108090DF1140836
:105020004F46302B35D00A25421C002403E0A0F166
:1050300030041378013216F803C003F10A0E02F1AE
:10504000FF3B04FB05301CF0040F0CF0030AEED10B
:10505000102D0DD11CF0440F0AD0BAF1020F1378B5
:105060000CBF61204120AEEB000E4EEA0414E1E7D4
:105070002E2B1AD1474508D09BF801300BF10100C7
:1050800047F8044BF25C5207CBD4002007B0BDE8D0
:10509000F08F437803F0DF02582A02D00130082550
:1050A000C2E7837810250230BEE713B11CF0080F69
:1050B000EBD0A7EB09008010013004281DD801A314
:1050C00053F820F08D500408FB5004080F510408D9
:1050D00021510408D9500408FF2CD6D80298FF2883
:1050E000D3D8039BFF2BD0D8049AFF2ACDD81B041A
:1050F00043EA006343EA02231C430191F1B12046D5
:1051000004F0E6FE0199034601200B60BEE7B4F10E
:10511000807FBAD2029BFF2BB7D844EA0364ECE746
:10512000B4F5803FB1D2029AFF2AAED8039BFF2B81
:10513000ABD81B0443EA02631C43DEE70120A5E76A
:10514000E1F7050800B583B001A9FFF75DFF20B9BD
:105150004FF0FF3003B05DF804FB019803B05DF839
:1051600004FB00BF2DE9F04F83B00368884600269A
:105170000DF104090DF1080A2B4F2E20019319F8A7
:1051800001CB4FF0000BA7FB0C43DE460BF10104F3
:1051900065464FEAD30B092D0BEB8B03ACEB4303B6
:1051A0005FFA8BFC0DF1080B03F13003F34403F0BD
:1051B000FF030BF8083C5FFA84FBE4D809F801CC44
:1051C000BBF1000F2DD0B24227DD4546A2EB060C05
:1051D00001364444C644E044761B03E045451CD0F8
:1051E00013F8083C05EB060C05F8013BAEEB050394
:1051F0000DF1080BAC42DBB25B44EFD194450CF1EE
:1052000001060ADAA046D14508F8010BB7D1002300
:105210000846237003B0BDE8F08F002003B0BDE85E
:10522000F08FB4464446E9E7CDCCCCCC10220149FE
:10523000FFF798BFF848002010B50446406908B150
:1052400004F00AFB21460520BDE8104004F02CB80C
:105250002DE9F0414568074688466B689A880AB38D
:10526000002600E0636828461C6804F0F9FA03464B
:105270002846254633449EB204F0EEFA002CF1D1C4
:10528000164C0420394623689F423B6814BFC8F877
:105290000030236004F008F8A38830469B1BA380ED
:1052A000BDE8F0811A68C468426082687969006963
:1052B000D9600121986028461A605C60BA691A6159
:1052C000FFF7B0FC284604F0CBFA0646284604F067
:1052D000C3FA7D68002DD3D06B68C4E7084900206D
:1052E0002DE9F8430027DFF8688005460E46D8F818
:1052F0000030F3B10024D5F80CE02146A446204646
:105300005A69724518D0013420B193F81F90C27FBA
:10531000914501D8614618461A689C461346002AF2
:10532000EED110B1FFF794FF0744B74201DA012C28
:10533000DDDC3846BDE8F8839A69D5F810904A4517
:10534000E1D1B3F80C90AA889145DCD1E4E700BF25
:105350000849002038B50A4B186840B10024C37FC3
:105360005A1E2BB10446C27700680028F7D138BD19
:1053700005682146FFF76CFF28460028EFD1F6E7C5
:10538000084900202DE9F04F476883B005463B7877
:1053900003F00F03052B6DD1F88804F095FD8246CC
:1053A000788804F091FD3B7803F00F03B0EB830F96
:1053B0004FEA83065ED3DFF84C93861B284604F041
:1053C0004FFAB9F80430B6B2804603440A2B47DCE2
:1053D000D9F80040002C00F0C180FA6803E024688E
:1053E000002C00F0BB8063699342F8D13B69A1694E
:1053F0009942F4D1A189BB889942F0D1F88804F090
:1054000063FDC0F30C00002800F09580FB88CAF310
:105410000C0A13F020034FEACA07009307D1BB1907
:105420009BB29F4212D84FF6EB7293420ED8D5F83A
:1054300004B0BBF8020004F047FD9BF8002002F026
:105440000F02B0EB820F4FEA82031BD263688BB965
:10545000D9F80020944200F0968022681A60FFDE9E
:1054600001463846FFF73CFF20B1B9F80430434409
:105470000A2BADDD2846002604F0EEF9304603B0D5
:10548000BDE8F08FC31ABBF806001FFA83FA04F0D8
:105490001BFDC0F30C00D5F804B0C2000AEB0203F8
:1054A000ABF80420ABF806309BB2194601930023F9
:1054B0008A428BF800308BF801308BF802308BF881
:1054C0000330C3D86168002900F0AE804FF0010AB4
:1054D00094460DE0CED0B3F806E0F445CAD322B12D
:1054E000D288824218BF4FF0000A1968002960D0A4
:1054F0001A464B6898888445ECD21346CBF80010C6
:1055000062469C46002B7AD0DB889A42B2D301993E
:105510008142AFD89A42CCF800504DD0009B002B6E
:1055200076D0A37FDB074FD4B9F804300026984427
:10553000A9F80480A2E7E08904F0C6FCC0F30C00DF
:1055400000283FF463AF3B687868B968FA68A360E5
:10555000E060216162613B69A36157E7042003F0C9
:1055600077FE0446B8B10023E361A360E3602361E2
:105570006361A3616360D9F80030C9F8004023601B
:105580000F23E377DFE7236821460420C9F80030C2
:1055900003F08AFE6EE741463846FFF7A1FE8045DC
:1055A0003FF768AF042003F053FE04460028DAD129
:1055B00060E7F4451D60B1D1009B7BB1A37FD907A3
:1055C000B2D5BAF1000F37D1B9F804309844A9F830
:1055D00004800026304603B0BDE8F08FBAF1000F1A
:1055E00016D06368A3B15B689B884BB3B9F80430ED
:1055F0009844009BA9F80480002BEAD10DE0019BA0
:1056000083423FF637AF6560D6E7BBF80430BBB1E5
:10561000B9F804309844A9F80480A37F3E4443F0CD
:105620000103A683A377D4E7009B6560002BECD031
:10563000A37FDA077FF578AF6368002BC4D0D2E789
:10564000DBF800204AB1019900E0D98853689A88B4
:105650008A42CBD11A68002AF7D1B9F804309844AD
:10566000009BA9F80480002B4AD1A37FB81943F00E
:10567000010380B2A377A08363681430E7685E6893
:1056800080B2A36821696269356877603360B16070
:10569000F260A369336104F017FC00237080B371DA
:1056A000F371B372F37266685DB16F6828461421B6
:1056B00004F022F82946304604F0EAF83D68002D4F
:1056C000F3D1D9F80030A34207D0002B3FF4C5AE88
:1056D0001A68A24211D01346F7E72368C9F80030D0
:1056E0002146042003F0E0FD304604F0B9F8B9F893
:1056F0000430181AA9F80400C0E622681A60EFE71F
:10570000A08BB9E7084900202DE9F04F8B8C8DB0B4
:10571000D0F8049005460A92B3F11402079148BFED
:10572000A3F10D02C2F3CF03069399F8003003F002
:105730000F03052B4FEA830740F0BD804389132BED
:1057400040F2B980B9F8060004F0BEFB2B89C0F323
:105750000C02143B059200F400529BB20B9203938F
:10576000002B00F09180069B0024DB009BB2089385
:105770004FF4207214210E2003F060FE089B039A60
:105780008046934228BF13460493002800F090807F
:105790004368D9F80020D9F80460D9F80800D9F88E
:1057A0000C101A605E609860D960D9F810201A61F8
:1057B000049BD8F804200992002B32D002936C8904
:1057C0000520029BE41BA4B29C4228BF1C46002C6F
:1057D0005CD003F03DFD8246412221460020BAF113
:1057E000000F5AD0019453466E6806EB070CCDF8B3
:1057F00000C003F0E3FE83462846BBF1000F48D00B
:1058000004F038F82D4B59464046CAF81030CAF813
:10581000145004F03DF8029B1E1BB3B20293002B00
:1058200034D1079B2744059A9B8CBFB2C2F30C006E
:10583000039A133B934238DD0B9B002B35D104F0C8
:1058400043FB099E049BF08003F1140080B204F036
:105850003BFB00237080414607980A9AB372F372AB
:1058600043699847404603F0F7FFDDE90323A2EBC5
:10587000030BDDE9053213441FFA8BF29BB203924E
:105880000593002A7FF474AF00200BE02D680027F9
:1058900095E75146052003F007FD404603F0DCFF85
:1058A0004FF0FF300DB0BDE8F08F40F40050C6E778
:1058B0004FF0FF30F6E76FF00500F3E739520408C8
:1058C00003F0CABF294C00B5204683B0FBF790FF18
:1058D00063680BB1A0689847244D05F10C0610E0F1
:1058E00068B12846FBF78AFF224601A93046FBF73C
:1058F000C5FF04462846FBF77BFF013411D104F0B5
:105900009BFA04F0CFFA431C0446E9D12846FBF782
:1059100075FF002201A93046FBF7B0FF2846FBF7D0
:1059200067FF019C002CECD02378012B11D0022BB7
:105930000BD0002BE5D16068D4E90213984780B9F9
:105940002146092003F0B0FCDBE7D4E90130984799
:10595000D7E7D4E9013098472146082003F0A4FC9A
:10596000CFE7606803F078FFEAE700BF1049002046
:10597000F8B5074609200E46154603F069FC90B1BC
:105980000446002347600146866003700748E560CF
:10599000FBF754FF00B9F8BD2146092003F084FC51
:1059A0004FF0FF30F8BD4FF0FF30F8BD1C4900202C
:1059B000F8B591F82D3007460C46092013F018056C
:1059C00015D003F045FC054628B30022134B0146D1
:1059D000C0E9017412482A70EB60FBF72FFFA0B1F9
:1059E0002946092003F060FC4FF0FF30F8BD03F0BA
:1059F0002FFC064678B10B4B0146057047600848FE
:105A0000C6E90243FBF71AFF08B90020F8BD31468A
:105A1000092003F049FC4FF0FF30F8BD6DDA0408AF
:105A20001C4900209D4C040838B5054608200C464A
:105A300003F00EFC48B101460122C0E901540448BC
:105A40000A70FBF7EDFE002038BD4FF0FF3038BD87
:105A50001C49002070B5064608200D4603F0F8FBEF
:105A600088B1044601230146C0E901650748237057
:105A7000FBF7E4FE00B970BD2146082003F014FCDA
:105A80004FF0FF3070BD4FF0FF3070BD1C4900205B
:105A900070B5064E0D4604463046FBF7A9FE284673
:105AA000A0473046FBF7AAFE002070BD1049002039
:105AB00070B5074E0D4604463046FBF799FE284662
:105AC000A04704463046FBF799FE204670BD00BF54
:105AD0001049002038B5054608200C4603F0B8FBF5
:105AE00018B10223C0E90154037038BD01460820F3
:105AF00003F0DABB01460148FBF7A0BE1C490020B9
:105B000001460148FBF7AABE1C49002070B50D4CA8
:105B100082B006460D4603F077F9062104F10C0029
:105B2000C4E90165FBF76EFE20462024FBF752FE18
:105B30004FF400630022044900940448FBF734FE4C
:105B400002B070BD10490020C558040898F505083A
:105B500038B50546082003F07BFB90B101220A4BC3
:105B6000044601468560027043600848FBF766FE04
:105B700000B938BD2146082003F096FB4FF0FF30F6
:105B800038BD4FF0FF3038BDC15804081C49002013
:105B900038B50546082003F05BFB90B101220A4BA3
:105BA000044601468560027043600848FBF746FEE4
:105BB00000B938BD2146082003F076FB4FF0FF30D6
:105BC00038BD4FF0FF3038BD658E04081C490020F9
:105BD00070B40023144DEFF3108472B6BFF34F8FEF
:105BE000BFF36F8F1A01AE584EB104B962B60133DC
:105BF000042BF0D14FF0FF3370BC18467047A8500B
:105C000004B962B62A44002401F0010154601481F1
:105C10000078948100F0F000102818BF41F00101D5
:105C2000184670BC51817047204900202DE9F04F83
:105C300089B0002500280DF1080B02950495CBF8DA
:105C400004500795CDE905554BDD494C4FF0010E49
:105C5000AC4600295AD04FEA5C1651F826700CF079
:105C60001F060EFA06F63E4250D0EFF3108672B6CB
:105C7000BFF34F8FBFF36F8FBCF1030F6AD8676814
:105C8000B4F908A00197B4F80A90A78906B962B6DA
:105C900059B10EFA0CF80E6818EA060F05D0019EED
:105CA000002E51D1BAF1000F4EDC42B10EFA0CF8C1
:105CB000166818EA060F02D0B9F1000F3ED15BB1A9
:105CC0000EFA0CF81E6818EA060F05D027B1069EDA
:105CD000013546EA080606960CF1010C10346045C1
:105CE000B7D19BE80300129B83E8030004AB93E861
:105CF0000300139B83E8030006AB93E80300149BA7
:105D000083E80300284609B0BDE8F08F4AB14FEAA6
:105D10005C1652F826700CF01F060EFA06F63E428C
:105D2000A3D1002BD8D04FEA5C1653F826700CF0A4
:105D30001F060EFA06F63E4297D1CDE7049E0135C6
:105D400046EA08060496BAE7029E013546EA0806C6
:105D50000296AAE72EB14FF0FF35284609B0BDE8FC
:105D6000F08F62B64FF0FF35284609B0BDE8F08FDE
:105D7000204900202DE9F04F85B0002900F09380E4
:105D8000002302F0020502F00104844602F004023E
:105D9000DFF81CA19E461E460295039250F8332060
:105DA000002C4FD0002AACF806603ADBEFF31087E6
:105DB00072B6BFF34F8FBFF36F8FDCF80020032A5A
:105DC0005CD80AEB02125568B2F908B00195029D41
:105DD000B2F80A90B2F80C80002D3FD0957B0E32BD
:105DE0000135EDB21570002D56D007B962B6BCF87A
:105DF0000420D50705D5019D002D38D1BBF1000F3A
:105E000035DCBCF90650920702D5B9F1000F11D16B
:105E1000B8F1000F1FD045F00405ACF806500EF1A4
:105E2000010E01330CF1080C9942B7D1704605B050
:105E3000BDE8F08F45F00205ACF80650B8F1000F50
:105E4000E9D1ECE7002A04DBBCF806201707E6D40A
:105E5000ACE7BCF90650002DE3D0E0E7039D002D30
:105E6000C3D0957B002DC0D0013D9573BDE7BCF933
:105E7000065045F00105ACF80650C4E707B962B614
