:020000040804EE
:1000000000000100FFFFFFFF01000100A5A5A5A55D
:100010007765627365727665722E62696E000000A4
:1000200000000000000000000000000000000000D0
:1000300000000000000000000000000000000000C0
:1000400000000000000000000000000000000000B0
:1000500000000000000000000000000000000000A0
:1004000000000820C1060408BD060408BD06040853
:10041000BD060408BD060408BD060408000000006F
:100420000000000000000000000000000136050888
:10043000BD0604080000000099360508A936050825
:10044000BD060408BD060408BD060408BD06040870
:10045000BD060408BD060408BD060408BD06040860
:10046000BD060408BD060408BD060408BD06040850
:10047000BD060408BD060408BD060408BD06040840
:10048000BD060408BD060408BD060408BD06040830
:10049000BD060408BD060408BD060408BD06040820
:1004A000BD060408BD060408BD060408BD06040810
:1004B000BD060408BD060408BD060408BD06040800
:1004C000BD060408BD060408BD060408BD060408F0
:1004D000BD060408BD060408BD060408BD060408E0
:1004E000BD060408BD060408BD060408BD060408D0
:1004F000BD060408BD060408BD060408BD060408C0
:10050000BD060408BD060408BD060408BD060408AF
:10051000BD060408BD060408BD060408BD0604089F
:10052000BD060408BD060408BD060408BD0604088F
:10053000BD060408311C0408BD060408BD060408F5
:10054000BD060408BD060408BD060408BD0604086F
:10055000BD060408BD060408BD060408BD0604085F
:10056000BD060408BD060408BD060408BD0604084F
:10057000BD060408BD060408BD060408000000000E
:10058000BD060408BD060408BD060408BD0604082F
:10059000BD060408BD060408BD060408BD0604081F
:1005A0000000000000000000BD060408BD060408AD
:1005B000BD060408BD060408BD060408BD060408FF
:1005C000BD060408BD06040800000000BD060408BE
:1005D000BD060408BD060408BD060408BD060408DF
:1005E000BD060408BD060408BD060408BD060408CF
:1005F00000000000BD06040800000000000000002C
:1006000010B5054C237833B9044B13B10448AFF34C
:1006100000800123237010BD10080020000000009E
:10062000FCC1050808B5034B1BB103490348AFF3F0
:10063000008008BD0000000014080020FCC105086F
:10064000A3F5803A704700BF174B002B08BF134B30
:100650009D46FFF7F5FF00218B460F461348144ACD
:10066000121A13F072FE0E4B002B00D098470D4B60
:10067000002B00D098470020002104000D000D48F9
:10068000002802D00C4813F0D3FF13F019FF20000C
:10069000290000F0DBF813F0B7FA00BF00000800F3
:1006A0000000000041170408000008201008002086
:1006B000A00E012031460508A97B0508FEE700BF12
:1006C000214B83F30888BFF36F8F00F07FF81F4C36
:1006D0001F4BA34215D29C46DCF808306BB10023B7
:1006E000DCE900120439043A51F8040F013342F8EE
:1006F000040FDCF808008342F6D30CF10C0CA4457F
:10070000EAD3144A144B9A421CD203F1FF3C02F183
:10071000100302F108000024ACEB020C2CF0070CD3
:100720009C4450F8043C53B150F8082C0023043A80
:10073000013342F8044F50F8041C8B42F8D30830C0
:100740006045EED1FFF780FF0000082098C2050841
:1007500080C2050898C20508A8C20508164A936811
:1007600003F00C03042B25D0082B0AD0134B124A9C
:10077000134892681349C2F30312825CD3400B60A2
:100780007047536851685B02536801F03F0148BFEE
:100790000D48C3F3881358BF0848B0FBF1F202FBC1
:1007A00003F3054A5268C2F3014201325200B3FB1F
:1007B000F2F3DCE7044BDAE7003802400024F400EF
:1007C00058A8050864000020002D3101064B074A97
:1007D00007499A60D3F88820064842F47002C3F8AB
:1007E00088200860FFF7BABF00ED00E000040408AD
:1007F0006400002000C2EB0B0EF060BD08B5104B8A
:100800000521186810F066FF0E4B4FF4405240F27D
:1008100077109A6111F004F8002001F06FFC0A488B
:1008200013F074FC002001F0EBFB002001F0D4FC7D
:10083000002001F0FDFE12F033F912F0E9F9FAE7B9
:100840002C0800200004024070A8050810B5114CC7
:100850008AB000F067FA01F003FC201D0EF0D6FC10
:1008600012F06CFD2422002101A813F06EFD4FF45C
:10087000805301AA00210848069312F0D9F80023FA
:10088000012106481A4610F0EBFE206012F0B6FD7A
:10089000FEE700BF2C080020FD070408F907040844
:1008A00010B50C4600F03CFB08B1012010BD638878
:1008B000C3F30B03012BF9D0032BF6D194F90C30C1
:1008C000002BF2DAE4782409204600F081FC044B86
:1008D00004EB8401204603EB810100F08DFCE4E78A
:1008E00058AB0508012804D0022805D0032806D0FB
:1008F0007047002000F0F8B8024800F0F5B8024850
:1009000000F0F2B8D0AB050858AB050810B5254C7F
:100910000020214600F070FC00226FF0604312219D
:10092000104600F051FB04F11401012000F064FCBA
:100930006FF0604300221221012000F045FB04F11A
:100940002801022000F058FC6FF0604300221221C1
:10095000022000F039FB04F13C01032000F04CFCC4
:100960006FF0604300221221032000F02DFB04F100
:100970005001042000F040FC002240F6FF730420E8
:10098000114600F021FB04F16401052000F034FC65
:100990006FF06043002212210520BDE8104000F0F6
:1009A00013BB00BF58AB0508BFF34F8F0549064B7B
:1009B000CA6802F4E0621343CB60BFF34F8F00BFFD
:1009C000FDE700BF00ED00E00400FA05704700BF3E
:1009D000074A4FF4C0214FF4FA63916100BF013B15
:1009E000FCD1BFF35F8F024B4FF400029A61704756
:1009F00000240240124A80214FF4FA63916100BF43
:100A0000013BFCD10E4A06214FF47A73916100BF7D
:100A1000013BFCD1BFF35F8F0C224FF0C8404FF079
:100A200080714FF4C873016100BF013BFCD14FF4EA
:100A3000C873816000BF013BFCD1013AF1D170471E
:100A40000024024008B5054A4FF4800141F2883382
:100A5000916100BF013BFCD1FFF7A6FF00180240E7
:100A6000014698B10A4A0620D36CC3F30B030B600E
:100A70005063936843F08043936013689B07FCD5F1
:100A8000D36C0020C3F30B030B6070470120704749
:100A900000210140024640B1054B00201B696FEA6E
:100AA000131303F00F03136070470120704700BF5A
:100AB0000028024028B102684FF0C84300209A6520
:100AC00070470120704700BF024640B1054B00202F
:100AD0001B696FEA133303F00F0313707047012093
:100AE000704700BF0024024008B50D4901220D4B9C
:100AF0004FF4800504460C488D610C491A60202291
:100B000013F04AFC78220021094813F01EFC24B19E
:100B100078222146064813F015FDFFF745FF00BF78
:100B20000018024000FF012004FF012080A80508F2
:100B300024FF0120082800F29680DFE800F00E056F
:100B400005050505052A24000138C0B2032900F275
:100B50008C80DFE801F0484F565D10B4444A4FF4F2
:100B60000074444B4FF4004002299461986116D000
:100B7000032918D0012902D14FF00073936100209E
:100B80005DF8044B704703291CD8DFE801F06613B9
:100B90004851032916D8DFE801F0515717204FF0CC
:100BA00000429A61EBE74FF000704FF00041906116
:100BB0009961E4E74FF0C8434FF480014FF400021D
:100BC00019619A60002070474FF0C8434FF400113C
:100BD0004FF4801219619A60F4E74FF0C8434FF464
:100BE00040121A61EEE7C002234B4FF42062034427
:100BF0001A60E7E7C002204B4FF4106203441A600A
:100C0000E0E7C0021C4B4FF4C06203441A60D9E70E
:100C1000C002194B4FF4A06203441A60D2E74FF0B0
:100C2000C8434FF400014FF4800219619A60C9E78C
:100C30004FF0C8434FF440021A61C3E74FF0C84376
:100C40004FF440129A60BDE74FF0C8434FF4801153
:100C50004FF4001219619A60B4E74FF0C8434FF4A3
:100C600040029A60AEE7022070470120704700BF43
:100C70000024024000040240000800644FF0C84312
:100C8000254AD3F8201803F5805C03F5005001F0E5
:100C90000F01515C090741F0404110B4C3F820181E
:100CA00003F54053DCF820101C4C01F00F01515C9F
:100CB000090741F04041CCF82010DCF8201801F081
:100CC0000F01515C090741F04041CCF82018016A3E
:100CD00001F00F01515C090741F040410162D0F879
:100CE000201801F00F01515C090741F04041C0F8A4
:100CF00020184FF48030196A01F00F01525C12077E
:100D000042F040421A624FF08072054BA0615DF8DC
:100D1000044B9A61704700BF48AC050800280240A8
:100D20000020024008B500F039FB00F0F1FC002083
:100D300008BD00BF642303FB00F020B1002300BF07
:100D400001339842FBD17047F9B105281DD8C00284
:100D500000F1C843D3F80838DB0737D50B686B4A76
:100D60001A40B2F5803F10B411D01B0CB3F5805F70
:100D70002ED041F20202934224D11830644B654ACE
:100D8000043100EB030CC25017E004207047CB8AFB
:100D9000DC0728D518305E4B5F4A0C3100EB030CA2
:100DA000C25051F8043BCCF8003051F8043BCCF869
:100DB000003051F8043BCCF800300B68CCF8003020
:100DC000002000E003205DF8044B704702207047CC
:100DD000CB89DA074AD518304D4B4F4A043100EB26
:100DE000030CC250DDE70A7D13F0100F4B4B4FEAA6
:100DF00012124BD103EB42031C8CA30844F0805425
:100E0000013B0C311830424A013B00EB020C84508C
:100E1000132BD5D801A454F823F000BFBB0D040850
:100E2000B30D0408AB0D0408A30D0408030F040858
:100E3000FD0E0408F70E0408F10E0408EB0E04087A
:100E4000E50E0408DF0E0408D90E0408D30E0408CA
:100E5000CD0E0408C70E0408C10E0408BB0E04081A
:100E6000B50E0408AF0E0408A90E04080A7B13F09F
:100E7000100F2A4B4FEA12120FD103EB42031C8CC6
:100E8000A30844F08054013B0431BBE733F812401F
:100E9000A30844F08054013BB3E733F81240A308A1
:100EA00044F08054013BEFE751F8043B835051F884
:100EB000043B835051F8043B835051F8043B83506A
:100EC00051F8043B835051F8043B835051F8043BE4
:100ED000835051F8043B835051F8043B835051F840
:100EE000043B835051F8043B835051F8043B83503A
:100EF00051F8043B835051F8043B835051F8043BB4
:100F0000835051F8043B83504BE700BF0000FF0FB4
:100F100000080064080002101400001058AC050816
:100F2000002947D04FF0C843DA69BFF34F8F9B6960
:100F3000BFF34F8FD8071FD51F4B10B41A78EAB9EB
:100F40001E4AD164BFF35F8F116C3F24072041F02C
:100F5000010111641821D460C2F88400184C516753
:100F600001211848946710671970136CD907FCD4D5
:100F700000205DF8044B7047012070470F4AD1678D
:100F8000BFF35F8F116F4FF47C14072041F0010114
:100F90001167182194605065094C5164002109487B
:100FA000946410641970136FDB07FCD400205DF8A3
:100FB000044B704704207047400800200064024042
:100FC000800000648056A000052863D89A4261D84A
:100FD000B3F5006F5ED24FEA801CF0B55407304D78
:100FE0005AD0012701E0510756D00CEB521402F001
:100FF0001F019646013205EB840407FA01F1934282
:10100000666841EA06016160EDD20EF1080E734593
:1010100025D3FF260CEB521E02F01F0411460832A6
:1010200005EB8E0E06FA04F40F31DEF804708B42E5
:1010300044EA0704CEF80440ECD293420FD30127D0
:101040000CEB521402F01F01013205EB840407FA85
:1010500001F19342666841EA06016160F0D2020242
:10106000104BC10203F1FC0C101F01F1C841944464
:101070000344002242F0060453F8040FC1F810485C
:10108000BFF34F8F9C4502F18072C1F81408F1D173
:101090000020F0BD04207047D11D8B42B9D2CEE7AD
:1010A0004008002044080020052861D89A425FD8F3
:1010B000B3F5006F5CD24FEA801CF0B554072F4D9A
:1010C00058D0012701E0510754D00CEB521102F027
:1010D0001F0E1646013205EB810107FA0EFE934200
:1010E0004C6824EA0E044C60EDD20836B34224D397
:1010F0004FF0FF0E0CEB521402F01F06114608329F
:1011000005EB84040EFA06F60F3167688B4227EA76
:1011100006066660EED293420FD301270CEB521104
:1011200002F01F06013205EB810107FA06F6934231
:101130004C6824EA06044C60F0D20202104BC10253
:1011400003F1FC0C101F01F1C84194440344002238
:1011500042F0060453F8040FC1F81048BFF34F8F54
:101160009C4502F18072C1F81408F1D10020F0BD55
:1011700004207047D11D8B42BAD2CEE74008002030
:101180004408002005281FD8104B0202C00203F1BA
:10119000FC0C111F00F1C840944400220B4430B5F0
:1011A00000F6140E1546144642F0060143F8045F9B
:1011B000C0F81018BFF34F8F634502F18072CEF86C
:1011C0000040F1D1002030BD0420704744080020C9
:1011D00005280ED80203C00242F0010200F1C84304
:1011E000C3F81028BFF34F8F00221046C3F814280D
:1011F00070470420704700BF002900F0B480052824
:1012000010B594BF00240124002C40F08380030318
:101210004FEAC02C43F001030CF1C842C2F8103869
:10122000BFF34F8F4023C2F81448C2F800384FF480
:10123000FA7000BF0138FCD1D2F808389B07F6D508
:1012400080234C4CC2F800380B68A34213D04A4CA0
:10125000A3427ED0494CA3427FD0494CA3425BD0ED
:10126000484CA34200F08180474CA34279D13123FE
:10127000C2F8003802E03223C2F800384B7A0CF191
:10128000C84E8A7A013B8C881204013C42EA036210
:10129000CB88013B42F004021B0243EA04430C7A70
:1012A000CEF81028013C2343BFF34F8FCEF81438FB
:1012B0008A7C0B7CCC89013A013B013C12061B0263
:1012C00042F0050243EA04434C7CCEF81028621E2B
:1012D0001343BFF34F8FCEF814380B7B012B28D06C
:1012E000022B1DD0002B3CD1284ACEF81028BFF38A
:1012F0004F8FCEF81438CB7A0CF1C84C002B0CBFB2
:1013000002230323CCF81038BFF34F8F0023CCF80F
:10131000143810BD042010BD2923C2F80038ADE7F1
:101320001B4BCEF81038BFF34F8F0023CEF8143884
:10133000E1E7184BCEF81038BFF34F8F0023164A61
:10134000CEF81438CEF81028BFF34F8FCEF81438EB
:10135000D1E72123C2F8003890E72523C2F80038EE
:101360008CE7052010BD042070472D23C2F80038FB
:1013700084E700BF00B4C40400879303005A6202EC
:1013800080C3C90100366E01002D31010C0014002C
:101390000B0014000B0004000C001000094B00208F
:1013A00009494FF47C1210B4087007249A60182081
:1013B0000649074A5C6558645DF8044B99641A64F1
:1013C000704700BF006402404008002080000064B5
:1013D0008056A0001A4B9A6912F0300F05D03021C8
:1013E000D9619A6912F0300FFAD1164B14491B7863
:1013F00043F000734B60BFF34F8F4A680020124BDD
:1014000042F400524A608A6912F0100F0DD010B4F5
:101410004C68012044F480444C60013B0AD09206A1
:1014200009D48A69D406F8D5F2E7013B06D09206C2
:10143000E9D5704704205DF8044B704704207047DD
:1014400000540040440E0020A086010010B5FFF7B4
:10145000C1FF0028FBD1274B9A6912F0220F05D05B
:101460002221D9619A6912F0220FFAD1224C214A25
:10147000D4E90131DB0B023103F00E0343F0A0038A
:1014800043EA014123705160BFF34F8F536843F427
:101490000053536093699907FCD560681549C0F300
:1014A000072393628B699A07FCD5C0B2A368886250
:1014B0006BB112490F4A0B44083103F108009369DC
:1014C0009B07FCD511F8013F88429362F7D1094A86
:1014D00093695906FCD500235360BFF34F8F4FF437
:1014E0008043044953608B699B06FCD5002323731A
:1014F00010BD00BF00540040440E0020480E0020E4
:10150000002A00F09980B0F5002F2DE9F04706463B
:1015100080F0818083189146B3F5002F7BD88846F0
:10152000002978D0454D2B7B002B7ED1C144444C03
:1015300066276B68B34203D8F31AAA68934260D354
:101540002B7B26F07F0A002B68D18023C5E901A3FD
:10155000FFF740FF0028FBD1A36913F0660F04D00A
:10156000E761A36913F0660FFAD14FEADA3303F0AB
:101570000E0343F0A00343F400322B706260BFF30C
:101580004F8F636843F400536360A3699807FCD5E9
:101590006A68C2F30723A362A3699907FCD5D3B293
:1015A000A362A3695B06FCD5D30B264A03F00E03A6
:1015B00043F0A0031A432B706260BFF34F8F626841
:1015C000AB6842F40052012B62600CD91E4A1344EE
:1015D000083203F10801A3695807FCD5636A02F8D1
:1015E000013F8A42F7D100236360BFF34F8F4FF46E
:1015F00080436360A3699B06FCD56B680022F31AE5
:101600002A732B4401365B7B08F8013BC84590D117
:101610000020BDE8F0870220BDE8F087AB6813B179
:10162000FFF714FF91E72B738FE7AB6813B1FFF758
:101630000DFF7BE72B7379E702207047440E0020F3
:101640000054004000048000480E0020B0F5002F38
:101650003CD2002A3AD02DE9F04100EB02080446C2
:10166000B8F5002F34D80E4691B31C4D01270DE07C
:10167000AB68BBB1FFF7EAFE2B7B9BB1D5E9012339
:101680001A44A24227D00134A04517D06A6844F01A
:101690007F0342F07F018B4201D1A24211D92B7B03
:1016A000002BE5D1012200236C602F7301342B4401
:1016B000AA60A04516F8012B5A73E7D10020BDE8B7
:1016C000F081AB681A44A242D6D2E8E70220704704
:1016D0000220BDE8F0815A1CE8E700BF440E00205C
:1016E00010B50A4C237B43B1A36833B1FFF7AEFEBC
:1016F000FFF770FE18B9A06010BD00232373FFF739
:1017000069FE0028FBD1A06010BD00BF440E002080
:10171000044B00224FF0FF30A0211A731970C3E967
:10172000010257E6440E0020FEE700BF012800D06A
:10173000FEE7024808B512F081FCFEE794A8050810
:1017400011F0FCBD00EB800010F06AB808B511F094
:10175000F5FE024BA3FB0030800808BDCDCCCCCCFD
:1017600008B511F0EBFE024BA3FB0030800808BD6A
:10177000CDCCCCCC704700BFF0B58BB0164604463C
:101780000D462022002102A81F4612F0DEFD109B0C
:1017900001AA3146284606970194079311F048F9AB
:1017A0000BB0F0BD10B5044604480FF00BFDB0FAC5
:1017B00080F320605B09584210BD00BF9CAD050856
:1017C0004FF0FF3100680FF031BD00BF00680FF02F
:1017D0004BBD00BF0B460022042110B5044618463D
:1017E0000EF06AFBB0FA80F320605B09584210BD2E
:1017F00010B582B00C464FF0FF33002201A90068FB
:1018000001940EF091FB02B010BD00BF10B5002393
:1018100082B00C46006801A91A4601940EF084FBC0
:10182000003818BF0120404202B010BD10B500239F
:1018300082B00C46006801A91A4601940EF074FBB0
:10184000003818BF0120404202B010BD10B500683A
:1018500082B00C4662B102EB820301A900220EF0B5
:10186000B1FB02300BD0019B0020236002B010BD01
:101870004FF0FF3301A90EF0A5FB0230F3D14FF07A
:10188000FF3002B010BD00BF10B500220446012099
:101890000FF0C8F918B103460020236010BD4FF0C7
:1018A000FF3010BD00680EF041BC00BF00680FF0B3
:1018B00031BA00BF00680FF085BA00BF10B5002331
:1018C00082B00C46006801A91A460EF07BFB18B9DD
:1018D000019B236002B010BD4FF0FF3002B010BD7D
:1018E000006808B541B101EB81010FF0D3F9003870
:1018F00018BF0120404208BD4FF0FF310FF0CAF978
:10190000003818BF0120404208BD00BF00680FF03A
:10191000DFBC00BF2D4B2DE9F04FDE6A83B08B4654
:10192000B36800294FD0002540F2F459A846326828
:10193000002A1DDBBBF80A2057194F453ED9002469
:1019400002E04F45B36823D9A9EB050ADBF8041080
:101950005819A7F2F4572144524612F0F3FD04F24D
:10196000F454F668D044641B00253368AB42E8DACF
:101970006FF00700154B1B6803F580535A699206F8
:1019800003D52021002259615A6003B0BDE8F08FD1
:1019900018463D46DBF804103A460193B84421440A
:1019A00012F0D0FDDBF800B0019BBBF1000FBED1FF
:1019B000414606480CF014F90020DBE758190024D2
:1019C0003D461746E6E78846F2E700BFD40E002002
:1019D0002DE9F04FDFF808A183B007464FF0FF3143
:1019E000DAF848000FF056F90028F7D13E463C4897
:1019F0000CF0BCF9054688BBBAF83C10DAF8407028
:101A000071BB0024DAF83800DAF8303040B1002138
:101A10001A68013142F0004288421A60DB68F7D14F
:101A2000DAF80030002203F58053CAF838205A69EA
:101A3000120603D580225A6100229A6074B133697C
:101A40003146204698470028D1D0204607F052FD65
:101A500023480CF08BF905460028CDD03746BDE76A
:101A60004FF4C17207F030FB0028CAD0B846DAF84C
:101A70003070834640F2F459CDE900063E46BBF88B
:101A80000A2057194F4525D900244146DBF80400A8
:101A9000A7F2F4572944A9EB0502204404F2F454B8
:101AA00012F050FDF6684F45A4EB0504B1684FF005
:101AB0000005EBD888463D46DBF804003A46204452
:101AC00012F040FDDBF800B0BBF1000FD7D1DDE92B
:101AD000004697E708EB050100243D461746EBE773
:101AE000D40E00202F4B02689A4200D07047A3F515
:101AF00090434FF4C04002211A6B42F00072D0B5FF
:101B00008AB01A631A6B0B240026032702F00072B6
:101B10000192019A1A6B42F080621A631A6B02F00A
:101B200080620292029A1A6B42F000621A631B6B87
:101B3000089403F00063CDE90401039304A91A4853
:101B4000039BCDE906670CF08FFC3222022304A927
:101B500016480894CDE90423CDE906670CF084FC0F
:101B60008622022304A912480894CDE90423CDE972
:101B700006670CF079FC02234FF4006204A90D48BB
:101B80000894CDE90423CDE906670CF06DFC002232
:101B900005213D200DF07AFC3D200DF0B3FC0AB08C
:101BA000D0BD00BF00800240001802400008024083
:101BB0000000024000040240026808B5144B9A423B
:101BC00000D008BDA3F590434FF4C04111481A6BF3
:101BD00022F080621A631A6B22F000621A631A6B99
:101BE00022F000721A630CF075FD32210A480CF0E5
:101BF00071FD862109480CF06DFD09484FF4006124
:101C00000CF068FD3D20BDE808400DF089BC00BF28
:101C1000008002400018024000080240000002401C
:101C200000040240014B986C0FF074B8D40E0020F1
:101C300001480CF0EFB800BFD40E002010B5094CDD
:101C400082B0112101AA20460CF022F9019A11213B
:101C5000204622F4F04242F4B04201920CF052F9D4
:101C600002B010BDD40E00203A4B47F273413A4AFD
:101C7000F0B53A4D8DB001264361394B01AF826119
:101C80004FF40062C185044639463648C5E900363E
:101C90004FF48043C5E90232032306222B82FFF76B
:101CA0002FFC00224FF400032846C5E90576C5E95C
:101CB00007230CF05FF928B994F82D3043F00403A2
:101CC00084F82D3028490423284AA1F14C000BF058
:101CD000EBFE27490423274AA1F1CC000BF02CFF8F
:101CE0006B69062240F2DC5184F82C20187894F8B5
:101CF0002D2084F82600587842F00A0284F8270044
:101D0000987884F82800D87884F82900187984F81D
:101D10002A005B79A184012184F82B3084F82D20DE
:101D2000084600220EF07EFF2422A864002103A8AA
:101D30004FF4007512F009FB302303AA21460E4828
:101D4000CDE9085310F074FE04480CF011FA00209D
:101D50000DB0F0BD2947040815190408D40E002061
:101D600000800240F8FF0700200F00202010002014
:101D7000A00F0020F0270020D1190408BFF34F8FD7
:101D80000549064BCA6802F4E0621343CB60BFF317
:101D90004F8F00BFFDE700BF00ED00E00400FA0533
:101DA0001AB3F0B5558985B0144600262A4601A815
:101DB00061680396184FCDE9016612F0C3FB05F187
:101DC0001003396801A80DEB030505F80C6C12F03F
:101DD000A7FBB0B1796801A812F0A2FB30B1204690
:101DE00005B0BDE8F04007F085BB70470B4812F026
:101DF0008DF94FF47A700FF013FD00F055FCFFF7EA
:101E0000BDFF074812F082F94FF47A700FF008FD19
:101E100000F042FCFFF7B2FF6C000020C8A80508E4
:101E2000ACA8050830B583B0144C154D0BF012FD6D
:101E300041F27A7201A9206001950BF0B5FC0BF01C
:101E400009FD01A941F29232019560600BF0ACFCF2
:101E50000BF000FDA06058B141F6907209490BF0FB
:101E600029FB00220849A0680BF0D6FC03B030BD66
:101E7000064812F04BF9A068EEE700BFC03F002013
:101E8000C0A8144548BC0508A11D0408E0A8050821
:101E9000114A002310B598B010681A4669460EF032
:101EA00091F808B118B010BD4FF4C172602136200E
:101EB00007F00AF904460028F4D06022694607F0CA
:101EC0006DFC064B214658680BF05CFC204607F081
:101ED00011FB18B010BD00BF84400020C03F00209F
:101EE00030B51F48ABB0002312A900681A460EF0A7
:101EF00069F808B12BB030BD04469DF85C30BDF8E0
:101F00005E0019A91D09189A00F00100C3F303131C
:101F100000922A468DF8050002A88DF8043012F0D0
:101F200011FB05F108002146C5F14002684412F09A
:101F30000CFA4FF4C1724821362007F0C5F8044668
:101F40000028D7D04822694607F028FC054B2146D7
:101F500058680BF017FC204607F0CCFA2BB030BDC8
:101F600084400020C03F00201B4A002330B5ADF55F
:101F7000017D10681A4669460EF024F810B10DF57F
:101F8000017D30BD154D694605F10C0012F0D2FA05
:101F900005F10C0012F0E4FA01464FF4C17236204C
:101FA00089B207F091F804460028E8D005F10C004A
:101FB00012F0D6FA024605F10C01204692B207F063
:101FC000EDFB214628680BF0DDFB204607F092FA76
:101FD0000DF5017D30BD00BF34400020C03F002022
:101FE000064C08B5FFF7C0FFFFF752FF20460DF083
:101FF0000DF964200FF014FCF4E700BF3008002056
:1020000008B5044A0021044810F012FD034B18677C
:1020100008BD00BFACAD0508E11F0408C03F0020AB
:1020200030B5ADF5017D14460D464FF40072002128
:10203000684612F08AF922462946684612F0ACF941
:102040000023064869461A460DF8043000680DF072
:102050006BFF20460DF5017D30BD00BF34400020F0
:10206000044B40F6FF7204480321C3E90222C3E98E
:10207000000170473008002000300040002130B5DA
:10208000194C85B00846194D03F064FC23461849E5
:10209000184A43F8181FE160002102956FF07F4550
:1020A0001548019004F11C006260226104F11402E1
:1020B000009104F11001A560656107F033FF04F1A0
:1020C0001C0007F0DBFF94F8493004F11C005B07AB
:1020D00004D505B0BDE8304007F0D6BF05B0BDE877
:1020E000304007F0EBBF00BF34400020FD5704082C
:1020F000C0A81401C0A81448691C040810B5002029
:102100000E4CFFF7BBFFFFF78DFE00224FF400716E
:1021100005200DF0D1FE0346002260210A20236035
:102120000DF0CAFE034641F2883023650FF078FBBC
:102130000348BDE810400DF069B800BF34400020EE
:102140003008002000B597B00824FEF7DFFB02211D
:102150000120FEF7EFFC02210846FEF7EBFC02210E
:102160000320FEF7E7FC02210420FEF7E3FC022136
:102170000520FEF7DFFC02210620FEF7DBFC9DF8C0
:1021800010304FF48051322264F307130E48ADF83B
:102190000610ADF812200D490D4A0E4C8DF8103086
:1021A0000792CDE9050120460DF030F89DF81F306B
:1021B00001A9002001338DF81F30FEF7C5FD41F263
:1021C00088300FF02DFBEEE778563412AABBCCDD39
:1021D000112233443008002010B55E21ADF5816D29
:1021E000114C009102A82346104A114912F01CF824
:1021F000104B0DF5027C0FCBACE807002CF8023B2E
:102200001B0C82AA02A90C488CF8003011F016FFB2
:10221000002104F10C02094810F00AFC084B186078
:102220000DF5816D10BD00BFD0AD050832A90508C0
:102230003CA9050848A9050858A90508452104082E
:10224000AC4000202DE9F04FBD4CADF20C6DBD4E01
:10225000DFF82093BC4FDFF8208338460CF0D6FF20
:102260002146FF20FEF71CFB002840F0E380E378C6
:102270001B09052B00F28B81DFE813F0F200490106
:10228000E000CB007200060073790620012B83F07A
:10229000010214BF032102217271FEF74BFCE323FC
:1022A000AA4AAB4982A80093434611F0BDFFA94B4F
:1022B0000DF5816293E80300ADF80C14090CCDF81C
:1022C00008048DF80E1482A9A34811F0B7FEE42388
:1022D0009E4A82A89E490093434611F0A5FF237DA4
:1022E000A2690DF581601B099C4911F09DFF0DF558
:1022F000816282A9984811F0A1FE00238DF8083070
:10230000237D1B0917D0DFF874A2DFF874B255469D
:1023100002A812F025F90DF1080C1A3D1AF8013F38
:10232000C0F500715A4660442D1B11F029FF237D32
:10233000B5EB131FEBDBED23009382A84346834AE2
:10234000834911F071FF02AA85490DF5816011F0F2
:102350006BFF0DF5816282A97F4811F06FFE69E085
:1023600033790520012B83F0010214BF03210221E0
:102370003271FEF7DFFBC723744A754982A80093C8
:10238000434611F051FF774B0DF5816293E803004E
:10239000ADF80C14090CCDF808048DF80E1482A9C0
:1023A0006D4811F04BFEC823684A82A86849009323
:1023B000434611F039FF237DA2690DF581601B09A9
:1023C000694911F031FF0DF5816282A9624811F06F
:1023D00035FE00238DF80830237D1B0917D0DFF868
:1023E0009CA1DFF89CB1554602A812F0B9F80DF196
:1023F000080C1A3D1AF8013FC0F500715A466044B6
:102400002D1B11F0BDFE237DB5EB131FEBDBD0239D
:1024100092E7F378554883F00103F37011F076FEEC
:10242000F378002B7ED003210420FEF783FB4F4876
:1024300011F06CFE05200FF0F3F90EE7B37883F08E
:102440000102012BB27072D003210846FEF772FB25
:102450000023474A214610681A460DF065FDE9E75A
:10246000307880F001030128337065D0032101200A
:10247000FEF760FB4923354A354982A8009343465D
:1024800011F0D2FE0DF5816299E80300ADF80C144D
:10249000090CCDF808048DF80E1482A92E4811F00D
:1024A000CDFD4A23294A82A829490093434611F0C9
:1024B000BBFE237DA2690DF581601B09274911F040
:1024C000B3FE0DF5816282A9234811F0B7FD002308
:1024D0008DF80830237D1B0917D0DFF8A0A0DFF8A6
:1024E000A0B0554602A812F03BF80DF1080C1A3DB9
:1024F0001AF8013FC0F500715A4660442D1B11F0D7
:102500003FFE237DB5EB131FEBDB532314E77378FA
:1025100083F00102012B727034D003210220FEF7F8
:1025200009FB87E702210420FEF704FB7FE7022175
:102530000320FEF7FFFA8BE70221FEF7FBFA99E78B
:1025400000000020B0400020300800206EA90508DF
:102550003CA90508CCA9050858A9050880A90508C3
:10256000A0A90508ACA90508B4A90508A4A90508EF
:102570008440002078A9050800AE05081B00002053
:1025800098A9050802210846FEF7D4FA52E7F2237B
:102590000A4A0B4982A800930A4B11F045FEE278E3
:1025A000A3690DF581601209074911F03DFE0DF593
:1025B000816282A9054811F041FD3BE76EA905083B
:1025C0003CA9050800AE0508D4A9050858A90508C6
:1025D000F8B506461248F178090911F02FFDB169E6
:1025E000104811F02BFD317D0F48090911F026FD2F
:1025F000337D1B090ED006F11B050C4F2C463846C7
:1026000015F8011F1A3C11F019FD337DA41BB4EB22
:10261000131FF3DB0A20BDE8F84011F025BD00BF11
:10262000F8A9050800AA05080CAA050814AA0508B7
:1026300010B54FF48071ADF5816D104C009102A87A
:1026400004F110030E4A0F4911F0EEFD0E4B0DF58B
:10265000027C0FCBACE8070082AA02A90B488CF8D9
:10266000003011F0EBFC002104F11C02084810F0CE
:10267000DFF9084B98600DF5816D10BD00AE0508BF
:102680006EA905083CA905081CAA050858A9050853
:1026900045220408B0400020024B4AF2A5525A6578
:1026A000704700BF00280040014B00225A65704768
:1026B00000280040044A4AF2A553506DC01AB0FAEF
:1026C00080F04009704700BF00280040074B0849D0
:1026D0001A6C42F080521A640A6842F480720A60EE
:1026E0001A6F42F400421A67704700BF0038024078
:1026F0000070004038B50E4B0D46044619462B605D
:1027000000F0CAFA08B9204638BD0A4920462960B7
:1027100000F0C2FA0028F6D007492046296000F0F0
:10272000BBFA0028EFD000231C462B60EBE700BF6C
:1027300034AA050840AA05084CAA050882BB70B552
:10274000B1FA81F50C466D0939B30121204609F033
:10275000E5FF2C2006F046FB0646D8B12C22294680
:1027600011F0F3FD31462046F46109F0EFFF2046F9
:102770000D4909F0EFFF20460C4909F0F3FF042250
:1027800020460B4909F0F8FF20460A4909F0E6FF08
:10279000284670BD4FF0FF3070BD6FF0050070BD72
:1027A0006FF00500704700BF61290408B9270408CD
:1027B000212904080929040890B110B5044640698C
:1027C00018B100F08FFA00236361206A18B106F097
:1027D00091FE002323622046BDE8104006F0F2B9C6
:1027E000704700BF38B504460D46002109F0AEFF22
:1027F0000021204609F0AEFF0021204609F0B2FF7B
:1028000000222046114609F0B7FF0021204609F0BA
:10281000A5FF75B1686918B100F064FA00236B6117
:10282000286A18B106F066FE00232B62284606F0DF
:10283000C9F920460AF002FC00B938BD204604223E
:102840000249BDE8384009F097BF00BF21290408BC
:10285000F8B5002944D04A6A05460E462AB34FF619
:10286000FF738F69934228BF13469BB26C8EB5F8F5
:1028700064206400A4B2944228BF14469C4228BF3E
:102880001C46002322463946284607F099FD431C82
:1028900016D0726A002835D1B7692744121B01246B
:1028A000B76172629AB12046F8BD4869A0B100F0E4
:1028B0001BFA002810DD746AB769E4B92246ECE718
:1028C000B5F864307BB9726A0024002AEBD17069D4
:1028D00000F00AFA0028E6DC31462846FFF782FFBE
:1028E00000242046F8BDB5F866306408082BEAD805
:1028F000012CC6D8E7E74FF6FF73A34228BF234653
:102900009BB2B3E70024CDE708B5034630B10022FF
:102910000846194683F82820FFF79AFF002008BDD3
:1029200010B50C4680B190F828300133DBB2042B8F
:1029300080F8283008D0436923B101462046FFF7CC
:1029400087FF38B9002010BD01462046FFF74AFF37
:10295000002010BD204608F07DF9002010BD00BF0A
:102960002DE9F04F054687B00E46144673B9AAB15B
:1029700068B11189304609F0DBFD6F69B7B12046B7
:1029800006F0B8FD002007B0BDE8F08F32B1218914
:10299000304609F0CDFD204606F0ACFD2946304614
:1029A000FFF720FF002007B0BDE8F08FAB69286A71
:1029B000002B40F0B580002800F0A880214606F0EA
:1029C000B5FD204606F0A4FD286A0368002B00F040
:1029D0009880B0F8089040F2FF33DFF868A299457C
:1029E000984928BF994600234A4606F069FEB9F186
:1029F000060F72D94A469449504607F031F900282B
:102A00006BD004229149504611F0B4FC07460028CF
:102A100040F0A880A9F104020AF104080AF10303B6
:102A20008B491FFA82FB404601935A4607F018F97A
:102A3000034600286CD0002B4FD0019A01939A4294
:102A40004BD24A468349504607F00AF9019B0028B9
:102A500043D0A3EB08034FF000094046CDF81480A3
:102A60009BB28AF8039008F8039011F079FD824632
:102A700028B1421E18F802302F2B00F081803F2130
:102A8000404611F06AFC08B1002303704146284615
:102A9000A94600F001F9002850D1D9F80000002320
:102AA000D9F80420C5F81490A8616A6285F8283026
:102AB00027B199F81030DB0700F1A980286A0028B7
:102AC00038D006F017FD002320462B6206F012FDD9
:102AD00029463046FFF7BCFE64E7286A06F00EFD83
:102AE0002B6A1A89B2F5806F02D205287FF647AFAC
:102AF000184606F0FFFC002320462B6206F0FAFC85
:102B00004CE7D4F804A0B4F80A9070E72C6258E7B8
:102B10005A464D494046012707F0A2F803468AE786
:102B200000283FF42CAF06F0E5FC20462F6206F0AB
:102B3000E1FC37E7204606F0DDFCC9E7284605A999
:102B4000FFF7D8FD81460028A7D105A92846FFF741
:102B5000D1FD81460028A0D1686285F82800C5E92A
:102B60000500ABE700278AF80470286A00283FF4C4
:102B700012AF06F0BFFC20462F6206F0BBFC0DE74B
:102B8000354B984558D0012859D03F2A4146324804
:102B900028BF3F22934611F0D5FC2A4B5B4483F8B3
:102BA00000940023CBF13F0299460192CDE90264E3
:102BB000BAF1010F0FD0019B8BB9274C2846214653
:102BC00000F06AF890B309F10109B9F1050FEFD1EE
:102BD000DDE9026453E7214B53F83940EEE71F4B20
:102BE00053F83940204611F0BBFC2146019C1A4B9A
:102BF000844228BF044603EB0B00224611F0A2FCDE
:102C0000104B00225B44234483F80024D5E711498C
:102C100007F026F8034600283FF450AF0433AA69B2
:102C2000AB619A1A6B6A9B1A6B6247E72146A94609
:102C3000DDE90264059130E701287FF420AFCB463F
:102C4000AFE700BFBC40002058AA05085CAA0508F1
:102C500064AA050868AA0508BC44002040AE05081F
:102C600010B52E200AF052F988B10446012109F06E
:102C700055FD50220649204609F090FBFF212046D1
:102C800009F030FC0349BDE8104009F06FBD10BDEC
:102C900048BC05083D270408F0B170B50D46C1B128
:102CA0000F49064601F5ED6402E0246874B16168DD
:102CB000284611F035FC0028F7D1D4E90223F06052
:102CC000B360C6E90023237C337470BD6FF0050048
:102CD00070BD6FF00F0070BD6FF00F00704700BF48
:102CE00068AE0508704700BFD0E90120101A704790
:102CF0002DE9F843002870D0B1FA81F50C466D0932
:102D000000296AD0814616464FF49A714FF420721A
:102D100036201F4606F0D8F9804600285DD0032EE5
:102D200042D0A379002B5DD0324B1868D8F80450FC
:102D30004FF49A7200212060284611F006FB40F201
:102D400001132B8099F82C30AB70206806F086FFB9
:102D50004FF4C8736860F340DB0748D5D9F80430F6
:102D6000EB6009F1250109F12B0405F11B0C11F8A9
:102D700001EFA1420CF801EFF9D163236FF07D025E
:102D800085F8F260404685F8EC3085F8EF3040F287
:102D9000351385F8ED205322A5F8F030032385F88C
:102DA000EE203B80BDE8F8836379032BB9D0294638
:102DB00045684FF49A72284611F0C7FA40F20113A1
:102DC0002B8099F82C30AB70206806F047FF6860C4
:102DD0006379043B012BC4D8C0E74FF0000840469C
:102DE000BDE8F88310F028FF024B18609EE7032E21
:102DF000B7D1EDE7FC44002010B5046A6379082BD5
:102E000004D008220023A4F805202381002204F125
:102E10001C0101F0F7FBA379FF2B01D00133A37153
:102E20000123238110BD00BF002878D0016A00294A
:102E300075D08B6A002210B55C1C82B04A8206D025
:102E40001E33B3F5701F48D34FF6FF738B82CB6AE6
:102E50005A1C08D01E33B3F5701F46D23B2B65D8E1
:102E60000122134644E04B890A6B541C0BD01E32DE
:102E7000B2F5701F3FD23B2A5FD84FF0010E4FF0E2
:102E8000000C72463CE0B1F80CC00CF1FF3C1FFA9C
:102E90008CFC634539D8CB79C3B10B6A4A6ACDE95A
:102EA000003222B9CA69134043F0807301934B7911
:102EB0000A2B04D00A220023A1F805200B8101ABC4
:102EC0006A461C3106F0FCFF02B010BD91F91C30BF
:102ED0000A7F002B1CDBFF23E0E73B2B20D80123DC
:102EE0008B82CB6A5A1CB5D1BDE74FF6FF721346F1
:102EF0004A81CB81B8E74FF6FF7E4FF6FE7C7246E3
:102F00006345A1F80CE00A82C5D900234B81C2E7D2
:102F1000BF2A4FF6FF7388BF6FF07F43BEE770474D
:102F20000B4AA2FB03235B098B8290E7084AA2FBB2
:102F30000323C3F34F131A46DAE7054CA4FB0242FE
:102F4000C2F34F1202F1FF3C96461FFA8CFCD7E702
:102F50008988888838B5114D2C791CB1013400203E
:102F60002C7138BD0AF076FCA86098B1427A0C4901
:102F700042F02002427244220AF09CFA432208499D
:102F8000A8680AF011FC22460649A8680AF044FC29
:102F90002C79E3E74FF0FF3038BD00BFFC44002040
:102FA00048BC0508CD34040838B51A4D0023044642
:102FB000EA7BC0E908330AB12B6A83622B7C2BB30E
:102FC0006B6A6A7CE3624AB1AB6A2363AB7C0A69D1
:102FD000E2616BB9E371EB7C9BB938BDA36AC3EBCB
:102FE000C303DB082363AB7C0A69E261002BF1D0E9
:102FF000E86A06F033FE01232062E371EB7C002BCC
:10300000EBD0286B06F02AFE606238BDA36A5B082D
:10301000D7E700BFFC4400202DE9F04F066A8BB0D3
:1030200080467379032B04D003220023A6F80520E1
:1030300033810DF12603032231464046FFF758FE47
:103040000746002800F08B80BDF826404FF0020EA6
:1030500045684FF0390904F1010CA01CF035E11C62
:103060001FFA8CFC221D80B205F8049089B205F885
:103070000CE005F800E0402092B2631D6854322154
:103080009BB204F10609A95404221FFA89F94FF0F2
:10309000030AEA54F06906F0E1FD04F1090203466F
:1030A000E01D92B204F1080E4FEA136B039204F193
:1030B0000A0205F809B080B24FEA134991B204F14F
:1030C0000B0205F800901FFA8EFE180A049192B2C6
:1030D00005F80E000398059204F10C022B543723D7
:1030E000049891B204F10D022B54059B1FFA82FC47
:1030F000069104F1100105F803A00123069889B296
:10310000CDF81CC004F10E0C2B5404F10F02079BE8
:103110001FFA8CFC92B2432905F803A04FF01C0360
:1031200005F80C304FF0FF03AB5407D8C4F134025C
:103130006818002192B211F008F94421F0313846A4
:1031400089B206F0A1F8144ACDF8008043239068B4
:103150003946124A0AF0C0FA384606F0CBF9B3797C
:10316000FF2B14D00133DBB2092BB3710FD8C3EBA3
:1031700043110B4A03EB8103DB0003F2F3139BB211
:10318000A2FB03235B0933810BB0BDE8F08F14234E
:1031900033810BB0BDE8F08FFC44002044BC05082F
:1031A000D34D62102DE9F04F046A002389B0064622
:1031B0006279E361062A03D006222381A4F8052060
:1031C0000DF11E03012221463046FFF791FD054611
:1031D000002861D043683920BDF81E204FF0030954
:1031E000F033511CD71C9854022089B202F1040E0E
:1031F00002EB0008BFB25854911DB6F824A01FFA84
:1032000088F889B202F1050C4FEA1A2B0291D11D00
:1032100003F808B01FFA8EFE88B202F1080103F825
:1032200007A03727039088B202F1090103F80E7056
:103230001FFA8CFC012789B2049003F80C9002F16C
:103240000A000591029980B25F541C270399432814
:1032500003F8019004995F544FF0FF0705995F54FC
:1032600007D8C2F13A021844002192B211F06DF869
:10327000442000F1F001284689B206F005F815490E
:10328000154A43230096886829460192134A0AF09A
:1032900083F9284606F02EF9A379FF2B13D00133CA
:1032A000DAB2052AA2710ED84FF47A730C490020C5
:1032B000934003F2F3139BB2A1FB03135B09238139
:1032C00009B0BDE8F08F78230020238109B0BDE864
:1032D000F08F00BFFC44002048BC050844BC050832
:1032E000D34D6210002800F0E8802DE9F04F066A07
:1032F0008BB00746002E00F0DB807379012B04D0E1
:1033000001220023A6F8052033810DF126030322B4
:1033100031463846FFF7ECFC8046002800F0B580C7
:10332000BDF82640392245684FF00409631CE11CB2
:10333000F03504F1060A9BB22A55022289B2EA54FA
:10334000A018B7F824C0221D80B2631D4FEA1C2EBE
:1033500092B205F800E09BB205F801C032211FFAD5
:103360008AFAA95405F80390F06906F077FC04F195
:10337000070E4FEA106B04F1080C1FFA8EFE04F1E1
:10338000090105F80AB04FEA104A1FFA8CFC04F153
:103390000A0205F80EA089B24FEA102E04F10B03C1
:1033A00092B24FF0030A05F80CE09BB26854362144
:1033B000A95405F8039004F10C09B06906F04EFC1D
:1033C00004F10F031FFA89F904F10D0E9BB204F109
:1033D0000E0C4FEA106B029304F1100305F809B0CC
:1033E0001FFA8EFE9AB204F111034FEA104999B206
:1033F00004F1120303921FFA8CFC9AB204F1130336
:10340000049199B204F1150305F80E904FEA102EBD
:103410009BB2059205F80CE004F114020793029B9D
:1034200092B2069104F11601E8543720039B89B249
:10343000E8540120049B432905F803A0059BE854A8
:103440004FF01C00069B05F803A0A8544FF0FF02A4
:10345000079BEA5407D8C4F12E026818002192B2E3
:1034600010F073FF4421F031404689B205F00CFFA3
:103470001249134A43230097886841460192114A32
:103480000AF08AF8404606F035F8B379FF2B12D0DF
:103490000133DAB2052AB2710DD84FF47A730A49B2
:1034A000934003F2F3139BB2A1FB03135B09338137
:1034B0000BB0BDE8F08F7823F9E77047FC4400209B
:1034C00048BC050844BC0508D34D6210904B2DE95B
:1034D000F04F5F68144689B052683D6A002D00F0D5
:1034E00083802B79002B7FD063892B2B7CD9137899
:1034F000022B79D197F82CE0BEF1000F10D007F124
:10350000250002F11B01002310F801CF013311F84F
:10351000016FDBB2B44567D1062B01D07345F3D3FD
:10352000506806F09BFB2B6898425DD1DFF8E4A160
:103530000022CAE9032263892B2B55D99146F02238
:10354000B4F808B0A0461646CDF80890CDE903754A
:10355000454606E02D6896B21FFA83FB002D42D047
:103560006B89B342A6EB0302ABEB0303F2D96B68A2
:10357000B345019340F2E580374600240596019B50
:10358000D85DFF2800F0DD80BB1C9BB2BB422AD374
:1035900007F1010C69898C4580F2CB80019A3A448D
:1035A00056783B2826D8DFE800F03E89257C252583
:1035B00025252525252525252525252525252525BB
:1035C00025252525252525252525252525252525AB
:1035D00025252525252525252525252525719E9467
:1035E000B725252567414446204609B0BDE8F04F80
:1035F00005F080BF37444FF6FD708742F3DC33445B
:103600009BB21F468F42C0F099807F1AABEB01013D
:10361000BFB21FFA81FB5F45E5D22D68002DE2D0D5
:103620006B680193ABE71FFA8CF7EBE7042EDAD156
:103630004FF6F9708742D6D806374FF00509BFB26A
:103640000AEB09000794007B0028DBD1324607A96A
:10365000284606F035F88642C5D1042E00F00C81CC
:103660009DF81C000AEB090201230AEB890969890C
:103670001373C9F81400C5E7042EB4D14FF6F970DE
:103680008742B0D80637B146BFB2D9E7042EAAD1D7
:103690004FF6F9708742A6D806374FF00309BFB23C
:1036A000CEE7032E9FD937444FF6FD7087429ADC50
:1036B000F2184FF00709042697B2C1E7042E92D101
:1036C0004FF6F97087428ED806374FF00609BFB221
:1036D000B6E7012E87D14FF6FE70844583D00337BD
:1036E000B146BFB2ACE7059AF02A7FF47CAF013E49
:1036F00018BF0126002E7FF476AF4FF6FE7084458A
:103700003FF471AF0337B1460126BFB298E700BF5F
:1037100010880020FC440020042E7FF464AF4FF694
:10372000F97087423FF65FAF06374FF00209BFB22C
:1037300086E72A680AB35268167832E7BB453FF637
:103740001EAF9AF80C3063B100238AF80C30DAF817
:103750001430012B00F09680022B06D0032B00F0D2
:103760008F80029B002B00F0918000234FF06C0BA8
:103770002C260293B8F80A30EAE63B283FF641AF20
:1037800001A252F820F000BF27360408E7350408EC
:1037900003360408E7350408033604080336040832
:1037A0000336040803360408033604080336040805
:1037B00003360408033604080336040803360408F5
:1037C00003360408033604080336040803360408E5
:1037D00003360408033604080336040803360408D5
:1037E00003360408033604080336040803360408C5
:1037F00003360408033604080336040803360408B5
:1038000003360408033604080336040803360408A4
:103810000336040803360408033604080336040894
:103820000336040803360408033604080336040884
:103830000336040803360408033604080336040874
:103840000336040803360408033604080336040864
:1038500003360408E7350408E7350408E7350408AB
:10386000E735040803360408033604080336040861
:10387000E7350408E7350408079806F0EFF9F1E6A4
:10388000012302934FF0EC0B6C2673E79AF80D308E
:103890004446DDF80890DDE90375002B3FF4A4AE43
:1038A0009AF818306668052B1CD0062B29D0022BFD
:1038B0007FF49AAE6B79062B7FF496AE9AF80E30B1
:1038C0003D6A002B3FF490AEDAF81C00A5F8089092
:1038D00006F0C4F903463846AB613369EB61FFF784
:1038E00001FD81E66B79012B25D0033B022B3FF6CE
:1038F0007BAE386A3146FFF757FB3846FFF794FA3C
:1039000072E66B79DA1E022A02D9012B7FF46CAEC3
:103910003B6A5A790C2A04D00C210022A3F8051026
:103920001A810B4B38461A46194606F0C9FA384632
:10393000FFF738FC58E6386A3146FFF735FB97F851
:103940002D3038461B07D9D5FFF756FA4CE600BF95
:1039500048BC05080B463422002110B50446184621
:1039600010F0F3FC206210BD10B50446006A18B1D7
:1039700005F028F90023236210BD00BF002864D0A1
:103980002DE9F04190B00446FFF7E4FA054610B186
:1039900010B0BDE8F0810146342203A810F0D5FC38
:1039A00007220DF10A0303A98DF8112020460822F1
:1039B000FFF79EF90646002848D043683920BDF835
:1039C0000A20F033511C02F1030C9854022089B2F2
:1039D00002EB000E1FFA8CFC5854501DA78C1FFAE6
:1039E0008EFE80B2111D4FEA172889B2432803F8D2
:1039F0000E8003F80C704FF0FF075F5407D8C2F138
:103A00003F021844294692B210F09FFC442000F176
:103A1000F0010F4D304689B205F036FC0094432387
:103A20000C4A3146A86809F057FE304605F062FDA1
:103A30002C79013CE4B22C71002CA9D1A86809F0C2
:103A4000EFFEAC6010B0BDE8F0817047004DEFE7CD
:103A5000FC44002044BC0508036A2BB15A79052AAE
:103A600003D8022A03D832B970470A2A03D10022A8
:103A70009A71FFF7D1BA00229A71FFF793BB00BF8A
:103A8000002872D02DE9F04F056A85B0044615B1C3
:103A90006B79082B02D005B0BDE8F08F0A68EB699E
:103AA0009A42F8D10C234FF0000904222946A5F8C8
:103AB00005300DF10E03A5F80890FFF719F98046BF
:103AC00000284AD0BDF80E6032224768731C06F108
:103AD000020AF0379BB2BA5504221FFA8AFAFA5446
:103AE000E86906F0BBF806F1030E4FEA106B06F129
:103AF000040C1FFA8EFE721D07F80AB0F11D4FEA82
:103B0000104AB31D92B207F80EA01FFA8CFC89B2BE
:103B10004FEA102E9BB2432907F80CE0B8544FF03F
:103B2000FF02FA5407D8C6F13D027818494692B20E
:103B300010F00BFC4421F031404689B205F0A4FBA3
:103B40000A490B4A43230094886841460192094A76
:103B500009F022FD404605F0CDFCAB79FF2B01D0EA
:103B60000133AB7114232B8195E77047FC4400208F
:103B700048BC050844BC05082DE9F04F046A89B02B
:103B800006466379052B04D005220023A4F80520FE
:103B900023810DF11E03032221463046FFF7A8F8CA
:103BA0000546002800F0838043683920BDF81E20B8
:103BB000F033511CD71C9854022089B202F1040E34
:103BC00002EB0008BFB25854911DB6F824A01FFAAA
:103BD00088F889B202F109004FEA1A2B02F1050CAC
:103BE0000291D11D03F808B080B289B203F807A092
:103BF0001FFA8EFE3727039102F1080103F80E70B9
:103C00001FFA8CFC1FFA81F90127059002F10A01C5
:103C10000298CDF810904FF0030989B203F80C9088
:103C20001F541C270398432903F8009004981F543D
:103C30004FF0FF0705981F5407D8C2F13A025818F1
:103C4000002192B210F081FB4421F031284689B264
:103C500005F01AFB174A432329460096906804F1A1
:103C6000180209F039FD034628461D4605F042FCBE
:103C7000A379FF2B15D00133DBB2092BA37110D828
:103C8000C3EB43110C4A284603EB81031B0103F2EB
:103C9000F3139BB2A2FB03235B09238109B0BDE8A8
:103CA000F08F28232846238109B0BDE8F08F4FF01C
:103CB000FF35DDE7FC440020D34D62102DE9F047CD
:103CC000046A84B0002C7DD06279002A7AD0A16980
:103CD000002305460391111FE3610129A361A3623B
:103CE000C4F80E30C4F81230C4E90833C4E90B3309
:103CF00001D90A2A58D10DF10A0307222146284684
:103D0000FEF7F6FF074600284ED0BDF80A603622BF
:103D1000436806F1020903F1F008731C1FFA89F9E0
:103D200008F806209BB2042208F80320039805F047
:103D300095FF06F1030E4FEA106A06F1040C1FFA14
:103D40008EFE721D08F809A0F11D4FEA1049B31D3F
:103D500092B208F80E901FFA8CFC89B24FEA102E2E
:103D60009BB2432908F80CE008F802004FF0FF026C
:103D700008F8032008D8C6F13D0208EB0100002135
:103D800092B210F0E2FA4421F031384689B205F0DF
:103D90007BFA164A009543239068394603AA09F036
:103DA0009BFC384605F0A6FB114B28461A461946DF
:103DB00006F086F863791BB10023A4F8053023814F
:103DC000237913B904B0BDE8F087084E3579013D79
:103DD000EDB2357125B10023237104B0BDE8F08741
:103DE000B06809F01DFDB560F5E700BFFC44002098
:103DF00048BC0508F8B5002843D090F82D3004469B
:103E0000DA073ED5838C056AB3F5107F22D385B3DC
:103E10002B7913BB34220021284610F096FAFFF7C5
:103E200099F80646B0B901232B7194F82D305B0741
:103E300008D46B79022B03D002232881A5F8053022
:103E40003046F8BD2046FFF7ADF90028F8D02046EF
:103E5000FFF734FF4FF0FF36F2E70B4F3E79013E9C
:103E6000F6B23E71002ED5D1B86809F0D9FCBE601B
:103E7000D0E7342004F0B6FF05460028EAD02062DF
:103E8000C8E76FF00F06DBE7FC440020704B2DE91C
:103E9000F04F1D6889B0DDB12C6AB4B16379A3B16C
:103EA000A18A29B1628A013292B29142628212D011
:103EB000228A1AB1511E012A218213D0E28922B12D
:103EC000511E012AE18100F0A9802D68002DE3D167
:103ED00009B0BDE8F08F2846FFF7F0FE2846FFF74F
:103EE00089FFF2E75A1ED2B2092AEED840F2192110
:103EF00021FA02F2D207E8D5042B04D004220023D1
:103F0000A4F8052023810DF11E0303222146284633
:103F1000FEF7EEFE0646002862D042683920BDF862
:103F20001E30F032591C03F1030ED054022089B226
:103F300003F1040C03EB00081FFA8EFE5054991D88
:103F4000B5F824A01FFA88F889B25F1D03F10900B3
:103F50004FEA1A2B0291D91D02F808B0BFB289B2FC
:103F600002F80EA080B24FF0370E039103F1080162
:103F70001FFA8CFC05901FFA81F9029802F80CE0F8
:103F800003F10A01CDF810904FF0030989B202F84D
:103F900007900127432917544FF01C07039802F894
:103FA0000090049817544FF0FF070598175407D84E
:103FB000C3F13A03501800219AB210F0C6F9442117
:103FC000F031304689B205F05FF9224A009543236B
:103FD00090683146204A09F07FFB304605F08AFAA6
:103FE000A379FF2B32D00133DBB2092BA3712DD87B
:103FF000C3EB4311194A03EB8103DB0003F2F31314
:104000009BB2A2FB03235B09A28A618A2381531A14
:10401000012B7FF75AAF5B10238256E7013BDBB2DF
:10402000092B3FF652AF40F2112222FA03F3DB07CD
:104030007FF54BAF2846FFF79FFDA389628A9B1A45
:10404000012B7FF742AF5B10E3813EE71423DBE7F0
:10405000B0870020FC44002044BC0508D34D62100A
:104060002B4B10B51C6824B92CE0013A1A81246846
:1040700044B3236A002BFAD01A89012AF5D8F6D165
:104080005A790021013A19810B2AF0D801A151F87F
:1040900022F000BFDD4004086F400408CF40040850
:1040A0006F4004086F400408C74004086F400408CC
:1040B000EB4004086F4004086F4004086F40040898
:1040C000C740040810BD2046FFF76CF8CFE79B7986
:1040D0002046012B16D9FFF765F8C8E79B792046E3
:1040E000052B09D8FFF7FEF8C1E79B792046012B85
:1040F0000BD9FEF799FEBAE7FFF7E0FD2046FFF780
:1041000079FEB4E7FEF788FFB1E7FEF775FEAEE78C
:10411000B087002008B5FFF7D1FD002008BD00BF23
:10412000FFF7CCBD48B1006A38B14379181F0A2B9C
:1041300018BF012894BF0120002070472DE9F04FDF
:1041400000234FF00A0E85B0404E0546084617463C
:10415000314698467446F146F3460190CDE9023364
:1041600004E06446013318310A2B19D00A2C0FFAE7
:1041700083FC91F814A047D1BAF1000FF1D01DB122
:1041800028684A6890424BD0BAF1010F488A3FD064
:104190004045E7D301338046E14618310A2BE5D18B
:1041A000019801284FD1092C40DDB9F1090F48DDF4
:1041B000BBF1090F43DDBEF1090F44DC744604EB8B
:1041C00044094FEA44084FEAC90956F8090020B1EA
:1041D00005F090F9002346F8093008EB04030022AB
:1041E00006EBC3031A752DB108EB04032A6806EB2E
:1041F000C3035A60A044002306EBC8067382B7606D
:10420000204605B0BDE8F08FBAF1000FAAD0B6E79E
:104210000A6872B1029A9042A4D3E6460290A1E7DE
:1042200017B18868B842AFD16446E9E74FEA44085D
:10423000D9E7039A904295D3E346039092E75C4610
:10424000BDE74C46BBE74FF0FF34D9E730450020CF
:104250002DE9F04782B00746884691461C214FF46D
:1042600020720E201E46DDF82CA0BDF8344004F06C
:104270002BFF60B3054620466C6805F0EBFC4B460F
:104280004246E08038463168A160B188114EA18174
:10429000DAF80010C4F81210BAF80410E1820A9992
:1042A0000968C4F80E100C9909682660A16140F2F3
:1042B0000641A18040F606010091294609F054FB11
:1042C000284605F017F9002002B0BDE8F0874FF04E
:1042D000FF30F9E70001080002EB420C274B624671
:1042E0004FEACC0C2DE9F04103EBC2040CF10C07B2
:1042F00084B00546227D0E461F44022A0DD005F1EA
:1043000026084FF400643B46424631462846009456
:1043100009F02AFB04B0BDE8F081628AB2F58E7F15
:1043200018D8B2F5877FEAD30CF1040C00F1260807
:104330003A4663444146029301230393104B019391
:10434000031D00934346FFF783FF0028D9D10323C1
:104350002375D6E70CF1040C00F12608094A6344E2
:104360004146029301230393054B0193031D0093E0
:104370004346FFF76DFF0028C3D1E8E73045002032
:1043800000BE0508F8BD050870B51D4C84B00026B8
:1043900004F1F0050AE0012A1FD0032A2DD0042AD7
:1043A00001D1022323741834AC4214D0227C002A99
:1043B000F9D0E38901339BB2B3F5967FE381EAD369
:1043C00054F8040C18B105F095F844F8046C267400
:1043D0001834AC42EAD104B070BD042BF0D803927B
:1043E000084A6068019200F12603021D02940092BF
:1043F0001946054AFFF72CFFD5E704232374D2E7BB
:104400003445002000BE0508F8BD050870B50B4C0A
:10441000064604F1F005237D13B1A368B34203D02F
:104420001834AC42F7D170BD206818B105F062F8BD
:104430000023236000232375F2E700BF30450020EE
:1044400038B5044615460846022122461C46FFF7A9
:1044500075FE002810DB00EB4001094B03EBC102A5
:10446000C900127D012A07D901F10C0204311A4456
:104470000B442A60236038BD4FF0FF3038BD00BFC9
:1044800030450020092819D800EB400070B40C4CCE
:1044900004EBC00CC0009CF81450012D0BD9051D75
:1044A0000C30DCF808602544044401200D601660DF
:1044B0001C6070BC7047002070BC704700207047C3
:1044C0003045002000297AD02DE9F047466886B0B3
:1044D00004463388B3F5807F02D13379062B05D0AB
:1044E000204606B0BDE8F04705F004B87379042B08
:1044F000F6D17388082BF3D1D6F80E000D464F681D
:1045000006F10808B3690590002F54D09F4269D185
:1045100000286FD00127BA46294600F037FC8146B3
:10452000C0BB059B03F0F003E02B33D051462A4675
:1045300005A8FFF703FE031E2CDB314903EB430202
:1045400002204FF0180E01EBC20CD2008CF81400C0
:104550000C20CCF8085013FB0E03D8F80000C8500C
:104560000B44B8F80400988051F802A0ACF81290FF
:10457000BAF1000F0ED04FF4006341F802902846C4
:1045800005F1260200935146434609F0EDF95046E5
:1045900004F0B0FFF388B3F5807F11D0B3F5007F4E
:1045A00003D105A92846FFF76BFA204604F0A2FFC5
:1045B00006B0BDE8F087C0B14FF0020AACE7704723
:1045C000002FF2D0022105F126034246284603912E
:1045D00005A9CDF804800291291D00911946FFF725
:1045E00037FEE2E708B10027E6E7F388B3F5807FFE
:1045F000D4D1DAE7F388B3F5807FCFD1E2E700BF0B
:10460000304500202DE9F04F8A4685B0044601462A
:10461000DAF80000154600F0B9FB002878D1DAF886
:10462000003003F0F002E02A72D0002B70D0224656
:1046300001215046FFF782FD031E53DBDEB2DFF897
:10464000E48004F1260B06EB46074FEA460908EB27
:10465000C7073B7D93BB0123CDF808A0BC6059463A
:10466000039320463B752D4B2D4A0193231D009348
:104670005B46FFF7EDFD95B33B7D012B21D82ED195
:104680002B4601E01B688BB31A7B5206FAD52A46EB
:104690004FF420710E2005F013F9054600283AD09A
:1046A00009EB060358F8330008B104F023FF4E4429
:1046B000002048F8365005B0BDE8F08FD5B1012B89
:1046C000DED0182320464FF4006488F8F06003FB26
:1046D00006835A46294600940C3309F045F905B083
:1046E000BDE8F08F58B205B0BDE8F08F284604F061
:1046F0000FFFD5E7221D0123084D59462046CDE97D
:1047000002A3CDE900255B46054AFFF7A1FDE6E7D8
:104710006FF00F00E3E74FF0FF30E0E700BE050861
:10472000F8BD050830450020F0B5044685B00E46BA
:1047300001461068154600F029FB002863D12B685C
:1047400003F0F002E02A39D06268A1685A400A42B8
:1047500009D09BB24FF6A962934204D0E368002BC4
:104760005AD004F10C052E4F97F8F02002EB4203CB
:1047700007EBC303197D012902D99968A14244D0EE
:10478000274B4FF0000C05E00CF1010C1833BCF185
:104790000A0F30D0187D0128F6D99868A042F3D1CD
:1047A0005A6829689142EFD15FFA8CF2314620466F
:1047B00087F8F02005B0BDE8F0408DE56B78012268
:1047C0005E2103F07F03ADF80820EA788DF80B3006
:1047D000AB788DF80A108DF80C3002AB8DF80D20F7
:1047E0004FF4006504F1260231462046009509F099
:1047F000BBF805B0F0BD32462946204605B0BDE8FD
:10480000F040FFF7FFBE074BEAE75B682968994273
:10481000B6D131462046CDE76FF00300E9E700BF8F
:1048200030450020F8BD050810B5012384B0074CC1
:10483000074A0194041DCDE9021300F126030094F8
:104840001946FFF705FD04B010BD00BF00BE050806
:10485000F8BD05082DE9F0410F4686B016468046A2
:1048600024214FF42072222004F02EFC50B344681F
:104870000546D8F80430277000276670676018680E
:1048800059689A68DE68A060E16022616661186913
:1048900059699A69A06105A8E1612262DB68059304
:1048A00000F09EF858B10123A770E77005AA0290A6
:1048B000394601932846FF23009700F031FA284635
:1048C00004F018FE06B0BDE8F08100BF2DE9F0430A
:1048D0003D4F85B00546D7F8088098F8004004F0B1
:1048E0000F04A400132C13D94389032B10D9436858
:1048F0001B78082B0CD1786900F0F003E02B07D06F
:104900000E46396800F042FA10B92B89072B05D8FA
:10491000284605B0BDE8F04304F0ECBD04F10E09F3
:104920002846494604F0E8FC002841D02B89E118CC
:1049300089B28B42ECD84FF420720E2004F0C4FBF5
:1049400081460028E4D0428904F108039A4236D314
:104950004146224640680FF0F5FD2146484604F0E6
:104960001BFD60BB2946484604F02AFE38BB28469A
:104970004D4604F0BFFD214628466C6804F0BCFC9F
:104980000028C5D16A68D7E90413D360FF231161F9
:104990002070A070E0709072D072137201220090AB
:1049A0000A49CDE901260246284600F0B9F9AFE7E9
:1049B0004946284604F0F0FC0028DCD0A8E7484629
:1049C00004F098FDA4E700BF108800202488002090
:1049D0000A4603213EE700BF0A460B213AE700BF23
:1049E000194B30B41B68ABB193F82D20D407F9D51F
:1049F0005107F7D559680029F4D004689D686140D3
:104A0000294204D09207EDD4DA689442EAD11846DC
:104A100030BC70470D4B1B68002BF8D093F82D204D
:104A200002F00502052A08D15A6852B102787F2A9D
:104A300008BF002330BC18467047002330BC18461E
:104A400070471346E3E700BFB0870020B48700201B
:104A50002DE9F843476804463B781A09042A2ED109
:104A600003F00F0378880E469D0005F0F3F82389C4
:104A70008046834229D86389AB4220D323894345AA
:104A80001DD3132D1BD93A69F86802F0F001DFF845
:104A9000C88196F82D30E02903F00103C8E904022B
:104AA00018D133B1736823B1002840F0A880B14613
:104AB00058E07B7A112B00F09880002842D12046E4
:104AC00004F018FD0020BDE8F8830146204604F0FC
:104AD000DBFBD0E733BBD2B27F2A00F092805D4B84
:104AE000D3F80090B9F1000F09D18AE000F04EF937
:104AF000A0B9D9F80090B9F1000F00F082804E45BE
:104B0000F7D099F82D30DB07F3D5D9F80430002B16
:104B1000EFD0D8F8140049468342E7D1D8F8100006
:104B200000B311E07368002BD5D09A4200F0888062
:104B30001046314600F02AF9002840F08580D8F868
:104B40001420C8E74FF00009314600F01FF9002893
:104B5000B5D1D8F8103003F0F003E02BAFD0B9F1A5
:104B6000000FACD0FB8823F0C00333B1204600F027
:104B70001DFB04460028A5D04768C8F808702946E0
:104B80002046C8E900963B7803F00F039B00A8F885
:104B90000C3004F001FC7B7A062B3BD0112B43D068
:104BA000012B3CD04946D8F8140000F0EFF868B962
:104BB000D8F8143003F0F003E02B07D02946204644
:104BC00004F03CFC02212046FFF702FF204604F0DF
:104BD00091FC00230020C8E90033C8F80830A8F889
:104BE0000C30C8E90433BDE8F8837B195B88B3F562
:104BF000884F3FF45CAF00283FF461AFA2E7B146B5
:104C0000A2E77B7A112B14D0D8F8100000283FF4CB
:104C100056AF97E73146204606F0E8FED9E7314621
:104C20002046FFF753FED4E73146204608F070FBDC
:104C3000CFE77B195B88B3F5884FE5D1B14691E7A3
:104C4000B14600288ED07FE7D8F81000B146002882
:104C500088D079E7B0870020108800202DE9F04F38
:104C600085B09A4605469DF83C309DF838B0DDF891
:104C700040800193002A3BD00F461421164604F0D1
:104C80003BFB019B8146002843D16C68452284F898
:104C900008A0637233682270236184F801B0288908
:104CA00004F0D8FF84F8069084F80790DFF86C9041
:104CB0006080B9F8000004F0CDFFB9F80030A080A2
:104CC0000133A9F80030DFB13B68E3600023A37231
:104CD000E372B8F8243013B12A899A4213D8D8F86D
:104CE0001430324629464046984705B0BDE8F08F5B
:104CF0004389132B0DD9436803AE1B690393E8E77F
:104D0000054B1B68E1E732464146284600F01CFC93
:104D1000EBE76FF00100E8E748BC050822460020F9
:104D2000F0B4069C9DF810509DF814601AB109B1BA
:104D30000F6807B9211D0495CDE90564F0BCFFF7A4
:104D40008DBF00BF2DE9F04385B0074610461446DD
:104D50000D461E469DF830809DF83490FFF740FECA
:104D600088B11CB10DB12B6803B9051D334622462D
:104D70002946CDF80080CDE901903846FFF76EFF57
:104D800005B0BDE8F0836FF00300F9E7421E03466B
:104D9000033215D891F82D0010F002000FD04A68A8
:104DA0009A420BD089685A400A4207D1C84323EA85
:104DB0000103181AB0FA80F04009704700207047CC
:104DC0000120704708B504F049FF002813DA2022BB
:104DD0004FF00043013A4FEA530308D01842F9D18B
:104DE0003BB15B0805D01842FBD0002008BD002B6A
:104DF000F9D1012008BD4FF00043F2E72DE9F0475B
:104E0000494D84B00378EA5C520734D5E9460E4632
:104E10000DF10C084F46302B31D04FF00A0E013007
:104E2000002103E0A4F1300103780130EA5C03F1D2
:104E30000A0C01FB0E3412F0040F02F0030AF1D148
:104E4000BEF1100F0DD112F0440F0AD0BAF1020FCB
:104E5000037814BF41226122ACEB020C4CEA011131
:104E6000E3E72E2B19D1474505D0037847F8041BFB
:104E7000EA5C5207CFD4002004B0BDE8F087437845
:104E800003F0DF02582A03D001304FF0080EC6E7C6
:104E900083784FF0100E0230C1E70BB11307EAD54B
:104EA000A7EB09039B100133042B1ED801A252F873
:104EB00023F000BF774E0408EB4E0408154F04089A
:104EC000F94E0408C94E0408FF29D4D80098FF28D9
:104ED000D1D8019BFF2BCED8029AFF2ACBD81B0436
:104EE00043EA006343EA022319431EB1084604F073
:104EF000B5FE30600120BFE7B1F5803FBBD2009A1C
:104F0000FF2AB8D8019BFF2BB5D81B0443EA0263E4
:104F10001943EAE7B1F1807FADD2009BFF2BAAD8FD
:104F200041EA0361E1E700BF08BE050800B583B0B0
:104F300001A9FFF763FF20B94FF0FF3003B05DF820
:104F400004FB019803B05DF804FB00BF2DE9F04FAE
:104F5000036885B04FF00008541C0393134603AF59
:104F60000DF1100B8E46294EC14602AD0A469C46F5
:104F700017F8010B0021CDE90078A6FB003A0B469B
:104F8000804601314FEADA0AB8F1090FC9B20AEBDB
:104F90008A07A0EB47075FFA8AF003F1100A07F1CE
:104FA0003007EA440AF8087CE7D8DDE9007808F120
:104FB000010007F8019C39B3C4451ADD2B4401E018
:104FC000844216D093F80080AB42824603F1FF334F
:104FD00000F101000EF8018BF2D1D4450AF101086D
:104FE00007DD73462E215F4503F8011B05D09E4661
:104FF000BEE7002005B0BDE8F08F002310468EF814
:10500000003005B0BDE8F08FC246E6E7CDCCCCCC91
:1050100010220149FFF79ABF2446002010B504462C
:10502000406908B104F066FA21460520BDE8104049
:1050300003F0DEBF2DE9F041446807468846636807
:105040009A8802B300266368204625461C6804F04F
:1050500055FA0346284633449EB204F04BFA002C1E
:10506000F1D1164C39463B6804202268974214BFA0
:10507000C8F80030236003F0BBFFA38830469B1BB9
:10508000A380BDE8F0811A68C568426082687969CA
:105090000069D9600121986020461A605D60BA6994
:1050A0001A61FFF799FC204604F028FA06462046CC
:1050B00004F020FA7C68002CC5D1D2E734460020E9
:1050C0002DE9F84F0026DFF8B08005468B46D8F86A
:1050D0000000002847D00024D5F80CC0A646214681
:1050E0002246436963451FD001348AB392F81F906A
:1050F00090F81FA00368CA450BD97BB359698C454A
:1051000010D001461846013490F81FA00368CA4524
:10511000F3D88E460246D14653B35F69BC45F0D101
:105120008E46024601461846D5F8109083694B45D5
:10513000DAD1B0F80C90AB889945D5D103467146C9
:1051400010461F688E46024647B119463846C8E7E2
:1051500003468E4602461F68002FF6D132B95E45DF
:1051600001DA012CB3DC3046BDE8F88F10467146F9
:10517000FFF760FF0644F2E73446002038B50A4BDB
:105180001C684CB10025E37F204624685A1E23B1D9
:105190000546C277002CF6D138BD2946FFF74AFFF5
:1051A000002CF0D1F8E700BF344600202DE9F04F85
:1051B000476883B005463B7803F00F03052B40F0AA
:1051C000C180F88804F046FD8246788804F042FDEC
:1051D0003B7803F00F03B0EB830F4FEA8302C0F07C
:1051E000B180DFF86083861A284604F087F9B8F8A2
:1051F0000430B6B2814603440A2B00F39880D8F8F5
:105200000040002C00F0B980FA6803E02468002C0C
:1052100000F0B38063699342F8D13B69A169994278
:10522000F4D1A189BB889942F0D1F88804F012FD2D
:10523000C0F30C00002800F08D80FB88CAF30C0A34
:1052400013F020034FEACA07009309D1BB199BB2A0
:105250009F4200F2A9804FF6EB72934200F2A480C5
:10526000D5F804A0BAF8020004F0F4FC9AF8003073
:1052700003F00F03B0EB830F4FEA8302C0F094807A
:10528000831ABAF806001FFA83FA04F0E3FCC0F3AD
:105290000C01D5F804B0C9000AEB0103ABF8041007
:1052A000ABF806309BB21A460193002391428BF86B
:1052B00000308BF801308BF802308BF8033073D854
:1052C0006268002A00F021814FF0010A8C460EE04E
:1052D00038D0B3F806E0F44534D321B1CA8882420D
:1052E00018BF4FF0000A1A68002A00F0FD80194626
:1052F000536898888445EBD20B46CBF80020614672
:105300009C46002B5BD0019ADB8882421AD89942D6
:1053100018D3CCF8005056D0009AA37F002A00F092
:10532000E980B8F804304B44A8F804300DE0014699
:105330003846FFF7C5FE28B1B8F804304B440A2BB5
:105340007FF75DAF284604F0D5F80026304603B05D
:10535000BDE8F08FE08904F07DFCC0F30C0000286C
:105360003FF46BAF3B687868B968FA68A360E060A7
:10537000216162613B69A3615FE7042003F00CFED9
:105380000446002800F0A1800023E361A360E360ED
:1053900023616361A3616360D8F80030C8F80040FE
:1053A00023600F23E377DDE76368002BCAD1D8F8C9
:1053B000001022688C4200F0A1801A60FFDE019B81
:1053C0008342BFD86560009B002B6ED0A37FDA07B5
:1053D000A7D5BAF1000FA4D06368002BA1D05B68F9
:1053E0009B88002B9DD1DBF80030002B00F09880CB
:1053F0005A4603E01368002B00F0908011465A686B
:10540000C98893889942F5D00022B8F804304B44FB
:10541000A8F80430009B2BB9A37F374443F0010365
:10542000A783A377002A90D06368A08B5E68E768A3
:105430001430A368216980B262693568776033608F
:10544000B160F260A369336104F004FC0023708052
:10545000B371F371B372F37266685DB16F68142152
:10546000284603F099FF2946304604F05FF83D686E
:10547000002DF3D1D8F800302168A34206D0002BCC
:105480005ED01A68A24237D01346F8E7C8F8001079
:105490002146042003F0ACFD304604F02FF8B8F8A4
:1054A00004301B1AA8F8043050E7BAF1000F20D0DE
:1054B00065681DB16B689B88002B94D03744A37F2F
:1054C00043F00103A783A3772BE749463846FFF74C
:1054D000F7FD81453FF736AF042003F05DFD04463C
:1054E00000287FF451AF2DE7F4451D607FF414AF21
:1054F00069E7A37F3744E3E71960C9E72146042041
:10550000C8F8002003F074FD1CE7009B6560002BC9
:10551000D0D0A37FDB077FF504AF5DE7012274E7FE
:10552000B8F804304B44A8F80430009B002B7FF4FB
:105530007BAFA37F374443F00103A783A37773E7CF
:105540001960FFDE344600202DE9F04F8B8C8FB0C0
:1055500005460C92B3F114020B9148BFA3F10D0262
:105560004368C2F3CF02049308921A461B7803F0F3
:105570000F03052B4FEA830740F0C5804389132BA7
:1055800040F2C180D08804F065FB2B89C0F30C0C7D
:1055900000F4005E143B9BB20593002B00F0AE803C
:1055A000089B0024DFF864A1DB00CDF834E0CDF8DF
:1055B0001CC09BB20993099B4FF42072059E1421D5
:1055C0000E20B34228BF3346069303F07DFD834689
:1055D000002849D0049943680A684E688868C968F9
:1055E0005E60D96004991A609860069E0A691A6123
:1055F000DBF80490002E00F08380CDF8289003960D
:105600001CE0019443466E6806EB070CCDF800C021
:1056100003F01AFE81462846B9F1000F29D003F0A5
:1056200077FF49465846C8E904A503F07FFF039B6E
:105630001E1BB3B2039323B32D6800276C8905208A
:10564000039BE41BA4B29C4228BF1C46002CF3D051
:1056500003F0A2FC8046412221460020B8F1000F51
:10566000CFD1584603F046FF4FF0FF300FB0BDE8F2
:10567000F08F4146052003F0BBFC584603F03AFF8B
:10568000F2E72744DDF82890BFB20B9E0D9AB38C49
:10569000101E0799059AA3F1130318BF0120934226
:1056A000D8BF40F00100C1F30C0343EA403004F0DE
:1056B000D1FAA9F806000698143080B204F0CAFAAC
:1056C00000230C9A5946A9F80200304689F80A309E
:1056D00089F80B3073699847584603F00BFFDDE9F2
:1056E0000530A3EB0009DDE907131FFA89F20B442B
:1056F00005929BB20793002A7FF45DAF0020B5E7C7
:105700002744BFB2C1E76FF00500AFE71D500408A2
:1057100003F0F0BE294C00B5204683B0FCF750F8EA
:1057200063680BB1A0689847244D05F10C0610E0A2
:1057300068B12846FCF74AF8224601A93046FCF732
:1057400085F804462846FCF73BF8013411D104F0F3
:1057500037FA04F06DFA431C0446E9D12846FCF7F9
:1057600035F8002201A93046FCF770F82846FCF70E
:1057700027F8019C002CECD02378012B0DD0022BB4
:1057800013D0002BE5D16068D4E90213984780B9A3
:105790002146092003F02CFCDBE7D4E901309847CF
:1057A0002146082003F024FCD3E7D4E901309847D0
:1057B000CFE7606803F09EFEEAE700BF3C460020AA
:1057C000F8B5074609200E46154603F0E5FB78B10B
:1057D0000446002347600146866003700648E56082
:1057E000FCF714F800B9F8BD2146092003F000FCCD
:1057F0004FF0FF30F8BD00BF48460020F8B591F8E3
:105800002D3007460C46092013F0180515D003F07B
:10581000C3FB054670B10022134B0146C0E9017479
:1058200012482A70EB60FBF7F1FFA8B12946092066
:1058300003F0DEFB4FF0FF30F8BD03F0ADFB064692
:105840000028F7D00A4B0146057047600748C6E9B3
:105850000243FBF7DBFF08B90020F8BD3146092001
:1058600003F0C6FBE6E700BFC5D8040848460020A1
:10587000514A040838B5054608200C4603F08CFB55
:1058800048B101460123C0E9015404480B70FBF7FD
:10589000AFFF002038BD4FF0FF3038BD4846002034
:1058A00070B5064608200D4603F076FB70B104463D
:1058B00001230146C0E9016506482370FBF7A6FFF6
:1058C00000B970BD2146082003F092FB4FF0FF3075
:1058D00070BD00BF4846002070B5064E0D46044618
:1058E0003046FBF76DFF2846A0473046FBF76EFFBA
:1058F000002070BD3C46002070B5074E0D460446A2
:105900003046FBF75DFF2846A04704463046FBF7CC
:105910005DFF204670BD00BF3C46002038B50546FF
:1059200008200C4603F038FB18B10223C0E90154EB
:10593000037038BD0146082003F05ABB01460148F8
:10594000FBF764BF4846002001460148FBF76EBFE5
:105950004846002070B50D4C82B006460D4603F057
:10596000FFF8062104F10C00C4E90165FBF732FFE2
:1059700020462024FBF716FF4FF400630022044961
:1059800000940448FBF7F8FE02B070BD3C460020CE
:1059900015570408B0AA050838B50546082003F0D5
:1059A000FBFA78B10122094B04460146856002707A
:1059B00043600748FBF72AFF00B938BD214608209D
:1059C00003F016FB4FF0FF3038BD00BF115704083D
:1059D0004846002038B50546082003F0DDFA78B1C6
:1059E0000122094B04460146856002704360074866
:1059F000FBF70CFF00B938BD2146082003F0F8FA88
:105A00004FF0FF3038BD00BFC58B0408484600206A
:105A100070B40023144DEFF3108472B6BFF34F8FB0
:105A2000BFF36F8F1A01AE584EB104B962B601339D
:105A3000042BF0D14FF0FF3370BC18467047A850CC
:105A400004B962B61544002401F001016C602C8198
:105A500002781846AC8102F0F002102A18BF41F01B
:105A60000101698170BC70474C4600202DE9F04F60
:105A7000B0F1000E83B040F389800025464CA84663
:105A80002846AC4600950195002952D04FEA6C1685
:105A90000CF01F0751F82660FE40F50749D5EFF3DB
:105AA000108672B6BFF34F8FBFF36F8FBCF1030F39
:105AB00064DCD4F804A0B4F908B0B4F80A90A7895B
:105AC00006B962B651B10E6826FA0CF6F50705D58F
:105AD000BAF1000F4BD1BBF1000F48DC3AB11668A8
:105AE00026FA0CF6F60702D5B9F1000F37D163B1EB
:105AF0001E6826FA0CF6F50707D537B10126019D79
:105B0000013006FA0CF6354301950CF1010C103406
:105B1000E645B9D1019D00230C9A0099C2E90083A2
:105B20000D9AC2E900130E9AC2E9005303B0BDE812
:105B3000F08F42B14FEA6C160CF01F0752F8266046
:105B4000FE40F707ABD4002BDFD04FEA6C160CF009
:105B50001F0753F82660FE40F607D6D59FE70126BB
:105B6000009D013006FA0CF635430095BFE701268B
:105B7000013006FA0CF648EA0608AFE726B14FF006
:105B8000FF3003B0BDE8F08F62B6F8E70025A84605
:105B900028460095BFE700BF4C460020002900F0D2
:105BA00092804FF0000C03462DE9F04F02F0010700
:105BB00083B002F00204DFF814A102F00402604690
:105BC000E646B946009401921A68B9F1000F42D036
:105BD000002AA3F806E052DBEFF3108572B6BFF39C
:105BE0004F8FBFF36F8F1A68032A5CD80AEB02123B
:105BF000009CD2F80480B2F908B057899689002C2D
:105C000044D0947B0134E4B29473002C55D005B990
:105C100062B6B3F90440B3F90620E50705D5B8F13B
:105C2000000F3CD1BBF1000F39DCA40700D5EFB960
:105C300006BB12BB0CF1010C08336145C4D103B0A3
:105C4000BDE8F08F2607C7D50CF1010C08330130F1
:105C50008C45F4D01A68002AB3F90640F2DA64B928
:105C60000CF1010C08338C45F4D1E8E742F0020254
:105C7000DA8016B142F00402DA800130DAE70CF182
:105C8000010C08336145DAD01A68A1E7019C002CA9
:105C9000BDD0947B002CBAD0013C9473B7E742F09E
:105CA0000102DA80C1E735B1DA8842F00802DA8011
:105CB0004FF0FF30C3E762B6F6E7FF239373002D82
:105CC000F6D162B6F4E70846704700BF4C460020A4
:105CD000032830D8000170B516461D4A86B010580A
:105CE00018B30D460DF1020201A902F0DFFC0446D3
:105CF00038BB4FF40473BDF80200ADF8083003F070
:105D0000A9FF3268019B102AADF80A000393CDE980
:105D1000044406D802A928460EF014FC002006B060
:105D200070BD10231A463360F4E70A4B09221A604B
:105D30004FF0FF30F3E7074B09224FF0FF301A60B6
:105D4000704701F04DFC0028F2D0024B1860EFE7DD
:105D50004C460020C40C0120002A2DE9F04FACBFB6
:105D600014466FF0004413F0080F83B09A460746BC
:105D7000894614BF0C220822002603F00108786827
:105D800088B30190B0F808B0A3455D4602DB1FFA66
:105D900084FB254609EB060100235A462E4403F0F6
:105DA0008FFCB8F1000F03D0304603B0BDE8F08F90
:105DB00001980389AB4211DD594603F077FB786007
:105DC000641B1C22002CDADC002EEDDD3146386825
:105DD00002F05EFD304603B0BDE8F08FC7F80480E6
:105DE00003F088FBECE701A9386802F079FD05466D
:105DF00010B901987860C5E7002E03DD1AF0010F95
:105E0000E4D0D1E701F0ECFB08B1034B18600F358B
:105E100018BF01256E42C7E7C40C0120002800F01E
:105E20008F802DE9F8438469002C15DB032C22DCDC
:105E30005C4A2301D058F0B1EFF3108072B6BFF383
:105E40004F8FBFF36F8F1344042900F2A480DFE863
:105E500001F06A6626231700EFF3108372B6BFF3D2
:105E60004F8FBFF36F8F8469002C6ADB002BDDD16D
:105E700062B6032CDCDD4C4B09221A60BDE8F883C6
